:100000000C944D030C947E030C947E030C947E039D
:100010000C947E030C947E030C947E030C947E035C
:100020000C947E030C947E030C947E030C947E034C
:100030000C947E030C947E030C947E030C947E033C
:100040000C947E030C947E030C947E030C947E032C
:100050000C947E030C947E030C947E030C94D924A0
:100060000C947E030C944D250C9423250C947E0354
:100070000C947E030C947E030C947E030C947E03FC
:100080000C947E030C947E030C947E030C947E03EC
:100090000C947E030C947E030C947E030C948325B5
:1000A0000C947E030C947E030C947E030C947E03CC
:1000B0000C947E030C947E030C947E030C947E03BC
:1000C0000C947E030C947E030C947E030C947E03AC
:1000D0000C947E030C947E030C947E030C947E039C
:1000E0000C947E030C94B20E0C942B080C94A20476
:1000F0000C94BD040C94F4070C9401160C949A040F
:100100000C948B240C94BC190C9443040C949E0402
:100110000C940B0E0C9421180C94221E0C94C70402
:100120000C94AF040C94C7120C94D3140C943B1889
:100130000C940D090C94C60E0C9402130C94150823
:100140000C94A9040C9496310C94CA130C943B168D
:100150000C94B6240C946F050C94F7170C942D0E88
:100160000C9493080C9492050C94D8050C944308B5
:100170000C9483040C94B8240C9442050C94A72688
:100180000C94CB040C94E71D0C9494100C94100464
:100190000C94D8170C94230A0C9488040C94A00592
:1001A0000C94F7180C94DE200C94FE160C94E012BC
:1001B0000C94B9040C94BB130C9409040C9491197D
:1001C0000C94B50E0C9433080C940A080C94B60EDB
:1001D0000C94D5040C941A0E0C9411040C947E0506
:1001E0000C94D9040C9447040C94B3040C94BA0EE8
:1001F0000C942F080C944A080C94E3150C94A60454
:100200000C9444060C9415190C945A0E0C94C104C9
:100210000C94C40E0C94FB080C94F8150C94CF04A9
:100220000C9451210C94D10E0C943B130C94C90ED8
:100230004E414E494E495459494E46CDCCCC3D0ACB
:10024000D7233C17B7D13877CC2B329595E6241FAE
:10025000B14F0A000020410000C84200401C462067
:10026000BCBE4CCA1B0E5AAEC59D7400407A10F33A
:100270005A00A0724E18090010A5D4E80000E876D4
:1002800048170000E40B54020000CA9A3B0000002B
:10029000E1F505000080969800000040420F000044
:1002A00000A08601000000102700000000E8030005
:1002B0000000006400000000000A000000000001CF
:1002C00000000000002C76D888DC674F0823DFC1CF
:1002D000DFAE59E1B1B796E5E3E453C63AE651998A
:1002E0007696E8E6C28426EB898C9B62ED407C6FB3
:1002F000FCEFBC9C9F40F2BAA56FA5F490055A2A6A
:10030000F75C936B6CF9676DC11BFCE0E40D47FE75
:10031000F520E6B500D0ED902E030094357705006A
:1003200080841E080000204E0A000000C80C3333F1
:1003300033330F986E12831141EF8D2114893BE600
:100340005516CFFEE6DB18D1844B381BF77C1D9089
:100350001DA4BBE424203284725E228100C9F124F2
:10036000ECA1E53D27596F752068617665206265CF
:10037000656E2062616E6E65642066726F6D2063CB
:100380006F6E6E656374696E672E20506C65617365
:100390006520636F6E7461637420746865204D51CD
:1003A0005454207365727665722061646D696E695C
:1003B00073747261746F7220666F72206D6F7265F4
:1003C0002064657461696C732E00457863656564AB
:1003D0006564207265636F6E6E656374207261740C
:1003E00065206C696D69742E20506C6561736520A1
:1003F00074727920616761696E206C617465722E18
:10040000004E6F7420617574686F72697A6564203C
:10041000746F20636F6E6E6563740054686520644A
:1004200061746120696E207468652075736572203F
:100430006E616D65206F722070617373776F726487
:10044000206973206D616C666F726D65640054681D
:1004500065204D5154542073657276696365206937
:100460007320756E617661696C61626C65005468B9
:100470006520436C69656E74206964656E74696695
:1004800069657220697320636F72726563742055A9
:1004900054462D3820627574206E6F7420616C6C28
:1004A0006F77656420627920746865205365727681
:1004B0006572005468652053657276657220646FBA
:1004C0006573206E6F7420737570706F7274207412
:1004D0006865206C6576656C206F662074686520A1
:1004E0004D5154542070726F746F636F6C2072653D
:1004F0007175657374656400436F6E6E65637469CE
:100500006F6E206661696C6564004661696C656444
:1005100020746F20737562736372696265008586EB
:100520008782838443616C6962726174696F6E2033
:10053000446F6E650048696768204D61676E697435
:10054000756465203220466F756E6400486967687F
:10055000204D61676E6974756465203120466F7542
:100560006E6400556E6B6E6F776E206572726F727F
:100570000041646D697474616E63653A0909000035
:10058000000A0B02090C0D0E08070304010000000D
:10059000000000000000000000000000000000005B
:1005A0000000000000000000000000121110000018
:1005B000000000000000000000000000000000003B
:1005C000000000000000002200250028002B002E63
:1005D000003100340002010000050108010B010098
:1005E000002100240027002A002D003000330001E4
:1005F000010000040107010A0105050505070508BA
:10060000080808020202020A0A0808040404040195
:1006100001010101010101030303030303030304B7
:100620000707070C0C0C0C0C0C0C0C020202020647
:10063000060606060606060B0B0B0B0B0B0B0B0137
:1006400002102020080810204010204080020102E3
:1006500001080402010102040810204080804020AB
:1006600010080402018004020180402010080402E6
:100670000108040201010204081020408001020464
:10068000081020408044726F707065642061207093
:1006900061636B657400A726963111241FBECFEFEE
:1006A000D1E2DEBFCDBF00E00CBF14E0A0E0B2E0BD
:1006B000E6E2F6E700E00BBF02C007900D92AC3116
:1006C000B107D9F727E0ACE1B4E001C01D92A03832
:1006D000B207E1F713E0CCE4D3E000E006C02197D5
:1006E0000109802FFE010E946B39CB34D10780E0D5
:1006F0000807A9F70E943B280C94013B0C940000CA
:100700002F923F924F925F926F927F928F929F9221
:10071000AF92BF92CF92DF92EF92FF920F931F930F
:10072000CF93DF93EC014B015A01E881F9810484F6
:10073000F585E02D9A0141E050E019950197A9F067
:1007400090E080E0DF91CF911F910F91FF90EF90AB
:10075000DF90CF90BF90AF909F908F907F906F90E1
:100760005F904F903F902F90089584010F5F1F4F2F
:10077000140185E0280E311C412C512C3201439488
:10078000C12CD12C7601E881F9810484F585E02D16
:10079000950141E050E0B801CE011995019781F62D
:1007A000D801ED918D01AE2FAF77B0E0A30192019A
:1007B0000E94B437C60ED71EE81EF91E87E0440C0F
:1007C000551C661C771C8A95D1F70215130509F490
:1007D000B7CFE7FDD8CFC801881999094C0145E981
:1007E00050E0481B590BE881F9810484F585E02D20
:1007F000CA01B0E0A0E095018C159D05AE05BF05CE
:1008000030F4B801CE011995880D991D9BCFA60132
:10081000F8CF8091140590911505891B990B0895C7
:100820000895089520E3FC0120833296862F829557
:100830008F706F706A3030F4605D6293682F811141
:10084000F5CF0895695CF9CF90E0FC01E15CF94FC8
:10085000249187509A4FFC018491882399F090E06D
:10086000880F991FFC01E152FA4FA591B491FC0148
:10087000EB53FA4F859194918FB7F894EC91E22B5A
:10088000EC938FBF0895FC01818D928D089508959A
:100890008230910538F0880F991F880F991F0597AE
:1008A0000197F1F70895282F30E0F901E158FA4F48
:1008B0009491F901E15CF94F449127503A4FF901C5
:1008C0002491222309F435C0992311F191509231DA
:1008D000F8F4E92FF0E08827EF58FB4F8F4F0C9486
:1008E0006B39A204A60483049A049E048804A90414
:1008F000AF04B304B904BD04C104C704CB04880425
:10090000CF04D504D904809180008F778093800034
:10091000E22FF0E0EE0FFF1FEB53FA4FA591B491D9
:100920008FB7F894EC91611148C040954E234C93D9
:100930008FBF0895809180008F7DE8CF80918000E7
:10094000877FE4CF84B58F7784BDE2CF84B58F7D78
:10095000FBCF8091B0008F778093B000D9CF80918A
:10096000B0008F7DF9CF809190008F7780939000B9
:10097000CFCF809190008F7DF9CF80919000877FBD
:10098000F5CF8091A0008F778093A000C1CF809198
:10099000A0008F7DF9CF8091A000877FF5CF809157
:1009A00020018F7780932001B3CF809120018F7D2C
:1009B000F9CF80912001877FF5CF4E2BB8CF3FB77D
:1009C000F8948091D3049091D404A091D504B0916F
:1009D000D60426B5A89B05C02F3F19F00196A11D8E
:1009E000B11D3FBFBA2FA92F982F8827BC01CD0179
:1009F000620F711D811D911D42E0660F771F881FD8
:100A0000991F4A95D1F708958F929F92AF92BF9206
:100A1000CF92DF92EF92FF924B015C010E94DF04C4
:100A20006B017C010E94DF046C197D098E099F090E
:100A3000683E734081059105A8F321E0821A910870
:100A4000A108B10888EEC80E83E0D81EE11CF11C95
:100A500081149104A104B10429F7FF90EF90DF9075
:100A6000CF90BF90AF909F908F9008952FB7F8943C
:100A70006091CF047091D0048091D1049091D20400
:100A80002FBF0895AF92BF92CF92DF92EF92FF9265
:100A90000F931F93CF93DF936C017B018B01040FA6
:100AA000151FEB015E01AE18BF08C017D10759F042
:100AB0006991D601ED91FC910190F081E02DC60184
:100AC0001995892B79F7C501DF91CF911F910F916E
:100AD000FF90EF90DF90CF90BF90AF900895FC0112
:100AE000538D448D252F30E0842F90E0821B930B93
:100AF000541710F0CF96089501970895FC01918D39
:100B0000828D981761F0A28DAE0FBF2FB11D5D963B
:100B10008C91928D9F5F9F73928F90E008958FEFDD
:100B20009FEF0895FC01918D828D981731F0828D91
:100B3000E80FF11D858D90E008958FEF9FEF0895E8
:100B4000FC01918D228D892F90E0805C9F4F821B4C
:100B500091098F739927089586E895E00E94A00572
:100B600021E0892B09F420E0822F0895FC01A48D57
:100B7000A80FB92FB11DA35ABF4F2C91848D90E0BF
:100B800001968F739927848FA689B7892C93A089A2
:100B9000B1898C91837080648C93938D848D98132C
:100BA00006C00288F389E02D80818F7D80830895BF
:100BB000EF92FF920F931F93CF93DF93EC0181E0AD
:100BC000888F9B8D8C8D98131AC0E889F989808154
:100BD00085FF15C09FB7F894EE89FF896083E88987
:100BE000F98980818370806480839FBF81E090E079
:100BF000DF91CF911F910F91FF90EF900895F62E06
:100C00000B8D10E00F5F1F4F0F731127E02E8C8D9F
:100C10008E110CC00FB607FCFACFE889F9898081E4
:100C200085FFF5CFCE010E94B605F1CFEB8DEC0F1D
:100C3000FD2FF11DE35AFF4FF0829FB7F8940B8F01
:100C4000EA89FB8980818062CFCFEF92FF920F9378
:100C50001F93CF93DF938C017B01D0E0C0E0F701BD
:100C6000EC0FFD1F6491662339F0C8010E94D8057E
:100C7000892B11F02196F3CFCE01DF91CF911F91F7
:100C80000F91FF90EF900895CF93DF93EC01888D43
:100C90008823B9F0AA89BB89E889F9898C9185FDF7
:100CA00003C0808186FD0DC00FB607FCF7CF8C9185
:100CB00085FFF2CF808185FFEDCFCE010E94B60582
:100CC000E9CFDF91CF91089580E090E0892B29F062
:100CD0000E94AC0581110E94000080E090E0892B09
:100CE00049F080E090E0892B29F00E9400008111FA
:100CF0000E94000080E090E0892B49F080E090E0C5
:100D0000892B29F00E94000081110E94000080E0E0
:100D100090E0892B49F080E090E0892B29F00E9437
:100D2000000081110C9400000895FC0120812EBD6B
:100D30009B012150310941F051810DB407FEFDCFD7
:100D40004EB55EBD4193F5CF61507109860F971F77
:100D50000DB407FEFDCF2EB5FC0120830895E09170
:100D60006104F0916204808190916004892B8083FA
:100D70000895E0916104F091620490818091600493
:100D800080958923808308958EBD00000DB407FEF1
:100D9000FDCF8EB50895AF92BF92CF92DF92EF92C2
:100DA000FF920F931F93CF93DF9300D000D01F9239
:100DB0001F92CDB7DEB78C017B016A0180910F05D0
:100DC0008333E1F45801A40EB51EA016B10609F450
:100DD0006FC00E94B90680EF0E94C406812F0E9456
:100DE000C406802F0E94C4060F5F1F4FF701819138
:100DF0007F010E94C4060E94AF06E7CF5B01A40EEC
:100E0000B51E8433C1F40E94B90619830A838D2D5F
:100E100080688B83CC8264E070E0CE0101960E94F2
:100E20009506AE14BF0409F441C0F70181917F011A
:100E30000E94C406F6CF0E94B9060F3F110509F0C3
:100E400028F419820A8384E08B830CC017FD17C035
:100E500019820A8333E0169507953A95E1F7007EEB
:100E60000C600B8386E0C816D104A0F5F701DE0103
:100E70001496EA15FB0599F081918D93FACFC8017C
:100E800026E0969587952A95E1F7807E19830A8357
:100E90000115104C10F48461D7CF8C61D5CFB60109
:100EA0006D5F7F4FCE0101960E9495060E94AF06AE
:100EB000C60128960FB6F894DEBF0FBECDBFDF91F6
:100EC000CF911F910F91FF90EF90DF90CF90BF9047
:100ED000AF90089563E070E0CE0101960E94950600
:100EE000F70181917F010E94C406AE14BF04C1F7CF
:100EF000DDCFCF93DF931F92CDB7DEB7898341E07B
:100F000050E0BE016F5F7F4F90E080E00E94CB0613
:100F10000F90DF91CF91089590E020910F0523333A
:100F200039F40C96982F990F990F990F80E0089536
:100F30004896F8CFDA01E0916404F0E0FE2FEE2746
:100F4000E60FF71F90E0982F8827A901BD018E0FAB
:100F50009F1F0C94CB06CF93DF931F921F92CDB7A8
:100F6000DEB779836A8322E030E0AE014F5F5F4FE6
:100F700060E170E00E949A070F900F90DF91CF918F
:100F80000895CF93DF931F921F92CDB7DEB7798379
:100F90006A8322E030E0AE014F5F5F4F64E070E0B3
:100FA0000E949A070F900F90DF91CF910895CF93F1
:100FB000DF931F92CDB7DEB72091640430E0322F6B
:100FC0002227260F371F90E0982F8827498341E07A
:100FD00050E0BE016F5F7F4F820F931F0E94CB06D0
:100FE0000F90DF91CF910895CF93DF931F92CDB7EC
:100FF000DEB76983DC01ED91FC910280F381E02D85
:1010000041E050E0BE016F5F7F4F19950F90DF9177
:10101000CF910895FC019485FB018485981303C04A
:1010200081E0983008F080E00895CF93DF931F921D
:10103000CDB7DEB76983DC01ED91FC910280F381CD
:10104000E02D41E050E0BE016F5F7F4F19950F909A
:10105000DF91CF910895FC01848595850895FC0169
:1010600084899589089520EB32E0FC013183208347
:10107000FB014089518962897389FC014283538352
:10108000648375830895DC01ED91FC91048CF58DEA
:10109000E02D1994AF92BF92CF92DF92EF92FF9220
:1010A0000F931F93CF93DF935B01EA01F12CE12CA7
:1010B00086539F4F6C012097A1F1D6018D919C9191
:1010C000DC01ED91FC910688F789E02D19958111DD
:1010D0000CC080E0DF91CF911F910F91FF90EF90B6
:1010E000DF90CF90BF90AF9008958E01CB3FD10598
:1010F00010F00AEF10E0F60180819181B5016E0DCC
:101100007F1DDC01ED91FC910280F381E02DA801AF
:101110001995C81BD90BE80EF91E0817190759F2C3
:10112000D8CF81E0D7CF6F927F928F929F92AF926C
:10113000BF92CF92DF92EF92FF920F931F93CF93C4
:10114000DF93F12CE12C41155105E9F1632E722E4C
:101150006A015B01C22FD32FF12CE12C8C010653C5
:101160001F4FF80180819181DC01ED91FC9106888F
:10117000F789E02D1995882331F1D7FD24C0450169
:101180008E0C9F1CF80180819181DC01ED91FC9116
:101190000084F185E02D1995892B29F1F8018081D2
:1011A0009181DC01ED91FC910284F385E02D19958C
:1011B000F40181934F01FFEFEF1AFF0AC72DD62DDF
:1011C000CE14DF04F9F6C701DF91CF911F910F9183
:1011D000FF90EF90DF90CF90BF90AF909F908F9057
:1011E0007F906F9008952A976AE070E080E090E029
:1011F0000E940405B6CF86539F4FDC018D919C91D0
:10120000DC01ED91FC910688F789E02D199591E0BC
:10121000811101C090E0892F0895CF93DF93EC01F5
:10122000C653DF4F88819981DC01ED91FC910688DE
:10123000F789E02D1995882349F088819981DC018F
:10124000ED91FC910488F589E02D199581E0DF91FD
:10125000CF9108959F92AF92BF92CF92DF92EF927B
:10126000FF920F931F93CF93DF931F92CDB7DEB7FB
:101270008C01A62E6983DC018D919C91892BA1F0B4
:1012800061E070E0CE0101960E94950689810F9081
:10129000DF91CF911F910F91FF90EF90DF90CF9052
:1012A000BF90AF909F900895F80180859185FF24AD
:1012B000F394892B11F080E8F82E992493948A2DC9
:1012C0008F2109F0912CD80114962D913D914D91CB
:1012D0005C91179760E271EA87E090E00E94C7375F
:1012E000E22EB12CC22ED12CEE2019F0C6010E94A4
:1012F0004804F8018285877F09F057C085858F3FB4
:10130000B1F09A2D9F2181E009F480E0891579F0F0
:10131000D8011F96ED91FC91509757968C91992387
:1013200009F43DC09081892B808399249394D8013E
:101330005196ED91FC915297808159969C91892B01
:101340008083EE2019F0C6010E944804F8018685CA
:101350008F3F51F00388F489E02D8081D8015896A1
:101360009C91892309F0BF28D8015196ED91FC91F9
:101370005297908159968C91809589238083F801AA
:1013800086858F3F09F0B982D80118968D919C917E
:10139000892B09F04AC0FF0CF110A6CF77CF9081BE
:1013A000809589238083912CC2CFD8010188F2894E
:1013B000E02D808159969C91892B8083EE2019F035
:1013C000C6010E944804F80185858F3F61F00784BB
:1013D000F089E02DD80157968C919A2D9F2109F123
:1013E0009081892B8083D8015196ED91FC91529781
:1013F000908159968C9159978095892380831E9668
:101400008C911E978F3F09F4BACF5396ED91FC91C2
:101410005497808158969C91892309F4B0CFBF28B6
:10142000AECF908180958923DDCFF694B5CF089516
:10143000FC0183858F3F19F061E00C9453040895FB
:101440008CBD9DBD0895FF920F931F93CF93DF93A3
:10145000EB01FC01178A168A2A81211109C02B8110
:10146000211106C02C81211103C02D81222301F1FD
:1014700041155105E9F08A01FC01F08C80E591E00D
:101480000E94200AAE014E5F5F4F24E030E06CE026
:1014900070E08F2D0E949A07B8018F2D0E94AB0734
:1014A00081E090E0DF91CF911F910F91FF9008951F
:1014B00080E0F7CFCF93DF93EC0188819981892B6E
:1014C00031F0EA81FB81808191810E94200A8B8525
:1014D0008F3F29F060E0DF91CF910C945304DF91AE
:1014E000CF9108958F929F92AF92BF92CF92DF9249
:1014F000EF92FF920F931F93CF93DF937C014B01E9
:101500006A01B22EA32E0E945A0AE401C80CD91C0B
:10151000CC15DD0569F4CB2DDA2D0C0F1D1FC0177E
:10152000D10759F06FEFC7010E942A098993F7CFBD
:101530006991C7010E942A09EBCFC7010E94180ACE
:1015400081E0DF91CF911F910F91FF90EF90DF909D
:10155000CF90BF90AF909F908F9008958F929F9261
:10156000AF92BF92CF92DF92EF92FF920F931F93B1
:10157000CF93DF937C01B62EA72E6A0149010E940A
:101580005A0AE401080D191DC017D10761F4CB2DCB
:10159000DA2DCC0EDD1ECC15DD0551F06991C701A9
:1015A0000E942A09F8CF6991C7010E942A09ECCF4D
:1015B000C7010E94180A81E0DF91CF911F910F911E
:1015C000FF90EF90DF90CF90BF90AF909F908F9063
:1015D000089520913D04260F3327331F2132310512
:1015E000ECF420915C05FC0190E080E0243069F08F
:1015F00082E00895A0913D042191AC01435E5B4FD0
:10160000A40FB52FB11D2C930196861798F38091E6
:101610003D04680F60933D0480E0089581E00895E3
:1016200010925C0581E080935B051092360561E0C5
:1016300084E10E94530461E085E10E945304E9EBD8
:10164000F0E080818E7F808380818D7F808388E43D
:101650008093B80085E48093BC000895109215052E
:101660001092140510926305109285050E94100BCC
:1016700080E194E0909313058093120581E194E05A
:1016800090931105809310050895CF93DF9391E017
:1016900090931C048823B9F0C091B800D091BA008F
:1016A0008091BC008A7B8093BC0060E084E10E9452
:1016B000530460E085E10E9453040E94100BD09314
:1016C000BA00C093B800DF91CF9108958F929F9296
:1016D000AF92BF92CF92DF92EF92FF920F931F9340
:1016E000CF93DF93D0918505D13208F0D7C0182F62
:1016F000C09184050E94DF046B017C0180915C0530
:1017000081116BC082E080935C0510935B058FEFC5
:1017100080935A0510925905D0935805A4E6B5E078
:10172000E8E3F5E080E0D81391C01092370580918E
:101730003705CC0FC82BC093370580913605813013
:1017400009F088C0109236050E94DF046B017C010D
:10175000809137058093BB0080915E0590915F0575
:10176000A0916005B0916105892B8A2B8B2BA1F08C
:101770000E94DF0400915E0510915F0520916005D5
:10178000309161056C197D098E099F0906171707AD
:101790002807390708F442C08091BC0083FDD8CFE8
:1017A00085EC8093BC000E94DF046B017C0180917A
:1017B0005C05823009F450C080915A058F3F09F4CE
:1017C0006FC080915A05803209F46CC080915A052F
:1017D000803309F469C084E026C080915E05909151
:1017E0005F05A0916005B0916105892B8A2B8B2B39
:1017F00009F484CF0E94DF0480905E0590905F051D
:10180000A0906005B09061056C197D098E099F0953
:1018100086169706A806B90608F070CF80915D0578
:101820000E94450B85E01092630510928505109289
:101830006205DF91CF911F910F91FF90EF90DF90A4
:10184000CF90BF90AF909F908F9008959D9191936E
:101850008F5F69CF85EEA5CF80915E0590915F0582
:10186000A0916005B0916105892B8A2B8B2B09F41F
:101870009ECF0E94DF0400915E0510915F052091CC
:101880006005309161056C197D098E099F09061765
:1018900017072807390708F08ACFC0CF81E0C3CFE8
:1018A00080E0C1CF82E0BFCF83E0BDCF8F929F9217
:1018B000BF92CF92DF92EF92FF920F931F93CF933D
:1018C000DF93DA01AE0DBF1DEC01EC81FD81EA175B
:1018D000FB0710F490E026C0B22E6A014B0189810B
:1018E0009A81288131E0309362052093840510921B
:1018F000630510928505E114F10409F589819A8147
:10190000DC01ED91FC910280F381E02DA601B40190
:101910001995C816D906F1F68B2D0E94660B91E039
:101920008111D8CF892FDF91CF911F910F91FF9017
:10193000EF90DF90CF90BF909F908F90089501150A
:101940001105E1F2DC01ED91FC910280F381E02DC3
:10195000A701B80119958E159F0509F0BBCFCECF11
:10196000EF92FF920F931F93CF93DF931F921F92DB
:10197000CDB7DEB7FC014787508B618B728B8285B8
:10198000882339F14487452F562F672F77278823DF
:1019900011F14387BF01655F7F4F9681478199832E
:1019A0004A83A081B1811097C1F0E184F12C8E01AE
:1019B0000F5F1F4F21E042E050E0CD010E94560C26
:1019C0000F900F90DF91CF911F910F91FF90EF90AB
:1019D00008954387D8CF4487DDCFA281B38180E0CB
:1019E000109771F324813581018510E02330310592
:1019F00071F44E7F49839A830F5F1F4F9E012F5FC3
:101A00003F4F42E050E0CD010E94AE0AD9CF2115F0
:101A1000310519F49F779983F1CF2230310511F404
:101A20009068F9CF2130310549F79F779064F3CF63
:101A3000EF92FF920F931F93E0E7F7E087837087A1
:101A40006187F12CE12C10E000E021E043E050E060
:101A500067E777E0808191810E94560C1F910F917A
:101A6000FF90EF9008958F929F92AF92BF92CF9286
:101A7000DF92EF92FF920F931F93CF93DF93D82FB4
:101A8000C62F142F613208F09CC00E94DF046B0146
:101A90007C0180915C0581116FC081E080935C05C1
:101AA00010935B059FEF90935A05109259059C0F78
:101AB000909358058093370580913705DD0FD82B1B
:101AC000D093370580913605813009F07CC01092A3
:101AD00036050E94DF046B017C01809137058093FD
:101AE000BB0080915E0590915F05A0916005B0916B
:101AF0006105892B8A2B8B2BA1F00E94DF040091BA
:101B00005E0510915F0520916005309161056C19AB
:101B10007D098E099F09061717072807390708F45A
:101B20004CC08091BC0083FDD8CF85EC8093BC0075
:101B30000E94DF046B017C0180915C05813009F417
:101B400044C0809159058C1710F4C0915905E8E301
:101B5000F5E0A6E1B5E080E08C1359C08C2FDF9151
:101B6000CF911F910F91FF90EF90DF90CF90BF909A
:101B7000AF909F908F90089580915E0590915F0542
:101B8000A0916005B0916105892B8A2B8B2B09F4FC
:101B900080CF0E94DF0480905E0590905F05A0904A
:101BA0006005B09061056C197D098E099F09861644
:101BB0009706A806B90608F06CCF80915D050E94D3
:101BC000450BC0E0CBCF85EEB1CF80915E05909103
:101BD0005F05A0916005B0916105892B8A2B8B2B45
:101BE00009F4AACF0E94DF0400915E0510915F0501
:101BF00020916005309161056C197D098E099F095E
:101C0000061717072807390708F096CFD6CF919106
:101C10009D938F5FA1CFE091150580911405E81782
:101C200030F4F0E0EA5EFA4F808190E008958FEFA3
:101C30009FEF089590911505809114052FEF3FEFC8
:101C4000981748F4E92FF0E0EA5EFA4F208130E07F
:101C50009F5F90931505C9010895CF92DF92EF928F
:101C6000FF920F931F93CF93DF937C01CB018A01E7
:101C700020916205222389F0EB016B01C40ED51E71
:101C8000CC15DD0569F06991D701ED91FC910190CA
:101C9000F081E02DC7011995F3CF642F0E94E90A66
:101CA000C801DF91CF911F910F91FF90EF90DF90CE
:101CB000CF900895CF93DF931F92CDB7DEB769839E
:101CC000209162052223F9F020918505203258F0F9
:101CD00021E030E0FC013383228390E080E00F902C
:101CE000DF91CF91089580916305E82FF0E0EC59E2
:101CF000FA4F998190838F5F809363058093850568
:101D000081E090E0ECCF61E0CE0101960E94E90A0B
:101D1000F7CF81E00C94660BCF93DF93EC018B81BE
:101D20008823A9F089819A81288131E03093620566
:101D30002093840510926305109285050E94890EF8
:101D400091E0811190E0892FDF91CF9108950E9459
:101D50002E0B81E08B83CE010E948C0E982F811177
:101D6000E1CFF1CF90E080E008950895FC017687FF
:101D700065870895DC01ED91FC9102A0F3A1E02DAF
:101D8000199591E089270895862F089581E0862787
:101D9000089521E0FC018485883008F020E0822F3E
:101DA00008950895CF93DF93C82F41E061E088E460
:101DB0000E94330DD82F10921505809314058FEFD4
:101DC00090911505D91729F08FE596E00E941A0E1B
:101DD000F7CF91E09093620598E490938405109278
:101DE000630510928505C150C83008F0C7E041E096
:101DF00050E060E070E004C0440F551F661F771F7D
:101E0000CA95D2F7682F642B8FE596E00E945A0E90
:101E10008FE596E0DF91CF910C94890E6F927F92BF
:101E20008F929F92AF92BF92CF92DF92EF92FF92EA
:101E30000F931F93CF93DF937C013B016A0110E066
:101E400000E00C151D05F0F5D70114968D919C91BD
:101E5000E601C01BD10B8C179D0708F4EC0141E093
:101E6000C6018C1B9D0B0817190708F440E06C2F66
:101E7000C13208F060E2F70180810E94330D1092B8
:101E80001505809314058C171D0661F54301800E1E
:101E9000911E5401C501881999098C179D0778F482
:101EA000D70111968D919C91DC01ED91FC910284FA
:101EB000F385E02D1995F50181935F01EBCF0C0FB0
:101EC0001D1FBFCF81E0DF91CF911F910F91FF9038
:101ED000EF90DF90CF90BF90AF909F908F907F90CA
:101EE0006F90089580E0EFCFEF92FF920F931F93D2
:101EF000CF93DF93C0E7D7E08F83F12CE12C10E084
:101F000000E021E041E050E067E777E088819981D7
:101F10000E94560C42E050E067E777E088819981A3
:101F20000E940E0F8F819885982789279827DF9127
:101F3000CF911F910F91FF90EF9008956F927F9234
:101F40008F929F92AF92BF92CF92DF92EF92FF92C9
:101F50000F931F93CF93DF931F921F92CDB7DEB7DE
:101F60006C015B014C018BE0880E911CD60116962A
:101F70009C91169717968C91179799838A836D90E9
:101F80007C90119761147104D9F119964C9150E02D
:101F9000F12CE12C10E000E020E0BE016F5F7F4FEC
:101FA000C3010E94560C811112C080E00F900F9067
:101FB000DF91CF911F910F91FF90EF90DF90CF9025
:101FC000BF90AF909F908F907F906F90089542E068
:101FD00050E0B401C3010E940E0F882339F3F601CB
:101FE000928591113CC0248530E0322F2227D50103
:101FF00011963C932E939385292B2D933C93D6CF0A
:102000001296ED91FC911397309779F214962D91D9
:102010003C91159719964C9150E02330310579F495
:10202000816089839A834F5F5F4F02E010E09401E3
:10203000BE016F5F7F4FCF010E94720ACECF211584
:10204000310519F490689983F0CF2230310511F4ED
:102050009F77F9CF2130310541F7906CF4CF23857C
:1020600030E0322F2227D50111963C932E93948590
:10207000C3CFFB0101900020E9F73197AF01461B68
:10208000570BDC01ED91FC910280F381E02D199456
:102090008F929F92AF92BF92EF92FF920F931F93F6
:1020A000CF93DF93CDB7DEB7A1970FB6F894DEBF1D
:1020B0000FBECDBF7C01FA01CB0119A2223008F47A
:1020C0002AE08E010F5D1F4F822E912CB12CA12C86
:1020D000BF01A50194010E94C737F901CA016A3006
:1020E0000CF5605DD8016E938D01232B242B252BDD
:1020F00079F790E080E0109721F0BD01C7010E94C0
:102100003910A1960FB6F894DEBF0FBECDBFDF9198
:10211000CF911F910F91FF90EF90BF90AF909F9044
:102120008F900895695CDECF8F929F92AF92BF929D
:10213000CF92DF92EF92FF920F931F93CF93DF9393
:102140007C01EB016C0182E0C80ED11C4701E5E087
:102150008E0E911C10E000E0F60141916F0150E0FD
:1021600070E060E02AE0CE010E9448105C01E88146
:10217000F9810190F081E02D6EE2CE0119958A0D72
:102180009B1D080F191FC814D90431F7F7014581A9
:1021900050E070E060E02AE0CE010E944810800F1D
:1021A000911FDF91CF911F910F91FF90EF90DF90E2
:1021B000CF90BF90AF909F908F900895CF93DF9373
:1021C000BC0186E895E00E943910EC0164EC72E0F5
:1021D00086E895E00E9439108C0F9D1FDF91CF910A
:1021E00008954F925F926F927F928F929F92AF92DB
:1021F000BF92CF92DF92EF92FF920F931F93CF93F4
:102200006B017C01742EAC019B010E94513967EC7B
:1022100072E0811126C046015701E894B7F82FEF0C
:102220003FEF4FE75FE7C501B4010E9451398111CB
:102230000CC02FEF3FEF4FE75FE7C501B4010E94ED
:1022400058366BEC72E0181664F02FEF3FEF4FE753
:102250005FE4C701B6010E9406391816ACF46FECB2
:1022600072E086E895E0CF911F910F91FF90EF907B
:10227000DF90CF90BF90AF909F908F907F906F90A6
:102280005F904F900C9439102FEF3FEF4FE75FECCA
:10229000C701B6010E94583687FDE1CF20E030E04B
:1022A000A901C701B6010E94583610E000E087FF7F
:1022B0000AC06DE286E895E00E94D8058C01F7FA25
:1022C000F094F7F8F094C0E060E070E080E09FE305
:1022D0007C1641F020E030E040E251E40E94653895
:1022E000CF5FF6CFA70196010E94F9372B013C0181
:1022F0000E94D7384B015C012AE0BC01A40186E8AA
:1023000095E00E9448107C01E00EF11ECC23D1F133
:10231000C501B4010E945D369B01AC01C301B2014D
:102320000E94F8374B015C016EE286E895E00E945E
:10233000D805E80EF91EC15028F120E030E040E257
:1023400051E4C501B4010E94BE362B013C010E943C
:10235000D7384B01B12CA12C2AE0B501A40186E8A5
:1023600095E00E944810E80EF91EC501B4010E94D4
:102370005D369B01AC01C301B2010E94F8374B01ED
:102380005C01D9CFC701CF911F910F91FF90EF90C2
:10239000DF90CF90BF90AF909F908F907F906F9085
:1023A0005F904F900895CF93DF930E94F110EC015E
:1023B00064EC72E086E895E00E9439108C0F9D1F56
:1023C000DF91CF9108950F931F93CF93DF93EC018B
:1023D0000E9425068C0164EC72E0CE010E94391047
:1023E000800F911FDF91CF911F910F910895AF92B0
:1023F000BF92CF92DF92EF92FF920F931F93CF93F2
:10240000DF9300D01F92CDB7DEB78C016B017A014C
:1024100080910F058333E9F45B016801C40ED51E7A
:10242000C016D106A9F10E94B9068FE00E94C40629
:10243000812F0E94C406802F0E94C4060F5F1F4F89
:1024400080E00E94C406F50181935F010E94AF06FF
:10245000E7CF843369F50E94B90619830A838F2D6B
:102460008F778B83EC8264E070E0CE0101960E944E
:102470009506A70170E060E0C6010E94C33AE1142E
:10248000F10421F0B701C6010E9495060E94AF0633
:10249000C7010F900F900F900F90DF91CF911F9178
:1024A0000F91FF90EF90DF90CF90BF90AF90089585
:1024B0000E94B9060F3F110509F030F419820A8312
:1024C0001B8263E070E0D1CF17FD0BC019820A8335
:1024D00033E0169507953A95E1F7007E08600B8387
:1024E000F0CFC80126E0969587952A95E1F7807E82
:1024F00019830A830115104C18F480618B83E1CF96
:102500008861FCCFCF93DF931F92CDB7DEB72091C8
:10251000640430E0322F2227260F371F90E0982FD7
:10252000882741E050E0BE016F5F7F4F820F931F0D
:102530000E94F71189810F90DF91CF910895CF9379
:10254000C82F462F61E070E00E94D70761E070E07D
:102550008C2F0E9482128111F9CFCF910895CF93D1
:10256000C82F80E591E00E94200A68E070E08C2F7F
:10257000CF910C949F12CF93C82F80E591E00E94D9
:10258000200A60E170E08C2FCF910C949F12CF93C2
:10259000DF93EC01888D883020F40E94BB1288E024
:1025A000888FDF91CF910895CF93C82F80E591E078
:1025B0000E94200A63E070E08C2FCF910C9482126D
:1025C000CF93DF93EC018C858830D0F40E94D41235
:1025D000843189F0882379F0883169F021E08C31E9
:1025E00059F4E881F9810084F185E02DCE01199537
:1025F00021E0892B09F420E0822FDF91CF9108950B
:1026000080E0FBCFCF92DF92EF92FF92CF93DF93E8
:10261000EC018C85883068F40E94AF120E94360568
:102620006B017C018C850E94D412811109C088E065
:102630008C87DF91CF91FF90EF90DF90CF9008953E
:1026400061E070E080E090E00E9404050E943605A1
:10265000AB01BC014C195D096E097F098D859E8512
:10266000B0E0A0E0481759076A077B07D8F28C85CD
:102670000E94BB12DCCFCF93FC01C08D80E591E0BE
:102680000E94200A60E270E08C2F0E949F1262E09C
:1026900070E08C2F0E94821284FD16C062E070E010
:1026A0008C2F0E94821283FF0AC048E162E070E032
:1026B0008C2F0E94D70780E090E0CF91089580E5AD
:1026C00091E00E94200AE3CF40E162E070E08C2FAD
:1026D0000E94D70781E0F0CFCF93DF931F92CDB751
:1026E000DEB741E050E0BE016F5F7F4F90E080E0D9
:1026F0000E94F71189810F90DF91CF910895CF93B8
:10270000DF93C4E1D0E00E946C13882361F061E0A4
:1027100070E080E090E00E9404052197A1F780E03E
:10272000DF91CF91089581E0FBCF1F93CF93DF938B
:102730001F92CDB7DEB7182F80E591E00E94200AE6
:10274000812F0E948C0727E0129FF0011124E9528B
:10275000FB4F22813381377041E050E0BE016F5F53
:102760007F4F820F931F0E94F71189810F90DF9195
:10277000CF911F910895FC01808D883040F4218D08
:10278000328D232B21F00E94951390E008958FEF56
:102790009FEF0895CF93DF93FC012485283028F024
:1027A0008FEF9FEFDF91CF910895EC010190F081C1
:1027B000E02D0084F185E02D1995892B89F38C8516
:1027C0000E94951390E0EECFDA01E0916404F0E00E
:1027D000FE2FEE27E60FF71F90E0982F8827A9011C
:1027E000BD018E0F9F1F0C94F7118F929F92AF9295
:1027F000BF92CF92DF92EF92FF920F931F93CF93EE
:10280000DF93CDB7DEB760970FB6F894DEBF0FBE8B
:10281000CDBF7C0190910F05911115C018E0812F5B
:1028200060960FB6F894DEBF0FBECDBFDF91CF919B
:102830001F910F91FF90EF90DF90CF90BF90AF90DE
:102840009F908F90089508E0933309F404E06B01A2
:1028500080E591E00E94200A9E012F5F3F4F5901C1
:10286000490110E063E070E0812F0E948212F401C0
:1028700081934F018823C1F01F5F0113F3CF00E064
:10288000F50181915F018D3149F0883139F08A512C
:10289000823020F00F5F1013F3CFC0CF60E170E003
:1028A000802F0E949F12102FA12EB12C83EE93E057
:1028B0000197F1F742E870E060E0812F0E94D707AE
:1028C0004FEF62E070E0812F0E94D707B601C1147C
:1028D000D10491F48091060290910702019681152E
:1028E000F0EC9F0708F45CC0909307028093060207
:1028F0006091060270910702812F0E94C10786E055
:10290000E2E1F2E0DE01199601900D928A95E1F77D
:10291000F70183818F778C8784818D8785818E876E
:10292000A7014E5F5F4F24E030E06CE070E0812F44
:102930000E949A07B601812F0E94AB0726E030E083
:10294000AE01475F5F4F66E070E0812F0E949A07FB
:1029500061E070E0812F0E949F1227E02A9DC00154
:102960002B9D900D11249C0129523B4F7901F901B7
:102970001182108222E030E0AE01415F5F4F68E2D9
:1029800070E0812F0E94E4138F859889982789270A
:102990009827F701938382831682158214823FCF92
:1029A00080E090ECA1CFCF92DF92EF92FF920F9355
:1029B0001F93CF93DF9300D000D0CDB7DEB78C014B
:1029C0006B017A01FC01808D883010F40E94BB12EB
:1029D00080EB92E09A838983F60182819381A481BE
:1029E000B5818B839C83AD83BE83B701CE010196F5
:1029F0000E94F513F801808F8830A0F4F586E486F4
:102A0000128E118E81E026960FB6F894DEBF0FBEAF
:102A1000CDBFDF91CF911F910F91FF90EF90DF908D
:102A2000CF90089580E0EFCF7F928F929F92AF92E8
:102A3000BF92CF92DF92EF92FF920F931F93CF93AB
:102A4000DF931F921F92CDB7DEB7782E8B014A011C
:102A5000590122E030E0AE014F5F5F4F64E270E069
:102A60000E94E413E980FA80FE24EF24FE24E00EA5
:102A7000F11E9701377040910F05072D10E0433389
:102A800009F042C0085F1F4F102F0027110F110FD0
:102A9000110FC901800F911F4733C9F1A9014A0DD8
:102AA0005B1D4130584098F160E078E06B01C21A3C
:102AB000D30AA601B4010E94CB06A5014C195D09F9
:102AC000B4016C0D7D1DC8010E94CB06EA0CFB1CF5
:102AD000F982EA8222E030E0AE014F5F5F4F64E2AC
:102AE00070E0872D0E949A070F900F90DF91CF9191
:102AF0001F910F91FF90EF90DF90CF90BF90AF901C
:102B00009F908F907F900895005F1F4FBDCFA501CC
:102B1000B401DACFEF92FF921F93CF93DF931F920E
:102B20001F92CDB7DEB7182F22E030E0AE014F5F25
:102B30005F4F60E270E00E94E413E980FA80FE24B7
:102B4000EF24FE2422E030E0AE014F5F5F4F60E2F1
:102B500070E0812F0E94E41389819A819827892748
:102B60009827E816F90689F487E0189FF0011124E8
:102B7000E952FB4FF582E482C7010F900F90DF917D
:102B8000CF911F91FF90EF9008957C01DBCF1F93B1
:102B9000CF93DF93182F80E591E00E94200A812FC8
:102BA0000E948A15EC0163E070E0812F0E9482127E
:102BB000873121F08C3111F0D0E0C0E0CE01DF91FF
:102BC000CF911F910895CF93DF93EC018C858830CE
:102BD00060F40E94D412873111F08C3131F48C856D
:102BE0000E94C7158115984088F3DF91CF91089511
:102BF000FC018485883010F40C94C71590E080E0C7
:102C000008959F92AF92BF92CF92DF92EF92FF9280
:102C10000F931F93CF93DF938C015B01942EE52ECE
:102C2000FC01C688D788F08C80E591E00E94200ADC
:102C30008F2D0E948A15C92DDE2D8C179D0708F453
:102C4000EC019E01A501B6018F2D0E941415F8011B
:102C5000868997898C0F9D1F978B868BCE01DF917C
:102C6000CF911F910F91FF90EF90DF90CF90BF9089
:102C7000AF909F9008958F929F92AF92BF92CF9204
:102C8000DF92EF92FF920F931F93CF936C015B0142
:102C90008A01FC01C485C830F0F57A014130584002
:102CA00018F0E12C88E0F82E80E591E00E94200ADF
:102CB0008C2F0E948A154C0163E070E08C2F0E94DB
:102CC0008212873111F08C3149F58E149F0460F324
:102CD00080E591E00E94200A9701A50170E060E084
:102CE0008C2F0E94141560E270E08C2F0E949F12BE
:102CF00062E070E08C2F0E94821284FD17C063E0B6
:102D000070E08C2F0E94821281110BC081E090E054
:102D1000F6019383828310E000E010C0F12CE12CD7
:102D2000D7CF80E591E00E94200AE2CF40E162E047
:102D300070E08C2F0E94D707EF2841F3C801CF9194
:102D40001F910F91FF90EF90DF90CF90BF90AF90C9
:102D50009F908F900895FF920F931F93CF93DF93CF
:102D60001F921F92CDB7DEB7F82E22E030E0AE0101
:102D70004F5F5F4F66E270E00E94E41309811A81A1
:102D800010270127102722E030E0AE014F5F5F4F90
:102D900066E270E08F2D0E94E41389819A81982762
:102DA000892798270817190749F4C8010F900F9031
:102DB000DF91CF911F910F91FF9008958C01E3CF88
:102DC0001F93CF93DF93182F87E0189FE001112402
:102DD000C952DB4F88819981009761F480E591E0C9
:102DE0000E94200A812F0E94AB162E81821B91091E
:102DF00099838883DF91CF911F910895FC01848589
:102E0000883010F40C94E01690E080E008954F9222
:102E10005F927F928F929F92AF92BF92CF92DF92FA
:102E2000EF92FF920F931F93CF93DF931F921F9206
:102E3000CDB7DEB7782E6B014A01A82EB12C27E062
:102E4000829FC0011124FC01E952FB4F7F010081E8
:102E5000118180E591E00E94200A0815190554F4BB
:102E6000872D0E94AB16F70126818C01021B1109E8
:102E7000118300830115110529F563E070E0872DAA
:102E80000E948212843159F0882349F001E010E059
:102E90008C3111F410E000E0119501951109C80181
:102EA0000F900F90DF91CF911F910F91FF90EF90B6
:102EB000DF90CF90BF90AF909F908F907F905F906A
:102EC0004F900895801691060CF4840187E08A9D46
:102ED000F0018B9DF00D1124E952FB4FE280F3804D
:102EE000C114D10451F12701F7E05F22872D0E9420
:102EF0008C07840D951D20910F05273309F453C0CD
:102F00009801240D351D2130384008F44CC020E0D4
:102F100038E0490184189508A401B6010E94F71110
:102F20002601480C591C6801C818D908872D0E9431
:102F30008C07A601B2010E94F711E00EF11E87E096
:102F40008A9DF0018B9DF00D1124E952FB4FF38215
:102F5000E28220813181201B310B318320838681E5
:102F6000800F912F911D8A3F910510F4232BF1F4CE
:102F700087E08A9DF0018B9DF00D1124E952FB4FF3
:102F80001682F982EA8222E030E0AE014F5F5F4FA5
:102F900068E270E0872D0E949A0760E470E0872D58
:102FA0000E949F127CCFA801B601C5CF868377CF40
:102FB000CF93DF93FC01218D328D2115310529F44A
:102FC0008FEF9FEFDF91CF910895EC01808D421735
:102FD000530708F0A9010E9407171816190684F76D
:102FE000298D3A8D281B390B3A8F298FEBCF0F9300
:102FF0001F93CF93DF931F92CDB7DEB7FC01218DD6
:10300000328D232B41F48FEF9FEF0F90DF91CF9103
:103010001F910F9108958C0141E050E0BE016F5F58
:103020007F4FFC01808D0E940717181619065CF768
:10303000F801818D928D0197928F818F898190E027
:10304000E4CFCF93DF931F92CDB7DEB741E050E0DE
:10305000BE016F5F7F4FFC0184850E940717181621
:10306000190634F4898190E00F90DF91CF91089593
:103070008FEF9FEFF9CFFC018485883010F40C941A
:10308000071790E080E008958F929F92AF92BF92D1
:10309000CF92DF92EF92FF920F931F93CF93DF9324
:1030A00000D000D000D01F92CDB7DEB790910F05B1
:1030B000911115C018E0812F2A960FB6F894DEBF43
:1030C0000FBECDBFDF91CF911F910F91FF90EF9079
:1030D000DF90CF90BF90AF909F908F90089528E0A1
:1030E000F22E933311F494E0F92E6B01082F80E552
:1030F00091E00E94200A9E012F5F3F4F5901490134
:1031000010E063E070E0812F0E948212F40181934D
:103110004F018823C1F01F5FF112F3CFF12CF501AD
:1031200091915F019D3149F0983139F09A51923077
:1031300020F0F3941F11F3CFBDCF60E170E08F2D2D
:103140000E949F121F2DE12EF12C83EE93E0019738
:10315000F1F7402F70E060E0812F0E94D7074FEF1A
:1031600062E070E0812F0E94D707B601CD2889F474
:10317000809106029091070201968115F0EC9F075D
:1031800098F1909307028093060260910602709175
:103190000702812F0E94C10761E070E0812F0E9429
:1031A0009F1227E02E9DC0012F9D900D11249C01A0
:1031B00029523B4F7901F9011182108222E030E05F
:1031C000AE01475F5F4F68E270E0812F0E94E41319
:1031D00089859A85982789279827F7019383828381
:1031E00016821582148267CF80E090ECCACF0F93CD
:1031F0001F93CF93DF93EC018B01888D883010F4FF
:103200000E94BB12B80182E00E944418888F883067
:1032100050F41D870C871A8E198E81E0DF91CF91B3
:103220001F910F91089580E0F9CFCF92DF92EF9236
:10323000FF921F93CF93DF93EC017B016A018C8592
:10324000883048F40E94D412882319F08C850E949B
:10325000AF1288E08C87F70182819381A481B581C8
:103260000097A105B10551F490E080E0DF91CF9186
:103270001F91FF90EF90DF90CF9008958F3F9F4F69
:10328000AF4FBF4F89F370E060E081E20E944418C5
:10329000182F8C87883040F780E591E00E94200A43
:1032A000A7014E5F5F4F24E030E06CE070E0812FBB
:1032B0000E949A07B601812F0E94AB0764E070E07C
:1032C000812F0E949F120E9436056B017C018C8524
:1032D0000E94D412873111F18C3101F1882321F23F
:1032E0000E943605AB01BC014C195D096E097F09CE
:1032F0008D859E85B0E0A0E084179507A607B707E7
:1033000038F061E070E080E090E00E940405DFCFDB
:103310008C850E94BB1288E08C87A6CF81E090E06C
:10332000A5CF0F931F93CF93DF931F921F92CDB71B
:10333000DEB7FC0124852830E0F48C0180E591E0C3
:103340000E94200A22E030E0AE014F5F5F4F60E153
:1033500070E0F80184850E94E41389819A8198279E
:10336000892798270F900F90DF91CF911F910F9190
:10337000089590E080E0F6CF0F931F93CF93DF93F3
:103380001F921F92CDB7DEB7FC0124852830E0F4F0
:103390008C0180E591E00E94200A22E030E0AE013D
:1033A0004F5F5F4F64E070E0F80184850E94E41392
:1033B00089819A819827892798270F900F90DF910C
:1033C000CF911F910F91089590E080E0F6CF2F925A
:1033D0003F924F925F926F927F928F929F92AF92A5
:1033E000BF92CF92DF92EF92FF920F931F93CF93F2
:1033F000DF9300D000D000D0CDB7DEB77C014B0109
:103400004F831C0124E1220E311C44EF51E0B40132
:10341000C7010E9480038C01892B09F437C1D401B4
:103420008C9182958F70BF818B1709F42FC18330E7
:1034300009F025C10330110540F3F7018489807F2D
:10344000803319F790E080E00038110540F082E009
:1034500090E00115F0E41F0710F481E090E03C01DA
:1034600024E0620E711C8E0D9F1DDC015796AC90FE
:10347000B12CF701E455FF4FFE83ED83D12CC12C15
:10348000C101860D971D99878887AD81BE814D90BA
:103490005D90BE83AD834114510409F493C0F201E1
:1034A00060817181FB0101900020E9F73197E61BF3
:1034B000F70BAE16BF0609F085C0A5018885998572
:1034C0000E94D13A892B09F07DC0F201EB58FF4FE1
:1034D0008081811102C021E0208393012A0D3B1DD0
:1034E000F70184898670512C412C60E0823039F4D8
:1034F000F701E20FF31F84894588582E62E0CC0C57
:10350000DD1CCE0CDF1CACEACA0ED11CD601ED913D
:10351000FC913396DF0184E61D928A95E9F770E00D
:103520000A191B09061B170B061917090536110581
:1035300010F003E610E0620F731F620D731DD601D9
:103540008D919C91A80103960E94B13AD601ED910C
:10355000FC91E959FF4F11830083F701848986703C
:10356000823091F4F0E4F9838A835B824C82D70144
:10357000ED91FC910284F385E02D44E050E0BE0122
:103580006F5F7F4FC7011995F60100811181011509
:10359000110509F43ACFF801E759FF4FC080D180F7
:1035A000C114D104C1F0C80103960E946232BC016B
:1035B000990F880B990BF6011995F801EB58FF4FFD
:1035C000108223CF8FEFC81AD80A9FE0C916D10402
:1035D00009F05BCF1ACF6801FBE6CF0ED11CD601F4
:1035E0008D919C91892B49F0C80103960E945E320F
:1035F000D601ED91FC911995E0CFF801E359FF4F09
:103600000190F081E02D309749F0D801A959BF4FC2
:103610006D917C91C80103961995CFCFF801E159BE
:10362000FF4F0190F081E02DD801AF58BF4F8D9131
:103630009C919C0121703327309721F4211531058D
:1036400009F4E3CE95958795D801AD58BF4F4D91BC
:103650005C91840F951F232B41F0DC012D913C914F
:10366000E20FF31F0190F081E02DD801A959BF4F5F
:103670004D915C91B8016D5F7F4F19959ECF65E8C4
:1036800076E086E895E00E94E311BFCEC801299656
:103690000FB6F894DEBF0FBECDBFDF91CF911F9163
:1036A0000F91FF90EF90DF90CF90BF90AF909F90E1
:1036B0008F907F906F905F904F903F902F900895E4
:1036C0000F931F93CF93DF93EB0109900020E9F74D
:1036D0002197C61BD70BFC01D083C1838C010E5FE1
:1036E0001F4FAE01C8010E94E93AC8018C0F9D1F0F
:1036F000DF91CF911F910F910895CF93C62F91E045
:10370000909362059DE0909384051092630510925A
:103710008505682F8FE596E00E945A0E6C2F8FE585
:1037200096E00E945A0E8FE596E00E94890E982F2F
:10373000EFE9FFE03197F1F700C0000081E091115F
:1037400080E0CF91089591E0909362059DE0909381
:1037500084051092630510928505682F8FE596E029
:103760000E945A0E8FE596E00E94890E8FE99FE035
:103770000197F1F700C0000041E061E08DE00E9498
:10378000330D1092150580931405882331F08FE5D1
:1037900096E00E941A0E90E008958FEFFCCFCF9331
:1037A000C82F80E80E94A31B90E1C99FB00111249B
:1037B0008F70682B80E80E947D1BEFE9FFE0319756
:1037C000F1F700C00000CF91089580E80E94A31B8C
:1037D000807F682F616080E80E947D1BEFE3FCE939
:1037E0003197F1F700C00000089585ED8093BC008B
:1037F00080915E0590915F05A0916005B091610593
:103800000796A11DB11D23E0B695A79597958795BD
:103810002A95D1F72091BC0024FD03C010925C05CD
:10382000089540915E0550915F056091600570912B
:103830006105452B462B472B69F30097A105B10580
:1038400041F02AE22A95F1F700C00197A109B109D8
:10385000E1CF80915D050C94450B4F925F926F9282
:103860007F928F929F92AF92BF92DF92EF92FF92E0
:103870000F931F93CF93DF93D82FC62F0E94E51B82
:1038800081E08093620588E480938405109263054B
:103890001092850560E08FE596E00E945A0E8FE554
:1038A00096E00E94890E8D2F0E94D20E8C2F0E94CE
:1038B000D20E0E94E51B8BE00E94CF1B81E00E948C
:1038C000CF1B2FEF81EE94E0215080409040E1F734
:1038D00000C0000082E00E94CF1B812C912C54017B
:1038E0008FE80E94A31B87709927049708F04DC0AA
:1038F0008FE80E94A31B87709927029789F784E9B4
:103900000E94A31B982E85E90E94A31B5C0186E9F7
:103910000E94A31BD82E87E90E94A31BEC01F92C5F
:10392000E12CB7016A297B29072E000C880B990B23
:103930000E945F364B015C011D2D00E0B8016C2B2D
:103940007D2B072E000C880B990B0E945F362B01F4
:103950003C01A5019401C501B4010E94BE364B0192
:103960005C01A3019201C301B2010E94BE369B011A
:10397000AC01C501B4010E94F9370E9411394B0115
:103980005C0183E00E94CF1BABCF8AE00E94CF1B7B
:10399000C501B401DF91CF911F910F91FF90EF907E
:1039A000DF90BF90AF909F908F907F906F905F90CF
:1039B0004F9008954F925F926F927F929F92AF9235
:1039C000BF92CF92DF92EF92FF920F931F93CF930C
:1039D000DF93CDB7DEB7A9970FB6F894DEBF0FBE61
:1039E000CDBF7C01CB01BA019E012F5F3F4F590132
:1039F000890122E040E00E949C31D7010D911C9189
:103A0000119714969C90149712966D917C91F501E4
:103A100001900020E9F731976F01CA18DB0878019F
:103A2000B4E1EB0EF11CFB0101900020E9F73197A6
:103A30009F01261B370B91106DC02E5F3F4FC601B3
:103A4000820F931F2C01712C612C50E040E0E0E8C4
:103A50004E1651046104710450F042E050E04114EC
:103A6000F0E45F066104710410F441E050E0029656
:103A7000840F951F8739910528F043E950E06A01CA
:103A8000C21AD30A2C0D3D1D892D880F8063D801E1
:103A900054968C93C8014596422F4F77220F232FBF
:103AA000221F330B31952115310509F04068FC01C7
:103AB0004193CF012115310579F70E94601B3C012C
:103AC000992089F0F801E655FF4F8181D3018C934D
:103AD000808111968C93B2E06B0E711C8081918174
:103AE000019691838083A601B501C3010E94B13A7A
:103AF000A3014C0D5D1D4E195F09D801ED91FC919C
:103B00000284F385E02DB701C8011995811105C024
:103B100080E01CC02C5F3F4F92CF9920B9F044E069
:103B2000B701C8010E94E719049791F7F8012689A7
:103B300037893227232732272F5F3F4FE655FF4F24
:103B400081E0408151812417350711F7A9960FB6FE
:103B5000F894DEBF0FBECDBFDF91CF911F910F91C3
:103B6000FF90EF90DF90CF90BF90AF909F907F90AD
:103B70006F905F904F900895EF92FF920F931F9375
:103B8000CF93DF937C018B01D0E0C0E0F80161911D
:103B90008F01C7018C0F9D1F0E9487372196C4306B
:103BA000D105A1F784E090E0DF91CF911F910F91B3
:103BB000FF90EF900895DC0180EB92E08D939D9350
:103BC00084E0FB0101900D928A95E1F70895EF9250
:103BD000FF920F931F93CF93DF9300D01F92CDB727
:103BE000DEB78C017B01FB0184858830A8F080EB77
:103BF00092E0F801918380831282138214821582ED
:103C0000C8010F900F900F900F90DF91CF911F91EF
:103C10000F91FF90EF90089580E591E00E94200AB7
:103C200024E030E0AE014F5F5F4F6CE070E0F701E1
:103C300084850E94E413BE016F5F7F4FC8010E941C
:103C4000DB1DDECF0F931F93CF93DF9300D000D007
:103C50001F921F92CDB7DEB78C01D80159964D91B6
:103C60005C915A974115510551F0ED91FC91048CEE
:103C7000F58DE02D70E060E0C8011995EECFF801F8
:103C8000808D0E94E016892BB1F148E050E0BE0122
:103C90006F5F7F4FD80158968C910E9407171816B6
:103CA0001906F4F4D801509684E0FE013196019093
:103CB0000D928A95E1F78D8190E0982F88272E81CB
:103CC000820F911DF801958B848B8F81282F30E016
:103CD000322F22278885820F932F911D928F818FFB
:103CE00028960FB6F894DEBF0FBECDBFDF91CF91FF
:103CF0001F910F91089590E080E0F2CF4F925F9274
:103D00006F927F928F929F92AF92BF92CF92DF92EB
:103D1000EF92FF920F931F93CF93DF93CDB7DEB750
:103D200063970FB6F894DEBF0FBECDBF7C016B0169
:103D30003A01FB0120E090E080E06AE0319133231A
:103D400009F461C040ED430F4A3008F04DC0689F50
:103D5000A001699F500D1124CA01C097830F911DC6
:103D600037FD9A958F3F910549F340F3F701428162
:103D700053816481758180914F0690915006A09186
:103D80005106B0915206481759076A077B0709F494
:103D90000DC28701085F1F4F0E9436056F7077279D
:103DA0007C5FC8010E94F718813009F004C280EBE3
:103DB00092E09A838983F70182819381A481B581FE
:103DC0008B839C83AD83BE8345E350E0BE016F5F70
:103DD0007F4FC8010E94230A892BA9F5D12CC12C41
:103DE000C8010E94C71217C03E3209F0BFCF23306E
:103DF00009F4BCCFD301A20FB11D12968C932F5F93
:103E000090E080E09BCF233009F0B0CFF3018583B1
:103E1000CC24C394D12CC60163960FB6F894DEBFB0
:103E20000FBECDBFDF91CF911F910F91FF90EF900B
:103E3000DF90CF90BF90AF909F908F907F906F90CA
:103E40005F904F9008950E943605F701778366834F
:103E500042E050E0B7016A5F7F4FC8010E9401163F
:103E600081E090E09A83898342E050E0BE016F5F79
:103E70007F4FC8010E94011680E091E09A838983F8
:103E800042E050E0BE016F5F7F4FC8010E94011603
:103E90001A82198242E050E0BE016F5F7F4FC80175
:103EA0000E94011642E050E0BE016F5F7F4FC801E3
:103EB0000E94011642E050E0BE016F5F7F4FC801D3
:103EC0000E9401165601F6018081882301F16501E7
:103ED000F60181912F01882311F08E32B1F4460151
:103EE0008A189B081814190474F48D8641E050E078
:103EF000BE01635F7F4FC8010E940116A401B50196
:103F0000C8010E9401165201DECF6201E1CF1D8679
:103F100041E050E0BE01635F7F4FC8010E9401167F
:103F2000C12CDD24D394DA82C98242E050E0BE0184
:103F30006F5F7F4FC8010E940116DA82C98242E09A
:103F400050E0BE016F5F7F4FC8010E940116C8019B
:103F50000E943B13892B09F441CFF3E0AF2EB12C23
:103F6000230122E0420E511CD4C0F701428153814B
:103F700064817581808D918DA28DB38D481759070D
:103F80006A077B0709F008C1848D958DC59709F0F4
:103F900003C181A192A15DEFC52EDD24DA940C97B7
:103FA0000CF4ADC04CE050E0BE016F5F7F4FC80124
:103FB0000E94D8178B819C819827892798279A8BF4
:103FC000898BF7014681578129813A81421753072E
:103FD00009F0E7C097FFE5C08F7092703BEFC32EEA
:103FE000DD24DA94892B09F08AC06F8078847624E6
:103FF000672476242AEFC22EDD24DA94611471043A
:1040000009F47DC0D12CC12C8D819E8198278927F0
:104010009827C816D906F8F441E050E0BE01635F66
:104020007F4FC8010E94D8174D85442331F050E0DE
:1040300070E060E0C8010E94D8178D858111ECCF37
:1040400044E050E070E060E0C8010E94D817FFEF44
:10405000CF1ADF0AD9CF912C812C41E050E0BE016C
:104060006D5E7F4FC8010E94D8174B89842F807CDA
:1040700009F06CC0442331F050E070E060E0C8010A
:104080000E94D8178B898111E8CF42E050E0BE0131
:10409000615F7F4FC8010E94D81742E050E0BE0127
:1040A000635F7F4FC8010E94D81744E050E070E082
:1040B00060E0C8010E94D81742E050E0BE016F5E88
:1040C0007F4FC8010E94D8178F85988949895A89DE
:1040D0008115914009F043C0CD84DE84DC24CD24D9
:1040E000DC2481E0C816D104D1F54115544009F013
:1040F0004AC044E050E0B201C8010E94D81721E054
:10410000A21AB10809F46CCEFFEFCF16DF0609F052
:1041100067CE0E9436053B014C01C8010E94221E59
:10412000181619060CF421CF0E9436056619770976
:1041300088099909693873418105910548F562E359
:1041400070E080E090E00E940405E7CF41E050E09D
:1041500070E060E0C8010E94D8171B8A93CF5427F3
:104160004527542770E060E0C8010E94D817FFEF90
:104170008F1A9F0A6814790409F06FCF96EFC92E41
:10418000DD24DA94BCCFE7EFCE2EDD24DA94B7CF6E
:10419000CC24CA94DC2CB3CF6EEFC62EDD24DA9487
:1041A000AECF4CEFC42EDD24DA94A9CF8EEFC82E0B
:1041B000DD24DA9430CED12CC12C2DCECF92DF92DB
:1041C000EF92FF920F931F93CF93DF93CDB7DEB79C
:1041D000AF970FB6F894DEBF0FBECDBF7C016A016A
:1041E00000EB12E01A8309831C861B8688EE93E09D
:1041F000A0E0B0E08D879E87AF87B88B8CE192E01E
:104200009A878987188F0F8B198E1A8E1B8E1C8E9A
:1042100088E089A31BA70AA71CA61DA61EA61FA689
:104220008091430690914406A0914506B0914606C0
:104230008EA39FA3A8A7B9A78B839C83AD83BE83BE
:1042400018861F82AE01465D5F4FCE0101960E9427
:104250007E1E81309105B1F4D701ED91FC91048867
:10426000F589E02D1DA30CA38CA59DA5AEA5BFA52A
:104270008EA39FA3A8A7B9A7A601BE016C5D7F4F1F
:10428000C7011995AF960FB6F894DEBF0FBECDBF2C
:10429000DF91CF911F910F91FF90EF90DF90CF9022
:1042A0000895CF92DF92EF92FF920F931F93CF93D7
:1042B000DF93CDB7DEB7AF970FB6F894DEBF0FBE72
:1042C000CDBF8C016B017A0180EB92E09A838983E8
:1042D0001B821C821D821E821C861B8648EE53E0B8
:1042E00060E070E04D875E876F87788B2CE132E06D
:1042F0003A872987988F8F8B198E1A8E1B8E1C8E6A
:1043000028E029A39BA78AA71CA61DA61EA61FA658
:10431000D8011C968C91883060F40E94D4128823B6
:1043200021F0F80184850E94AF1288E0D8011C9624
:104330008C938091430690914406A0914506B091DC
:1043400046068EA39FA3A8A7B9A78B839C83AD83A2
:10435000BE8318861F82AE01465D5F4FB601CE0157
:1043600001960E947E1E0097C1F0D801ED91FC914C
:104370000684F785E02D80EB92E09DA38CA38CA5AD
:104380009DA5AEA5BFA58EA39FA3A8A7B9A7A7016A
:10439000BE016C5D7F4FC8011995AF960FB6F894BA
:1043A000DEBF0FBECDBFDF91CF911F910F91FF9068
:1043B000EF90DF90CF9008950E949F3A3F924F92E6
:1043C0005F926F927F928F929F92AF92BF92CF92A5
:1043D000DF92EF92FF920F931F93CF93DF93CDB7AE
:1043E000DEB7EA970FB6F894DEBF0FBECDBF7C01F3
:1043F0002A013B0169010E9436054B015C018701DE
:104400000D5B1F4FC8010E94221E181619069CF052
:104410000E943605681979098A099B0946165706CC
:104420006806790608F466C162E370E080E090E017
:104430000E940405E7CF42E250E0BE016F5F7F4F6C
:10444000C8010E94D81789818230D1F0312C832D88
:10445000EA960FB6F894DEBF0FBECDBFDF91CF91C5
:104460001F910F91FF90EF90DF90CF90BF90AF9092
:104470009F908F907F906F905F904F903F900895A6
:10448000F801848995898334910501F76D817E81D6
:104490008F8198850E9473394B015C01F6018082FF
:1044A0009182A282B38246E050E0B701685F7F4FFD
:1044B000CE014D960E94A43A892B41F6F7018081E6
:1044C0009181A281B38188169906AA06BB0608F4D9
:1044D000BDCF84819581A681B78188159905AA05EC
:1044E000BB0508F4B3CF89899A89AB89BC898687D3
:1044F0009787A08BB18B4EEC50E070E060E0C80174
:104500000E94D817312CC701829698AB8FA7F7016C
:10451000B696FAABE9AB08969CAB8BAB67019AE118
:10452000C90ED11CBD96FEABEDABC701429698AF4C
:104530008FABFD97FAAFE9AF4701FEE18F0E911CFB
:10454000F801818D928D181619060CF080CFC801E4
:104550000E94F7178333910509F4B2C014F5813036
:10456000910509F464C044F4892B51F3C8010E94F9
:10457000F717AC01552775C08330910509F462C067
:104580000697A1F7C8010E94F717B82E44E050E043
:10459000B401C8010E94D817EB2DE450FF0BAF0106
:1045A00060C08A33910509F45FC084F585339105B5
:1045B000B1F1C697D9F6C8010E94F7175C01B601A0
:1045C000CE0189960E94DB1D8BA59CA5ADA5BEA53D
:1045D000892B8A2B8B2BB1F0EDA9FEA9408051804D
:1045E00062807380B601CE0183960E94DB1D8DA18F
:1045F0009EA1AFA1B8A5A501481659066A067B067B
:1046000009F0B8CF44E050E0B60118C08B339105F3
:1046100009F440C08F3F910509F492CFA7CFC8019C
:104620000E94F717C8010E94F717382E89CFC801DA
:104630000E94F71744E050E06FA978ADC8010E94CE
:10464000D8177ECFC8010E94F717B82E44E050E07B
:1046500069AD7AADC8010E94D8178B2D8450990B93
:10466000AC0170E060E0EACFC8010E94F71744E0B7
:1046700050E069A97AA9C8010E94D817F70166A17C
:1046800077A180A591A50E94733966A377A380A71F
:1046900091A756CFC8010E94F71744E050E06BA9DC
:1046A0007CA9C8010E94D817F70162A573A584A54B
:1046B00095A50E94733962A773A784A795A740CFD9
:1046C000C8010E94F71744E050E06FA578A9C8011F
:1046D0000E94D817F70162A173A184A195A10E943D
:1046E000733962A373A384A395A366A777A780AB4E
:1046F00091AB26CF33243A94AACE7F928F929F9289
:10470000AF92BF92CF92DF92EF92FF920F931F93DF
:10471000CF93DF93CDB7DEB7A6970FB6F894DEBF81
:104720000FBECDBF8C01762E942E852E20E2A22EB8
:10473000CE0101967C01DC01EA2D1D92EA95E9F794
:104740006801F3E4CF0ED11C80EB92E09AA389A319
:104750008FEF8BA38CA38DA38EA343E450E0BE0107
:104760006F5D7F4FC6010E94230A019609F4BFC006
:1047700081E089838A8386E0B82EBB821C82D801BF
:1047800014966D917D918D919C9117970E9473392C
:104790006D837E838F83988789869A8680E890E0F0
:1047A0009C878B874CE150E0B701C6010E9401163F
:1047B000FE0137968AE1DF011D928A95E9F74801EB
:1047C000B8E08B0E911CF401D70101900D92BA94C0
:1047D000E1F740E150E0B701C6010E940116F70180
:1047E0001192AA94E9F796E0A92EB12C40E250E08C
:1047F000B701C6010E940116F1E0AF1AB108B1F786
:1048000083E6898392E89A8393E59B838C8385E38F
:104810008D8381E08E837F829DE3988797E09987DF
:104820008A8786E0F401DE011B9601900D928A953D
:10483000E1F78CE0898B8A8B63ED72E0CE014396C1
:104840000E94CA3AD8011B966C91CE0149960E94EB
:104850001204F8016485CE014B960E941204D8011F
:104860001D966C91CE014D960E9412044EE150E0CF
:10487000B701C6010E940116B3E07B121EC082E39D
:10488000898384E08A83F80196859B8397859C833E
:1048900090899D8391899E8396E39F838887828DEB
:1048A0008987838D8A87848D8B87858D8C874CE063
:1048B00050E0B701C6010E94011687E3898386E0B4
:1048C0008A8391E09B8393E09C838D838FE08E832A
:1048D0008AE38F838BE388878FEF898749E050E0F5
:1048E000B701C6010E940116C6010E943B13A6969D
:1048F0000FB6F894DEBF0FBECDBFDF91CF911F91F1
:104900000F91FF90EF90DF90CF90BF90AF909F906E
:104910008F907F9008950F931F93CF93DF93EC01B7
:104920008C010C5E1F4F86E9D8011D928A95E9F72C
:104930006A817B81C8010E94CA3AFE01E653FF4F9B
:10494000808191814C815D81DC01ED91FC91008839
:10495000F189E02DB801199521E0892B09F420E0B7
:10496000822FDF91CF911F910F9108950C94163AE9
:104970000C94163AEF92FF920F931F93CF93DF930D
:104980008B010C5F1F4FEB017C01E61AF70AC70190
:104990008C0F9D1F0E947F378993C017D107B9F7ED
:1049A00084E090E0DF91CF911F910F91FF90EF9005
:1049B00008951F920F920FB60F9211242F933F93D9
:1049C0008F939F93AF93BF938091CF049091D00426
:1049D000A091D104B091D2043091CE0423E0230FF2
:1049E0002D3758F50196A11DB11D2093CE0480935B
:1049F000CF049093D004A093D104B093D2048091BB
:104A0000D3049091D404A091D504B091D60401961A
:104A1000A11DB11D8093D3049093D404A093D50419
:104A2000B093D604BF91AF919F918F913F912F91F9
:104A30000F900FBE0F901F90189526E8230F029637
:104A4000A11DB11DD2CF1F920F920FB60F9211244C
:104A50000BB60F922F933F934F935F936F937F9378
:104A60008F939F93AF93BF93EF93FF9386E895E067
:104A70000E94B605FF91EF91BF91AF919F918F91E9
:104A80007F916F915F914F913F912F910F900BBE4E
:104A90000F900FBE0F901F9018951F920F920FB698
:104AA0000F9211240BB60F922F938F939F93EF9336
:104AB000FF93E0919605F09197058081E0919C0528
:104AC000F0919D0582FD1DC0908180919F058F5FB3
:104AD0008F732091A005821741F0E0919F05F0E0CF
:104AE000EA57FA4F958F80939F05FF91EF919F9121
:104AF0008F912F910F900BBE0F900FBE0F901F90B4
:104B000018958081F2CF1F920F920FB60F92112449
:104B10000BB60F922F933F934F935F936F937F93B7
:104B20008F939F93AF93BF93EF93FF938091B900BF
:104B3000887F803609F44DC008F040C0883209F4FF
:104B4000A9C028F5803109F49DC0C8F4882309F470
:104B5000FBC0883009F496C0FF91EF91BF91AF91EF
:104B60009F918F917F916F915F914F913F912F9185
:104B70000F900BBE0F900FBE0F901F9018958831AD
:104B800009F488C0803241F780935A0514C08034FC
:104B900009F49DC040F48033B9F38833E9F680937B
:104BA0005A0585ECB0C0803509F485C0883509F414
:104BB00096C0883489F60E94F51BCECF883909F457
:104BC0008CC038F5883729F050F4883611F08037DA
:104BD00019F683E080935C0510925F0457C0883813
:104BE00009F47BC0803919F0803809F0B5CF809185
:104BF0005F04803208F071C0E0915F0481E08E0FA5
:104C000080935F048091BB00F0E0E15CFB4F808308
:104C10003DC0803B39F0E0F4803A09F479C0883A2D
:104C200009F09ACF84E080935C0510923E041092C4
:104C30003D04E0911205F0911305199580913D0412
:104C400081110FC081E080933D0410921D0409C0C2
:104C5000803C09F4A6CF883C09F4A3CF883B09F037
:104C60007BCFE0913E0481E08E0F80933E04F0E024
:104C7000E35EFB4F80818093BB0090913E04809166
:104C80003D0429C0809137058093BB0085EC80935B
:104C9000BC0062CF9091590580915805981758F53E
:104CA000E091590581E08E0F80935905F0E0E85CB2
:104CB000FA4F8081E9CFE091590581E08E0F809312
:104CC00059058091BB00F0E0E85CFA4F8083909139
:104CD0005905809158059817C8F285E8D8CFE0911A
:104CE000590581E08E0F809359058091BB00F0E05B
:104CF000E85CFA4F808380915B0581115CCF81E095
:104D00008093360584EA8093BC0010925C0524CF22
:104D100085EC8093BC0010925C0580915F0480322A
:104D200030F4E0915F04F0E0E15CFB4F10826091B1
:104D30005F0470E0E0911005F09111058FE394E0BD
:104D4000199510925F0408CF10925A0534CF109233
:104D500089051092880548EE53E060E070E04093CA
:104D60008A0550938B0560938C0570938D058AE5B9
:104D700092E0909387058093860585EC90E0909370
:104D800093058093920584EC90E090939505809331
:104D9000940580EC90E0909397058093960581ECC4
:104DA00090E0909399058093980582EC90E0909321
:104DB0009B0580939A0586EC90E090939D058093E7
:104DC0009C0510929F051092A0051092A1051092CB
:104DD000A20580EB92E09093240680932306109224
:104DE0002506109226061092270610922806909308
:104DF0002A068093290610922B0610922C061092F8
:104E00002D0610922E069093300680932F06109256
:104E100031061092320610923306109234069093A7
:104E20003606809335061092370610923806109297
:104E3000390610923A0690933C0680933B061092F6
:104E40003D0610923E0610923F0610924006909347
:104E50004806809347061092490610924A0610921F
:104E60004B0610924C069093420680934106109296
:104E700043061092440610924506109246069093FF
:104E80004E0680934D0610924F06109250061092D7
:104E90005106109252069093540680935306109236
:104EA0005506109256061092570610925806909387
:104EB0005A068093590610925B0610925C06109277
:104EC0005D0610925E061092620610926106409393
:104ED00063065093640660936506709366062CE63D
:104EE00032E03093600620935F0624E0209372073F
:104EF000109274071092730720E830E03093760721
:104F000020937507109261071092600720E42093A8
:104F10006307109268071092690710926A0710924F
:104F20006B0710926C0710926D0710926E0710922B
:104F30006F0790935B0780935A0710925C0710925B
:104F40005D0710925E0710925F0710924E07109255
:104F50004D0740934F07509350076093510770934C
:104F600052078EE792E090934C0780934B0788E0BE
:104F70008093570788EE93E09093590780935807E2
:104F80008AED92E090938206809381068BE597E00C
:104F9000909384068093830686EC92E09093860635
:104FA0008093850688EE92E090938806809387062A
:104FB00082EF92E090938A0680938906EBE2F7E015
:104FC0001192119287E0E934F807D1F78FE796E064
:104FD00010928C0610928B0610928E0610928D06FF
:104FE00010928F06109290062CE231E030939206D8
:104FF0002093910610922A071092290726EB32E09F
:105000003093800620937F062BE437E030934A07E5
:105010002093490790937B0680937A0627EF32E02E
:1050200030937D0620937C0610927E069093760640
:10503000809375062CE033E0309378062093770652
:1050400010927906909371068093700623E233E004
:1050500030937306209372061092740690936C0638
:1050600080936B068AE393E090936E0680936D06BF
:1050700010926F060895CF93DF93CDB7DEB7E69712
:105080000FB6F894DEBF0FBECDBF789484B58260B2
:1050900084BD84B5816084BD85B5826085BD85B5DC
:1050A000816085BD80916E00816080936E0010925A
:1050B00081008091810082608093810080918100D5
:1050C0008160809381008091800081608093800066
:1050D0008091B10084608093B1008091B0008160C4
:1050E0008093B000809191008260809391008091C4
:1050F0009100816080939100809190008160809305
:1051000090008091A10082608093A1008091A10015
:1051100081608093A1008091A00081608093A000B5
:105120008091210182608093210180912101816021
:1051300080932101809120018160809320018091E2
:105140007A00846080937A0080917A0082608093F4
:105150007A0080917A00816080937A0080917A0051
:10516000806880937A001092C100E0919605F091DA
:10517000970582E08083E0919205F091930510827B
:10518000E0919405F091950580E1808310929E0551
:10519000E0919A05F0919B0586E08083E091980567
:1051A000F0919905808180618083E0919805F0916C
:1051B0009905808188608083E0919805F091990538
:1051C000808180688083E0919805F09199058081C5
:1051D0008F7D80838091C60481112AC01092AE0415
:1051E0001092AD0488EE93E0A0E0B0E08093AF04AD
:1051F0009093B004A093B104B093B2048CE192E018
:105200009093AC048093AB0480EB92E09093BA044B
:105210008093B9041092BB041092BC041092BD0498
:105220001092BE0488E08093C30481E08093C6049A
:1052300088E694E090936704809366048091650407
:10524000811197C060E372E080E090E00E94040565
:105250001FB7F89480916304811124C0EEE2F6E058
:105260008491E4E7F6E09491E82FF0E0EE0FFF1F61
:10527000E152FA4FA591B491EC91E92321F461E058
:1052800085E30E94530485E30E9424048CB5806169
:105290008CBD8CB580648CBD84E30E94240483E3C0
:1052A0000E942404809163048F5F809363041FBF76
:1052B000E3E0F6E0E491F0E0EE0FFF1FEB53FA4F6E
:1052C000859194919093620480936104E9E4F6E0FF
:1052D000E491E09360048AE00E9424040E94AF06F7
:1052E00080E591E00E94200A84E380930F0580E826
:1052F0000E9479070E947F13882309F475C188E012
:105300000E9479070E946C13883009F06DC180E11A
:105310000E9479070E946C13803109F065C180E01A
:105320000E9479070E946C13182F81115DC141E022
:1053300050E0BE016F5F7F4F8FE190E00E94F71158
:105340008981833009F050C180E48093640442E095
:105350006EE170E0812F0E94D70742E06FE170E0BC
:10536000812F0E94D7071F5F183089F781E0809353
:10537000650480E591E00E94200A46E050E060E08C
:1053800072E089E090E00E94CB0680EB92E09A8385
:1053900089831B821C821D821E8244E050E0BE0174
:1053A0006D5F7F4F8FE090E00E94CB060091660416
:1053B00010916704D80192961D921D921D921C9225
:1053C0009597F80116A217A210A611A69A961D92FB
:1053D0001D921D921C929D9780E69AEEA0E0B0E08F
:1053E00086AB97ABA0AFB1AF80EA9FE0A0E0B0E0A2
:1053F00082AF93AFA4AFB5AF3E9684E1DF011D92BB
:105400008A95E9F786E0E0E0F2E0D801189601908D
:105410000D928A95E1F7F801EE5BFF4FFCABEBAB29
:1054200010820E9406322FEC37E040E050E00E94EC
:105430009537DC01CB010196A11DB11DF8018483D4
:105440009583A683B78380839183A283B383580116
:10545000F3E4AF0EB11CC5010E94C71264E470E012
:10546000C5010E94F718882309F427C10E94360558
:105470002B013C0148EEC42E43E0D42EE12CF12C4C
:1054800052E0252E912C812CABA9BCA98C918330A4
:10549000B9F18111AEC3F80184819581A681B781EC
:1054A0000196A11DB11D84839583A683B7830E94B5
:1054B00036056419750986099709A70196010E94A6
:1054C000C737A90161E0C8010E947D2381E0ABA933
:1054D000BCA98C93F1E08F169104B1F20E943605BD
:1054E0006419750986099709D801D6962D913D91C1
:1054F0004D915C91D997261737074807590710F641
:10550000C5010E94C712F80184819581A681B781E7
:105510000196A11DB11D84839583A683B7830E9444
:105520003605F801FE9660837183828393838A94A3
:10553000892809F0C2C080E591E00E94200A00910C
:10554000660410916704B801625F7F4FCE01019637
:105550000E94DB1D44E050E0BE016D5F7F4F8FE095
:1055600090E00E94CB06B8016A5E7F4FCE010196A3
:105570000E94DB1D44E050E0BE016D5F7F4F81E083
:1055800090E00E94CB06B8016E5E7F4FCE0101967F
:105590000E94DB1D44E050E0BE016D5F7F4F85E05F
:1055A00090E00E94CB06B801625E7F4FCE0101966B
:1055B0000E94DB1D8B819C81AD81BE81809343065F
:1055C00090934406A0934506B09346060E94DF04DC
:1055D0007F73809106029091070268277927709364
:1055E00007026093060269C087E380930F0580E895
:1055F0000E9479070E947F13882329F188E00E9486
:1056000079070E946C138830F1F480E10E947907D9
:105610000E946C13182F8031B1F480E00E9479074A
:105620000E946C1381110FC041E050E0BE016F5F1A
:105630007F4F89E390E00E94F7118981843019F44B
:105640001093640493CE83E380930F0580E80E9457
:1056500079070E947F13882371F180E10E94790706
:105660000E946C13803139F582E10E9479070E9413
:105670006C13823101F580E00E9479070E946C135F
:10568000811119C084E08093640415E51AAB41E0F0
:1056900050E0BE016E5C7F4F8BE190E00E94CB0634
:1056A00019AB41E050E0BE016F5C7F4F8AE190E0B2
:1056B0000E94CB065BCE10920F0568EE73E080E08F
:1056C00090E00E9404050E942E0B2FEF33ED80E343
:1056D000215030408040E1F700C0000060E08AE8DF
:1056E0000E947D1B6FE08BE80E947D1BDE011196FE
:1056F0007D0121E2A22E25E0B22E6E01B4E0CB0E98
:10570000D11C870136E0732E44E2842E5EED952E87
:1057100079828A829B82F70161917F01D5018D9107
:105720005D010E947D1BCE14DF0491F77801BEE17C
:10573000AB2EB5E0BB2E81E2882E9DE8992E198212
:105740008A829B82F70161917F01D5018D915D0174
:105750000E947D1BCE14DF0491F760E088E80E9470
:105760007D1B62E089E80E947D1B65E070E080E0BF
:1057700090E00E94040519821A821B821C8261E05B
:1057800084E00E942D1C6B017C0148E050E00E94E7
:10579000D3116CE475E086E895E00E94E31161E0C6
:1057A00085E00E942D1C4B015C0148E050E00E9406
:1057B000D31165E375E086E895E00E94E311A50149
:1057C0009401C701B6010E94F8379B01AC016CEB54
:1057D00074E783E19CE30E9465389B01AC012C8B4C
:1057E0003D8B4E8B5F8B6AE077ED83E29CE30E94FA
:1057F00065389B01AC01C701B6010E94F837698387
:105800007A838B839C83BE016C5E7F4F86E090E041
:105810000E94BC1DB8018CE090E00E94BC1D61E0BC
:1058200080E290E00E94873760E081E290E00E9491
:1058300087376C897D898E899F8948E050E00E9476
:10584000D31169817A818B819C8148E050E00E946C
:10585000D31164E275E086E895E00E94E31180913F
:10586000600790916107892BA9F486E090E00E947F
:105870007A39FC018091630780838FE596E09283FB
:105880008183138280E290E095838483F0936107A3
:10589000E0936007E0906007F09061070E942E0B94
:1058A000DD24D394F701D382C7010E948C0E882394
:1058B00009F46AC280E090E1A0E0B0E08093640760
:1058C00090936507A0936607B09367078AE090E01E
:1058D000A0E0B0E08093680790936907A0936A07FF
:1058E000B0936B0780E090E0A0E0B0E480936C0799
:1058F00090936D07A0936E07B0936F078091600738
:10590000909161071BA21CA21DA21EA29D8B8C8BD5
:105910001F8A1E8ADD8E85E090E09B8F8A8FDE8E47
:10592000A2E0FA2EFC8E40E050E160E070E0CE0193
:1059300044960E94B00C8091600790916107188A8C
:10594000198A1A8A1B8A9A8389831C821B82DA86A7
:1059500018861F82DB86F9864FE959E360E070E024
:10596000C8010E94B00C8093620780E092E090939F
:1059700074078093730786E090E00E947A397C0177
:1059800089E4D7018C938FE596E012969C938E93D1
:10599000119713961C92139780E290E015969C93B2
:1059A0008E931497F0927107E09270070E942E0B6D
:1059B000F701D382C7010E948C0E882309F4EFC13E
:1059C0008FE796E00E94FB0881110BC266E873E046
:1059D00086E895E00E94391020E1522E34E0632ED3
:1059E00042E0742E52E8C52E66E0B62E7EE1A72E68
:1059F000EEE09E2EF0EE4F2E8FE796E00E948B2475
:105A0000882309F4BAC3509293066DE973E085E9DF
:105A100096E00E94601BDC016C9211967C921197BB
:105A2000E0918B06F0918C063097C9F0E491EE235B
:105A3000B1F01196BC92119780918F06813009F0D8
:105A4000B3C111969C92119780919006813039F4E0
:105A500011968C911197806211968C931197E09119
:105A60008706F0918806E491EE2339F011968C9127
:105A70001197806811968C931197E0918906F091A7
:105A80008A06E491EE2339F011968C911197806487
:105A900011968C9311978091920612968C9312977F
:105AA0008091910613968C9313976091850670915F
:105AB0008606FB018491882309F47DC1CD010496FB
:105AC0000E94601B60918B0670918C0661157105B8
:105AD00061F0FB012491222341F00E94601B609140
