:100000000C94D6020C9407030C9407030C9407037A
:100010000C9407030C9407030C9407030C94070338
:100020000C9407030C9407030C9407030C94070328
:100030000C9407030C9407030C9407030C94070318
:100040000C9407030C9407030C9407030C94070308
:100050000C9407030C9407030C9407030C94471F9C
:100060000C9407030C94BB1F0C94911F0C94070372
:100070000C9407030C9407030C9407030C940703D8
:100080000C9407030C9407030C9407030C940703C8
:100090000C9407030C9407030C9407030C94F11FB2
:1000A0000C9407030C9407030C9407030C940703A8
:1000B0000C9407030C9407030C9407030C94070398
:1000C0000C9407030C9407030C9407030C94070388
:1000D0000C9407030C9407030C9407030C94070378
:1000E0000C9407030C9463180C94B50E0C945304F1
:1000F0000C94A80D0C9410140C94360C0C94E6037C
:100100000C9474080C94900D0C94C0030C94100F74
:100110000C945A0D0C945E0A0C94AC080C94B30326
:100120000C9495080C9428180C9494030C94580D76
:100130000C94E7080C94900F0C948A080C94CE034E
:100140000C94D6110C94E0030C94A8100C94F613A4
:100150000C9455040C940B060C94120C0C94EB04A8
:100160000C94CC290C94780A0C9482040C942F0CD7
:100170000C94510C0C94E3080C945F030C94CC1376
:100180000C94EB080C941F1C0C94CA030C94A90C3F
:100190000C94A5040C9451210C948D060C94990395
:1001A0000C94220C0C94D40A0C94B8110C945D0D90
:1001B0000C944F0A0C944E0D0C94D3120C94FB0823
:1001C0000C9454040C942F1F0C94DC030C94CD114C
:1001D0000C9466150C942B0D0C94A80C0C94BA037B
:1001E0000C94D70E0C949C0E0C94A70C0C944A0DF6
:1001F0000C94D6060C9463030C947E0D0C943B1F58
:100200000C94BA0D0C94320D0C94CC140C94C403C1
:100210000C94EA030C94790C0C94A50A0C941D1C04
:100220000C94AB030C94650D0C9457050C949F0F24
:100230000C94EA140C9410120C94921B0C94AD13B1
:100240000C94451F0C94B3040C941F1B0C94660D66
:100250000C94391F0C94E8060C94AF030C94110C09
:100260000C9491150C94D2030C94B7030C94D803FE
:100270000C94F00C0C94710A0C9401170C949104DA
:100280004E414E494E495459494E46CDCCCC3D0A7B
:10029000D7233C17B7D13877CC2B329595E6241F5E
:1002A000B14F0A000020410000C84200401C462017
:1002B000BCBE4CCA1B0E5AAEC59D74596F752068E2
:1002C000617665206265656E2062616E6E65642090
:1002D00066726F6D20636F6E6E656374696E672EF4
:1002E00020506C6561736520636F6E746163742068
:1002F000746865204D515454207365727665722080
:1003000061646D696E6973747261746F7220666F77
:1003100072206D6F72652064657461696C732E0064
:100320004578636565646564207265636F6E6E65AC
:1003300063742072617465206C696D69742E20503D
:100340006C656173652074727920616761696E20E4
:100350006C617465722E004E6F7420617574686FE5
:1003600072697A656420746F20636F6E6E65637462
:1003700000546865206461746120696E207468654A
:100380002075736572206E616D65206F72207061DB
:100390007373776F7264206973206D616C666F721E
:1003A0006D656400546865204D5154542073657226
:1003B0007669636520697320756E617661696C6129
:1003C000626C650054686520436C69656E742069D1
:1003D00064656E74696669657220697320636F7203
:1003E00072656374205554462D3820627574206EF2
:1003F0006F7420616C6C6F7765642062792074681B
:100400006520536572766572005468652053657285
:1004100076657220646F6573206E6F7420737570DB
:10042000706F727420746865206C6576656C206FDF
:100430006620746865204D5154542070726F746F3B
:10044000636F6C2072657175657374656400436FCA
:100450006E6E656374696F6E206661696C656400B9
:100460004661696C656420746F2073756273637292
:1004700069626500556E6B6E6F776E206572726F84
:1004800072006461633A200073687265673A200005
:1004900000000A0B02090C0D0E08070304010000FE
:1004A000000000000000000000000000000000004C
:1004B0000000000000000000000000001211100009
:1004C000000000000000000000000000000000002C
:1004D00000000000000044726F70706564206120AD
:1004E0007061636B65740000002200250028002BFA
:1004F000002E003100340002010000050108010B4C
:100500000100002100240027002A002D00300033C4
:100510000001010000040107010A010505050507A6
:100520000508080808020202020A0A08080404046E
:10053000040101010101010101030303030303039A
:1005400003040707070C0C0C0C0C0C0C0C02020229
:100550000206060606060606060B0B0B0B0B0B0B1C
:100560000B010210202008081020401020408002BB
:1005700001020108040201010204081020408080E9
:10058000402010080402018004020180402010086D
:100590000402010804020101020408102040800145
:1005A00002040810204080005121CC2911241FBED4
:1005B000CFEFD1E2DEBFCDBF00E00CBF13E0A0E083
:1005C000B2E0E0EEFFE500E00BBF02C007900D9245
:1005D000AA3FB107D9F728E0AAEFB3E001C01D9206
:1005E000AE35B207E1F712E0C5EDD2E000E006C09B
:1005F00021970109802FFE010E94482EC43DD1079A
:1006000080E00807A9F70E9490230C94DE2F0C9439
:10061000000090E0FC01EF59FA4F2491855E9A4F5B
:10062000FC018491882399F090E0880F991FFC01C8
:10063000EF5FFA4FA591B491FC01E951FB4F859111
:1006400094918FB7F894EC91E22BEC938FBF0895BF
:10065000A3E2B8E0FD01219131918217930789F05F
:1006600028E0E134F207B9F730E020E04D915D91E8
:10067000452B49F4220F331FF901ED5DF74F9183AC
:10068000808381E008952F5F3F4F2F30310571F750
:1006900080E008958CBD9DBD089520E3FC0120837A
:1006A0003296862F82958F706F706A3030F4605D5D
:1006B0006293682F8111F5CF0895695CF9CFFC0131
:1006C000818D928D08950895282F30E0F901E0572B
:1006D000FB4F9491F901EF59FA4F4491255E3A4F3F
:1006E000F9012491222309F435C0992311F1915085
:1006F0009231F8F4E92FF0E08827EE57FC4F8F4F46
:100700000C94482EB303B7039403AB03AF039903D0
:10071000BA03C003C403CA03CE03D203D803DC0365
:100720009903E003E603EA03809180008F778093CA
:100730008000E22FF0E0EE0FFF1FE951FB4FA59183
:10074000B4918FB7F894EC91611148C040954E2355
:100750004C938FBF0895809180008F7DE8CF80916A
:100760008000877FE4CF84B58F7784BDE2CF84B5E6
:100770008F7DFBCF8091B0008F778093B000D9CF71
:100780008091B0008F7DF9CF809190008F7780931A
:100790009000CFCF809190008F7DF9CF8091900015
:1007A000877FF5CF8091A0008F778093A000C1CF85
:1007B0008091A0008F7DF9CF8091A000877FF5CF39
:1007C000809120018F7780932001B3CF8091200109
:1007D0008F7DF9CF80912001877FF5CF4E2BB8CF49
:1007E0003FB7F8948091DD049091DE04A091DF047E
:1007F000B091E00426B5A89B05C02F3F19F00196E3
:10080000A11DB11D3FBFBA2FA92F982F8827BC016A
:10081000CD01620F711D811D911D42E0660F771F92
:10082000881F991F4A95D1F708958F929F92AF9292
:10083000BF92CF92DF92EF92FF924B015C010E9438
:10084000F0036B017C010E94F0036C197D098E0995
:100850009F09683E734081059105A8F321E0821A43
:100860009108A108B10888EEC80E83E0D81EE11CEB
:10087000F11C81149104A104B10429F7FF90EF90B9
:10088000DF90CF90BF90AF909F908F9008952FB73B
:10089000F8946091D9047091DA048091DB0490910E
:1008A000DC042FBF089508950895AF92BF92CF92B0
:1008B000DF92EF92FF920F931F93CF93DF936C0120
:1008C0007B018B01040F151FEB015E01AE18BF0801
:1008D000C017D10759F06991D601ED91FC910190B3
:1008E000F081E02DC6011995892B79F7C501DF91BB
:1008F000CF911F910F91FF90EF90DF90CF90BF901D
:10090000AF900895FC01538D448D252F30E0842F46
:1009100090E0821B930B541710F0CF960895019727
:100920000895FC01918D828D981761F0A28DAE0F14
:10093000BF2FB11D5D968C91928D9F5F9F73928F9B
:1009400090E008958FEF9FEF0895FC01918D828DC7
:10095000981731F0828DE80FF11D858D90E0089594
:100960008FEF9FEF0895FC01918D228D892F90E0EC
:10097000805C9F4F821B91098F73992708958AE6A7
:1009800095E00E94B30421E0892B09F420E0822F36
:100990000895FC01A48DA80FB92FB11DA35ABF4F14
:1009A0002C91848D90E001968F739927848FA6896E
:1009B000B7892C93A089B1898C91837080648C93C2
:1009C000938D848D981306C00288F389E02D808171
:1009D0008F7D80830895EF92FF920F931F93CF93A3
:1009E000DF93EC0181E0888F9B8D8C8D98131AC06A
:1009F000E889F989808185FF15C09FB7F894EE8951
:100A0000FF896083E889F9898081837080648083AD
:100A10009FBF81E090E0DF91CF911F910F91FF90F8
:100A2000EF900895F62E0B8D10E00F5F1F4F0F73A0
:100A30001127E02E8C8D8E110CC00FB607FCFACF5B
:100A4000E889F989808185FFF5CFCE010E94C9042C
:100A5000F1CFEB8DEC0FFD2FF11DE35AFF4FF0822C
:100A60009FB7F8940B8FEA89FB8980818062CFCF92
:100A7000EF92FF920F931F93CF93DF938C017B0133
:100A8000D0E0C0E0F701EC0FFD1F6491662339F060
:100A9000C8010E94EB04892B11F02196F3CFCE01FF
:100AA000DF91CF911F910F91FF90EF900895CF9319
:100AB000DF93EC01888D8823B9F0AA89BB89E88986
:100AC000F9898C9185FD03C0808186FD0DC00FB62C
:100AD00007FCF7CF8C9185FFF2CF808185FFEDCFAA
:100AE000CE010E94C904E9CFDF91CF91089580E043
:100AF00090E0892B29F00E94BF0481110E94000020
:100B000080E090E0892B49F080E090E0892B29F08B
:100B10000E94000081110E94000080E090E0892B7B
:100B200049F080E090E0892B29F00E9400008111BB
:100B30000E94000080E090E0892B49F080E090E086
:100B4000892B29F00E94000081110C940000089567
:100B50006F927F928F929F92AF92BF92CF92DF92CD
:100B6000EF92FF920F931F93CF93DF935B014A01A4
:100B7000722E632EC22FD32F10E000E086539F4FBA
:100B80007C01F70180819181DC01ED91FC91068867
:100B9000F789E02D1995882371F1D7FD2CC06501E7
:100BA000C00ED11EF70180819181DC01ED91FC9195
:100BB0000084F185E02D1995892BA9F0F70180813A
:100BC0009181DC01ED91FC910284F385E02D199572
:100BD000F60181936F010F5F1F4F0815190559F03A
:100BE000C72DD62DDFCF2A976AE070E080E090E035
:100BF0000E941504C6CFC801DF91CF911F910F91BC
:100C0000FF90EF90DF90CF90BF90AF909F908F902C
:100C10007F906F9008954115510511F00C94A8052F
:100C200090E080E008954F925F926F927F928F9252
:100C30009F92AF92BF92CF92DF92EF92FF920F936B
:100C40001F93CF93DF935C018B019B0141E050E048
:100C5000BC0187E797E00E94A805019799F090E012
:100C600080E0DF91CF911F910F91FF90EF90DF9087
:100C7000CF90BF90AF909F908F907F906F905F903C
:100C80004F900895E5012196450185E0880E911C5D
:100C9000412C512C32014394C12CD12C7601980166
:100CA00041E050E0BE0187E797E00E94A805019768
:100CB000B1F6E991AE2FAF77B0E0A30192010E94A7
:100CC000632DC60ED71EE81EF91E87E0440C551C86
:100CD000661C771C8A95D1F78C169D0609F4BFCF48
:100CE000E7FDDDCFCE018A199B095C0145E950E0A3
:100CF000481B590BCA01B0E0A0E098018C159D0576
:100D0000AE05BF0540F4BE0187E797E00E940B06E1
:100D10008A0D9B1DA6CFA601F6CFAF92BF92CF92B0
:100D2000DF92EF92FF920F931F93CF93DF935B01BC
:100D3000EA01F12CE12C86539F4F6C012097A1F121
:100D4000D6018D919C91DC01ED91FC910688F7898B
:100D5000E02D199581110CC080E0DF91CF911F919A
:100D60000F91FF90EF90DF90CF90BF90AF900895DC
:100D70008E01CB3FD10510F00AEF10E0F601808123
:100D80009181B5016E0D7F1DDC01ED91FC9102801A
:100D9000F381E02DA8011995C81BD90BE80EF91EA7
:100DA0000817190759F2D8CF81E0D7CF86539F4F44
:100DB000DC018D919C91DC01ED91FC910688F78915
:100DC000E02D199591E0811101C090E0892F0895DF
:100DD000CF93DF93EC01C653DF4F88819981DC010B
:100DE000ED91FC910688F789E02D1995882349F04B
:100DF00088819981DC01ED91FC910488F589E02DD1
:100E0000199581E0DF91CF910895E7E7F7E080EE53
:100E1000848B158A42E050E06BE877E0CF010E94B6
:100E20008D0687E797E00C94E806FC0120812EBD33
:100E30009B012150310941F051810DB407FEFDCFD6
:100E40004EB55EBD4193F5CF61507109860F971F76
:100E50000DB407FEFDCF2EB5FC0120830895E0916F
:100E60006504F0916604808190916404892B8083ED
:100E70000895E0916504F091660490818091640486
:100E800080958923808308958EBD00000DB407FEF0
:100E9000FDCF8EB50895AF92BF92CF92DF92EF92C1
:100EA000FF920F931F93CF93DF9300D000D01F9238
:100EB0001F92CDB7DEB78C017B016A0180911905C5
:100EC0008333E1F45801A40EB51EA016B10609F44F
:100ED0006FC00E94390780EF0E944407812F0E9453
:100EE0004407802F0E9444070F5F1F4FF701819135
:100EF0007F010E9444070E942F07E7CF5B01A40EE9
:100F0000B51E8433C1F40E94390719830A838D2DDD
:100F100080688B83CC8264E070E0CE0101960E94F1
:100F20001507AE14BF0409F441C0F70181917F0198
:100F30000E944407F6CF0E9439070F3F110509F0C0
:100F400028F419820A8384E08B830CC017FD17C034
:100F500019820A8333E0169507953A95E1F7007EEA
:100F60000C600B8386E0C816D104A0F5F701DE0102
:100F70001496EA15FB0599F081918D93FACFC8017B
:100F800026E0969587952A95E1F7807E19830A8356
:100F90000115104C10F48461D7CF8C61D5CFB60108
:100FA0006D5F7F4FCE0101960E9415070E942F07AB
:100FB000C60128960FB6F894DEBF0FBECDBFDF91F5
:100FC000CF911F910F91FF90EF90DF90CF90BF9046
:100FD000AF90089563E070E0CE0101960E9415077E
:100FE000F70181917F010E944407AE14BF04C1F74D
:100FF000DDCFCF93DF931F92CDB7DEB7898341E07A
:1010000050E0BE016F5F7F4F90E080E00E944B0791
:101010000F90DF91CF91089590E02091190523332F
:1010200039F40C96982F990F990F990F80E0089535
:101030004896F8CFDA01E0916804F0E0FE2FEE2741
:10104000E60FF71F90E0982F8827A901BD018E0FAA
:101050009F1F0C944B07CF93DF931F921F92CDB726
:10106000DEB779836A8322E030E0AE014F5F5F4FE5
:1010700060E170E00E941A080F900F90DF91CF910D
:101080000895CF93DF931F921F92CDB7DEB7798378
:101090006A8322E030E0AE014F5F5F4F64E070E0B2
:1010A0000E941A080F900F90DF91CF910895CF936F
:1010B000DF931F92CDB7DEB72091680430E0322F66
:1010C0002227260F371F90E0982F8827498341E079
:1010D00050E0BE016F5F7F4F820F931F0E944B074E
:1010E0000F90DF91CF910895CF93DF931F92CDB7EB
:1010F000DEB76983DC01ED91FC910280F381E02D84
:1011000041E050E0BE016F5F7F4F19950F90DF9176
:10111000CF910895FC019485FB018485981303C049
:1011200081E0983008F080E00895CF93DF931F921C
:10113000CDB7DEB76983DC01ED91FC910280F381CC
:10114000E02D41E050E0BE016F5F7F4F19950F9099
:10115000DF91CF9108950895FF920F931F93CF933E
:10116000DF93EB01FC01178A168A2A81211109C03D
:101170002B81211106C02C81211103C02D81222336
:1011800001F141155105E9F08A01FC01F08C80E57F
:1011900091E00E944A03AE014E5F5F4F24E030E0D1
:1011A0006CE070E08F2D0E941A08B8018F2D0E940C
:1011B0002B0881E090E0DF91CF911F910F91FF907C
:1011C000089580E0F7CFFC01848595850895FC01A2
:1011D0008489958908952CED32E0FC0131832083C8
:1011E000FB014089518962897389FC0142835383E1
:1011F000648375830895DC01ED91FC91048CF58D79
:10120000E02D199420913B04260F3327331F213200
:101210003105ECF420914005FC0190E080E02430A1
:1012200069F082E00895A0913B042191AC01455EF4
:101230005B4FA40FB52FB11D2C930196861798F321
:1012400080913B04680F60933B0480E0089581E047
:1012500008951092400581E080933F0510921A0591
:1012600061E084E10E94640361E085E10E9464031F
:10127000E9EBF0E080818E7F808380818D7F8083A9
:1012800088E48093B80085E48093BC000895CF93F0
:10129000DF9391E090931A048823B9F0C091B800CD
:1012A000D091BA008091BC008A7B8093BC0060E042
:1012B00084E10E94640360E085E10E9464030E946F
:1012C0002909D093BA00C093B800DF91CF91089557
:1012D000CF92DF92EF92FF920F931F93CF93DF9302
:1012E000D091690581E0D13208F09CC0C0916805B9
:1012F0000E94F0036B017C018091400581116CC05C
:1013000082E08093400581E080933F058FEF8093DA
:101310003E0510923D05D0933C05A8E4B5E0ECE114
:10132000F5E080E0D8138DC010921B0580911B055D
:10133000CC0FC82BC0931B0580911A05813009F092
:1013400084C010921A050E94F0036B017C01809109
:101350001B058093BB008091420590914305A091AD
:101360004405B0914505892B8A2B8B2BA1F00E9457
:10137000F0030091420510914305209144053091FE
:1013800045056C197D098E099F090617170728075F
:10139000390708F442C08091BC0083FDD8CF85ECAA
:1013A0008093BC000E94F0036B017C01809140059A
:1013B000823009F44CC080913E058F3F09F469C02A
:1013C00080913E05803209F466C080913E058033ED
:1013D00009F463C084E026C08091420590914305E2
:1013E000A0914405B0914505892B8A2B8B2B09F4DC
:1013F00083CF0E94F0030091420510914305209194
:101400004405309145056C197D098E099F09061721
:1014100017072807390708F06FCF809141050E9410
:10142000470985E01092470510926905109246051C
:10143000DF91CF911F910F91FF90EF90DF90CF90B0
:1014400008959D9191938F5F6DCF85EEA9CF809187
:10145000420590914305A0914405B0914505892B23
:101460008A2B8B2B09F4A2CF0E94F0030091420536
:101470001091430520914405309145056C197D0973
:101480008E099F09061717072807390708F08ECF1E
:10149000C4CF80E0C7CF82E0C5CF83E0C3CFE09167
:1014A000630480916204E81730F4F0E0E650FC4FEA
:1014B000808190E008958FEF9FEF089590916304ED
:1014C000809162042FEF3FEF981748F4E92FF0E086
:1014D000E650FC4F208130E09F5F90936304C90188
:1014E00008958091620490916304891B990B08957B
:1014F000CF92DF92EF92FF920F931F93CF93DF93E0
:101500007C01CB018A0120914605222389F0EB0161
:101510006B01C40ED51ECC15DD0569F06991D701AC
:10152000ED91FC910190F081E02DC7011995F3CF69
:10153000642F0E940209C801DF91CF911F910F9182
:10154000FF90EF90DF90CF900895CF93DF931F929D
:10155000CDB7DEB76983209146052223F9F02091AB
:101560006905203258F021E030E0FC01338322830A
:1015700090E080E00F90DF91CF9108958091470532
:10158000E82FF0E0E85BFA4F998190838F5F8093BA
:1015900047058093690581E090E0ECCF61E0CE01E2
:1015A00001960E940209F7CF90E080E00895E09153
:1015B0004F06F0915006309771F0208531858217E3
:1015C000930748F0228533858217930730F0028015
:1015D000F381E02DF0CF0E941521CF010895CF9324
:1015E000DF93811520E89207D9F08635910520F424
:1015F000DF91CF910C940903EC010E94D70ADC0122
:1016000018962D913C911997BE01621B730BED91B9
:10161000FC910480F581E02D41E0DF91CF91199498
:10162000DF91CF9108951F93CF93DF93811520E829
:101630009207F1F08635910528F4DF91CF911F9143
:101640000C946403162FEC010E94D70ADC01189653
:101650002D913C911997BE01621B730BED91FC918A
:101660000084F185E02D412FDF91CF911F911994D6
:10167000DF91CF911F9108955F926F927F928F9229
:101680009F92AF92BF92CF92DF92EF92FF920F9311
:101690001F93CF93DF938C01EB01642E722E811583
:1016A0009048F1F0611580E87807D1F00635110512
:1016B00078F56635710508F084C0D8E0672D6110B3
:1016C0001FC06170802F0E946403769461E08C2FAC
:1016D0000E94640360E08C2F0E946403D15071F774
:1016E000DF91CF911F910F91FF90EF90DF90CF90FE
:1016F000BF90AF909F908F907F906F905F90089574
:10170000661F6627661F802F0E946403770CDECF5A
:101710006635710508F455C0C8010E94D70A6C01EE
:10172000DC0118968D919C91081B190BCE010E942B
:10173000D70A5C01FC0180859185C81BD90BF12C6F
:10174000E12C97E0892E912C5524539461102FC0E1
:10175000852D0E2C01C0880F0A94EAF7872141E0FD
:1017600009F440E0D601ED91FC910084F185E02D73
:10177000B801C6011995D501ED91FC910084F18560
:10178000E02D41E0BE01C5011995D501ED91FC9117
:101790000084F185E02D40E0BE01C5011995BFEF41
:1017A000EB1AFB0AE8E0EE16F10481F699CFC401CA
:1017B0008E199F09F52D01C0FF0F8A95EAF78F2F2B
:1017C000CDCFD12CC12C87E0E82EF12CBB24B394D3
:1017D00061101DC08B2D0C2C01C0880F0A94EAF7F4
:1017E000872161E009F460E0C8010E94130B61E009
:1017F000CE010E94130B60E0CE010E94130B2FEF6D
:10180000C21AD20A88E0C816D10411F769CFC701FD
:101810008C199D09FB2D01C0FF0F8A95EAF78F2FC8
:10182000DFCF0895DC01ED91FC910484F585E02D76
:1018300019952FEF33E0B82FB29FC001B39F900DE1
:101840001124089521E04038510508F420E0DC011E
:10185000ED91FC910084F185E02D422F1994DC017B
:10186000ED91FC910484F585E02D1994AB0123E002
:10187000569547952A95E1F74032510510F00E94A0
:101880001521677021E030E001C0220F6A95EAF768
:10189000840F951FFC019785922381E009F480E075
:1018A0000895DC01862F877021E030E002C0220F0E
:1018B000331F8A95E2F783E0769567958A95E1F77D
:1018C000FD01E60FF71F442361F06032710510F04F
:1018D0000E9415218785282B278781E09F968C936E
:1018E0000895209530956032710590F797852923EA
:1018F000F3CF562F577021E030E002C0220F331F84
:101900005A95E2F753E0769567955A95E1F7FC0111
:10191000E60FF71F442399F06032710510F00E9422
:1019200015213785232B278721E0DC019F962C93F7
:101930009F97ED91FC91028CF38DE02D19942095E9
:1019400030956032710558F737852323ECCF089521
:101950000895EF92FF920F931F93CF93DF93FC01B3
:1019600027A5222319F1EC0160E0848595850E946A
:10197000130B8E858E01811120C0015F1F4F7E01E8
:10198000FFE2EF0EF11CF80121918F016AA97BA9FA
:1019900040E088A999A90E943C0B0E151F0599F7F4
:1019A00061E08C859D850E94130B1FA6DF91CF916E
:1019B0001F910F91FF90EF9008957E01F0E2EF1AD2
:1019C000F1086AA97BA9F80126A541E088A999A98F
:1019D0000E943C0B015011090E151F0591F7E0CF35
:1019E000CF93DF93FC0180E892E09183808330976E
:1019F00081F080914F069091500622813381A4811D
:101A0000B581E817F90741F02115310529F4109740
:101A100029F4DF91CF910895109721F013963C930C
:101A20002E9312972091510630915206E217F30738
:101A300021F4B0935206A0935106C281D38120971E
:101A400011F0BD83AC83E817F90719F7D09350065E
:101A5000C0934F06DECF28E832E0FC0131832083BB
:101A60000C94F00CCF93DF93EC0188A999A90E9404
:101A7000EF0A8AA99BA90E94EF0A8C859D850E9486
:101A8000EF0AE881F981028CF38DE02DCE01DF9120
:101A9000CF911994FC01768765870895DC01ED915B
:101AA000FC9102A0F3A1E02D199591E089270895FA
:101AB000862F089581E08627089521E0FC01848522
:101AC000883008F020E0822F089508950F931F9327
:101AD000CF93DF93EC018B01E881F981048CF58DC4
:101AE000E02D1995E881F9810688F789E02DB80184
:101AF000CE01DF91CF911F910F911994CF93DF9376
:101B0000EC01E881F9810288F389E02D1995E881DB
:101B1000F981028CF38DE02DCE01DF91CF911994E4
:101B20000F931F93CF93DF93EC018B01E881F98131
:101B3000048CF58DE02D1995E881F9810684F785EF
:101B4000E02DB801CE01DF91CF911F910F91199433
:101B5000CF93DF93EC01E881F9810284F385E02DD6
:101B60001995E881F981028CF38DE02DCE01DF918A
:101B7000CF911994CF93DF93EC01E881F98106802E
:101B8000F781E02D1995E881F981028CF38DE02D24
:101B9000CE01DF91CF911994AF92BF92CF92DF9295
:101BA000EF92FF920F931F93CF93DF9300D01F927A
:101BB000CDB7DEB78C016B017A01809119058333B3
:101BC000E9F45B016801C40ED51EC016D106A9F167
:101BD0000E9439078FE00E944407812F0E9444072A
:101BE000802F0E9444070F5F1F4F80E00E94440730
:101BF000F50181935F010E942F07E7CF843369F5D8
:101C00000E94390719830A838F2D8F778B83EC828B
:101C100064E070E0CE0101960E941507A70170E014
:101C200060E0C6010E94A02FE114F10421F0B70189
:101C3000C6010E9415070E942F07C7010F900F9041
:101C40000F900F90DF91CF911F910F91FF90EF9028
:101C5000DF90CF90BF90AF9008950E9439070F3F5B
:101C6000110509F030F419820A831B8263E070E0E9
:101C7000D1CF17FD0BC019820A8333E01695079563
:101C80003A95E1F7007E08600B83F0CFC80126E0AB
:101C9000969587952A95E1F7807E19830A83011529
:101CA000104C18F480618B83E1CF8861FCCFCF9317
:101CB000DF931F92CDB7DEB72091680430E0322F5A
:101CC0002227260F371F90E0982F882741E050E009
:101CD000BE016F5F7F4F820F931F0E94CC0D8981E1
:101CE0000F90DF91CF910895CF93C82F462F61E0D9
:101CF00070E00E94570861E070E08C2F0E94570E40
:101D00008111F9CFCF910895CF93C82F80E591E04D
:101D10000E944A0368E070E08C2FCF910C94740EFF
:101D2000CF93C82F80E591E00E944A0360E170E004
:101D30008C2FCF910C94740ECF93DF93EC01888D90
:101D4000883020F40E94900E88E0888FDF91CF9138
:101D50000895CF93C82F80E591E00E944A0363E085
:101D600070E08C2FCF910C94570ECF93DF93EC0142
:101D70008C858830D0F40E94A90E843189F08823A4
:101D800079F0883169F021E08C3159F4E881F981EA
:101D90000084F185E02DCE01199521E0892B09F40D
:101DA00020E0822FDF91CF91089580E0FBCFCF928A
:101DB000DF92EF92FF92CF93DF93EC018C85883016
:101DC00068F40E94840E0E9447046B017C018C859C
:101DD0000E94A90E811109C088E08C87DF91CF9104
:101DE000FF90EF90DF90CF90089561E070E080E089
:101DF00090E00E9415040E944704AB01BC014C19FD
:101E00005D096E097F098D859E85B0E0A0E04817C9
:101E100059076A077B07D8F28C850E94900EDCCFA9
:101E2000CF93FC01C08D80E591E00E944A0360E2FF
:101E300070E08C2F0E94740E62E070E08C2F0E9484
:101E4000570E84FD16C062E070E08C2F0E94570E82
:101E500083FF0AC048E162E070E08C2F0E945708BF
:101E600080E090E0CF91089580E591E00E944A03E0
:101E7000E3CF40E162E070E08C2F0E94570881E0E0
:101E8000F0CFCF93DF931F92CDB7DEB741E050E0A4
:101E9000BE016F5F7F4F90E080E00E94CC0D898192
:101EA0000F90DF91CF910895CF93DF93C4E1D0E0FD
:101EB0000E94410F882361F061E070E080E090E0D3
:101EC0000E9415042197A1F780E0DF91CF9108953A
:101ED00081E0FBCF1F93CF93DF931F92CDB7DEB787
:101EE000182F80E591E00E944A03812F0E940C0880
:101EF00027E0129FF0011124EF51FB4F2281338123
:101F0000377041E050E0BE016F5F7F4F820F931F3B
:101F10000E94CC0D89810F90DF91CF911F91089580
:101F2000FC01808D883040F4218D328D232B21F0EF
:101F30000E946A0F90E008958FEF9FEF0895CF936E
:101F4000DF93FC012485283028F08FEF9FEFDF918D
:101F5000CF910895EC010190F081E02D0084F1858E
:101F6000E02D1995892B89F38C850E946A0F90E0EA
:101F7000EECFDA01E0916804F0E0FE2FEE27E60FE5
:101F8000F71F90E0982F8827A901BD018E0F9F1F92
:101F90000C94CC0D8F929F92AF92BF92CF92DF9212
:101FA000EF92FF920F931F93CF93DF93CDB7DEB7DE
:101FB00060970FB6F894DEBF0FBECDBF7C01909145
:101FC0001905911115C018E0812F60960FB6F8948D
:101FD000DEBF0FBECDBFDF91CF911F910F91FF905C
:101FE000EF90DF90CF90BF90AF909F908F9008952B
:101FF00008E0933309F404E06B0180E591E00E946E
:102000004A039E012F5F3F4F5901490110E063E0F1
:1020100070E0812F0E94570EF40181934F018823B5
:10202000C1F01F5F0113F3CF00E0F50181915F0163
:102030008D3149F0883139F08A51823020F00F5FBC
:102040001013F3CFC0CF60E170E0802F0E94740EB8
:10205000102FA12EB12C83EE93E00197F1F742E807
:1020600070E060E0812F0E9457084FEF62E070E05F
:10207000812F0E945708B601C114D10491F48091B8
:1020800006029091070201968115F0EC9F0708F473
:102090005CC09093070280930602609106027091E3
:1020A0000702812F0E94410886E0E4E1F2E0DE01B0
:1020B000199601900D928A95E1F7F70183818F7748
:1020C0008C8784818D8785818E87A7014E5F5F4FC6
:1020D00024E030E06CE070E0812F0E941A08B60125
:1020E000812F0E942B0826E030E0AE01475F5F4F52
:1020F00066E070E0812F0E941A0861E070E0812F95
:102100000E94740E27E02A9DC0012B9D900D112482
:102110009C012F513B4F7901F9011182108222E07D
:1021200030E0AE01415F5F4F68E270E0812F0E94B6
:10213000B90F8F859889982789279827F701938366
:1021400082831682158214823FCF80E090ECA1CF6B
:10215000CF92DF92EF92FF920F931F93CF93DF9373
:1021600000D000D0CDB7DEB78C016B017A01FC0145
:10217000808D883010F40E94900E8CED92E09A834E
:102180008983F60182819381A481B5818B839C83AD
:10219000AD83BE83B701CE0101960E94CA0FF8013C
:1021A000808F8830A0F4F586E486128E118E81E04F
:1021B00026960FB6F894DEBF0FBECDBFDF91CF914C
:1021C0001F910F91FF90EF90DF90CF90089580E0E6
:1021D000EFCF7F928F929F92AF92BF92CF92DF927A
:1021E000EF92FF920F931F93CF93DF931F921F9253
:1021F000CDB7DEB7782E8B014A01590122E030E0DD
:10220000AE014F5F5F4F64E270E00E94B90FE9805A
:10221000FA80FE24EF24FE24E00EF11E97013770B1
:1022200040911905072D10E0433309F042C0085FC3
:102230001F4F102F0027110F110F110FC901800F11
:10224000911F4733C9F1A9014A0D5B1D4130584028
:1022500098F160E078E06B01C21AD30AA601B401DC
:102260000E944B07A5014C195D09B4016C0D7D1D41
:10227000C8010E944B07EA0CFB1CF982EA8222E0AB
:1022800030E0AE014F5F5F4F64E270E0872D0E9447
:102290001A080F900F90DF91CF911F910F91FF902F
:1022A000EF90DF90CF90BF90AF909F908F907F90F6
:1022B0000895005F1F4FBDCFA501B401DACFEF92A3
:1022C000FF921F93CF93DF931F921F92CDB7DEB77C
:1022D000182F22E030E0AE014F5F5F4F60E270E008
:1022E0000E94B90FE980FA80FE24EF24FE2422E048
:1022F00030E0AE014F5F5F4F60E270E0812F0E94DF
:10230000B90F89819A81982789279827E816F906B5
:1023100089F487E0189FF0011124EF51FB4FF582FB
:10232000E482C7010F900F90DF91CF911F91FF9032
:10233000EF9008957C01DBCF1F93CF93DF93182F8D
:1023400080E591E00E944A03812F0E945F11EC0119
:1023500063E070E0812F0E94570E873121F08C31AD
:1023600011F0D0E0C0E0CE01DF91CF911F91089530
:10237000CF93DF93EC018C85883060F40E94A90E26
:10238000873111F08C3131F48C850E949C118115BC
:10239000984088F3DF91CF910895FC0184858830BF
:1023A00010F40C949C1190E080E008959F92AF92FD
:1023B000BF92CF92DF92EF92FF920F931F93CF9332
:1023C000DF938C015B01942EE52EFC01C688D78833
:1023D000F08C80E591E00E944A038F2D0E945F11EE
:1023E000C92DDE2D8C179D0708F4EC019E01A50177
:1023F000B6018F2D0E94E910F801868997898C0F0C
:102400009D1F978B868BCE01DF91CF911F910F91EE
:10241000FF90EF90DF90CF90BF90AF909F90089586
:102420008F929F92AF92BF92CF92DF92EF92FF92E4
:102430000F931F93CF936C015B018A01FC01C4854C
:10244000C830F0F57A014130584018F0E12C88E0AE
:10245000F82E80E591E00E944A038C2F0E945F11C4
:102460004C0163E070E08C2F0E94570E873111F011
:102470008C3149F58E149F0460F380E591E00E9451
:102480004A039701A50170E060E08C2F0E94E910DB
:1024900060E270E08C2F0E94740E62E070E08C2F7E
:1024A0000E94570E84FD17C063E070E08C2F0E94DD
:1024B000570E81110BC081E090E0F6019383828377
:1024C00010E000E010C0F12CE12CD7CF80E591E0C6
:1024D0000E944A03E2CF40E162E070E08C2F0E944C
:1024E0005708EF2841F3C801CF911F910F91FF903A
:1024F000EF90DF90CF90BF90AF909F908F90089516
:10250000FF920F931F93CF93DF931F921F92CDB72C
:10251000DEB7F82E22E030E0AE014F5F5F4F66E29B
:1025200070E00E94B90F09811A8110270127102736
:1025300022E030E0AE014F5F5F4F66E270E08F2D2A
:102540000E94B90F89819A819827892798270817AF
:10255000190749F4C8010F900F90DF91CF911F9197
:102560000F91FF9008958C01E3CF1F93CF93DF93DA
:10257000182F87E0189FE0011124CF51DB4F88818D
:102580009981009761F480E591E00E944A03812FD0
:102590000E9480122E81821B910999838883DF918A
:1025A000CF911F910895FC018485883010F40C941C
:1025B000B51290E080E008954F925F927F928F92E3
:1025C0009F92AF92BF92CF92DF92EF92FF920F93C2
:1025D0001F93CF93DF931F921F92CDB7DEB7782E54
:1025E0006B014A01A82EB12C27E0829FC001112463
:1025F000FC01EF51FB4F7F010081118180E591E0EB
:102600000E944A030815190554F4872D0E94801270
:10261000F70126818C01021B11091183008301152A
:10262000110529F563E070E0872D0E94570E843173
:1026300059F0882349F001E010E08C3111F410E0EA
:1026400000E0119501951109C8010F900F90DF91DD
:10265000CF911F910F91FF90EF90DF90CF90BF909F
:10266000AF909F908F907F905F904F9008958016CD
:1026700091060CF4840187E08A9DF0018B9DF00D9A
:102680001124EF51FB4FE280F380C114D10451F1CA
:102690002701F7E05F22872D0E940C08840D951D0D
:1026A00020911905273309F453C09801240D351DD5
:1026B0002130384008F44CC020E038E0490184184B
:1026C0009508A401B6010E94CC0D2601480C591CA6
:1026D0006801C818D908872D0E940C08A601B2010C
:1026E0000E94CC0DE00EF11E87E08A9DF0018B9DCB
:1026F000F00D1124EF51FB4FF382E28220813181F2
:10270000201B310B318320838681800F912F911DF7
:102710008A3F910510F4232BF1F487E08A9DF001A4
:102720008B9DF00D1124EF51FB4F1682F982EA8246
:1027300022E030E0AE014F5F5F4F68E270E0872D2E
:102740000E941A0860E470E0872D0E94740E7CCF0E
:10275000A801B601C5CF868377CFCF93DF93FC0165
:10276000218D328D2115310529F48FEF9FEFDF91F7
:10277000CF910895EC01808D4217530708F0A9010D
:102780000E94DC121816190684F7298D3A8D281B31
:10279000390B3A8F298FEBCF0F931F93CF93DF9392
:1027A0001F92CDB7DEB7FC01218D328D232B41F472
:1027B0008FEF9FEF0F90DF91CF911F910F910895B1
:1027C0008C0141E050E0BE016F5F7F4FFC01808DC6
:1027D0000E94DC12181619065CF7F801818D928DA3
:1027E0000197928F818F898190E0E4CFCF93DF931F
:1027F0001F92CDB7DEB741E050E0BE016F5F7F4F63
:10280000FC0184850E94DC121816190634F48981B3
:1028100090E00F90DF91CF9108958FEF9FEFF9CF68
:10282000FC018485883010F40C94DC1290E080E088
:1028300008958F929F92AF92BF92CF92DF92EF92C4
:10284000FF920F931F93CF93DF9300D000D000D05F
:102850001F92CDB7DEB790911905911115C018E000
:10286000812F2A960FB6F894DEBF0FBECDBFDF9141
:10287000CF911F910F91FF90EF90DF90CF90BF907D
:10288000AF909F908F90089528E0F22E933311F42B
:1028900094E0F92E6B01082F80E591E00E944A0335
:1028A0009E012F5F3F4F5901490110E063E070E046
:1028B000812F0E94570EF40181934F018823C1F0AC
:1028C0001F5FF112F3CFF12CF50191915F019D3162
:1028D00049F0983139F09A51923020F0F3941F1159
:1028E000F3CFBDCF60E170E08F2D0E94740E1F2DDD
:1028F000E12EF12C83EE93E00197F1F7402F70E089
:1029000060E0812F0E9457084FEF62E070E0812F56
:102910000E945708B601CD2889F480910602909153
:10292000070201968115F0EC9F0798F1909307023A
:10293000809306026091060270910702812F0E9427
:10294000410861E070E0812F0E94740E27E02E9D07
:10295000C0012F9D900D11249C012F513B4F7901F7
:10296000F9011182108222E030E0AE01475F5F4F33
:1029700068E270E0812F0E94B90F89859A859827B7
:1029800089279827F7019383828316821582148200
:1029900067CF80E090ECCACF0F931F93CF93DF9364
:1029A000EC018B01888D883010F40E94900EB801E4
:1029B00082E00E941914888F883050F41D870C879C
:1029C0001A8E198E81E0DF91CF911F910F9108959A
:1029D00080E0F9CFCF92DF92EF92FF921F93CF93D7
:1029E000DF93EC017B016A018C85883048F40E94FA
:1029F000A90E882319F08C850E94840E88E08C87AC
:102A0000F70182819381A481B5810097A105B10569
:102A100051F490E080E0DF91CF911F91FF90EF9013
:102A2000DF90CF9008958F3F9F4FAF4FBF4F89F3F7
:102A300070E060E081E20E941914182F8C878830C2
:102A400040F780E591E00E944A03A7014E5F5F4F87
:102A500024E030E06CE070E0812F0E941A08B6019B
:102A6000812F0E942B0864E070E0812F0E94740E79
:102A70000E9447046B017C018C850E94A90E87315E
:102A800011F18C3101F1882321F20E944704AB013E
:102A9000BC014C195D096E097F098D859E85B0E0EA
:102AA000A0E084179507A607B70738F061E070E04B
:102AB00080E090E00E941504DFCF8C850E94900E8C
:102AC00088E08C87A6CF81E090E0A5CF0F931F937D
:102AD000CF93DF931F921F92CDB7DEB7FC01248501
:102AE0002830E0F48C0180E591E00E944A0322E066
:102AF00030E0AE014F5F5F4F60E170E0F801848528
:102B00000E94B90F89819A819827892798270F9069
:102B10000F90DF91CF911F910F91089590E080E089
:102B2000F6CF0F931F93CF93DF931F921F92CDB7D2
:102B3000DEB7FC0124852830E0F48C0180E591E0CB
:102B40000E944A0322E030E0AE014F5F5F4F64E035
:102B500070E0F80184850E94B90F89819A819827D5
:102B6000892798270F900F90DF91CF911F910F9198
:102B7000089590E080E0F6CF3F924F925F926F927F
:102B80007F928F929F92AF92BF92CF92DF92EF92FD
:102B9000FF920F931F93CF93DF9300D01F92CDB777
:102BA000DEB78330910508F4CEC030908B07232D1B
:102BB000207F203309F0C7C030E020E08038910545
:102BC00038F0811520E4920708F4B4C022E030E028
:102BD0002C01590184E0A80EB11C2958384FD901A5
:102BE0005796EC90F12C63E2662E68E0762E10E0AA
:102BF00000E0F501E557F84F4F01D301CD90DD908E
:102C00003D01C114D10409F498C0F60160817181BD
:102C1000FB0101900020E9F73197E61BF70BEE1658
:102C2000FF0609F08AC0A701C4010E94AE2F892BBC
:102C300009F083C0F601EB58FF4F8081811102C07B
:102C400081E0808395012E0D3F1D832D8670D12C50
:102C5000C12C60E0823041F4F901E958F84FC48892
:102C60008589DC2CC82E62E00A5A1F4FF801EE0F4E
:102C7000FF1FE958F84F0190F081E02D339694E65C
:102C8000DF011D929A95E9F770E04E185F08461A29
:102C9000570A4A185B08B5E64B16510418F043E68C
:102CA000442E512C620F731F6557784FC801880F4F
:102CB000991FFC01E958F84F7F0180819181A201A1
:102CC00003960E948E2FD701ED91FC91E959FF4F99
:102CD0005182408280918B078670823071F490E43B
:102CE00099838A83DB82CC8244E050E0BE016F5F2F
:102CF0007F4F87E797E00E948D06000F111FF801B4
:102D0000E958F84F808191810F900F900F900F90AC
:102D1000DF91CF911F910F91FF90EF90DF90CF90B7
:102D2000BF90AF909F908F907F906F905F904F90EB
:102D30003F90089521E030E04BCF0F5F1F4F0F30E1
:102D4000110509F05ACF90E080E0DECFFB01019041
:102D50000020E9F73197AF01461B570BDC01ED91DD
:102D6000FC910280F381E02D19948F929F92AF9293
:102D7000BF92EF92FF920F931F93CF93DF93CDB744
:102D8000DEB7A1970FB6F894DEBF0FBECDBF7C01B2
:102D9000FA01CB0119A2223008F42AE08E010F5D5E
:102DA0001F4F822E912CB12CA12CBF01A5019401A3
:102DB0000E94762DF901CA016A300CF5605DD801D8
:102DC0006E938D01232B242B252B79F790E080E047
:102DD000109721F0BD01C7010E94A616A1960FB65B
:102DE000F894DEBF0FBECDBFDF91CF911F910F9141
:102DF000FF90EF90BF90AF909F908F900895695C87
:102E0000DECF8F929F92AF92BF92CF92DF92EF92DE
:102E1000FF920F931F93CF93DF937C01EB016C0123
:102E200082E0C80ED11C4701E5E08E0E911C10E037
:102E300000E0F60141916F0150E070E060E02AE0AF
:102E4000CE010E94B5165C01E881F9810190F08104
:102E5000E02D6EE2CE0119958A0D9B1D080F191FFA
:102E6000C814D90431F7F701458150E070E060E003
:102E70002AE0CE010E94B516800F911FDF91CF91FD
:102E80001F910F91FF90EF90DF90CF90BF90AF9088
:102E90009F908F900895CF93DF93BC018AE695E0D1
:102EA0000E94A616EC0162E173E08AE695E00E94BA
:102EB000A6168C0F9D1FDF91CF910895CF92DF92C0
:102EC000FF920F931F93CF93DF938C01F62E64EF45
:102ED00071E0C8010E9413069C01892B09F486C089
:102EE000D8019C9192959F709F1509F47FC09330F3
:102EF00009F06FC0C9010E94BC15EC01009739F3BD
:102F0000FC01E759FF4FC080D180C114D10469F0A2
:102F100003960E94782ABC01990F880B990BF60141
:102F20001995CB58DF4F1882D2CF6C01FBE6CF0E3C
:102F3000D11CD6018D919C91892B49F0CE0103962D
:102F40000E94742AD601ED91FC911995EACFFE01F9
:102F5000E359FF4F0190F081E02D309749F0DE01F9
:102F6000A959BF4F6D917C91CE0103961995D9CF88
:102F7000FE01E159FF4F0190F081E02DDE01AF58D5
:102F8000BF4F8D919C919C0121703327309721F484
:102F90002115310509F49BCF95958795DE01AD5834
:102FA000BF4F4D915C91840F951F232B41F0DC01A5
:102FB0002D913C91E20FF31F0190F081E02DDE0195
:102FC000A959BF4F4D915C91BE016D5F7F4F19951F
:102FD000A8CF66ED74E08AE695E00E94380562E1CC
:102FE00073E08AE695E00E94A61671CFC901DF91D1
:102FF000CF911F910F91FF90DF90CF9008950F9385
:103000001F93CF93DF93EB0109900020E9F72197FD
:10301000C61BD70BFC01D083C1838C010E5F1F4FF1
:10302000AE01C8010E94C62FC8018C0F9D1FDF9101
:10303000CF911F910F910895DC018CED92E08D935B
:103040009D9384E0FB0101900D928A95E1F708952C
:10305000EF92FF920F931F93CF93DF9300D01F92B5
:10306000CDB7DEB78C017B01FB0184858830A8F0E9
:103070008CED92E0F8019183808312821382148296
:103080001582C8010F900F900F900F90DF91CF9194
:103090001F910F91FF90EF90089580E591E00E94BD
:1030A0004A0324E030E0AE014F5F5F4F6CE070E018
:1030B000F70184850E94B90FBE016F5F7F4FC80181
:1030C0000E941C18DECF0F931F93CF93DF9300D085
:1030D00000D01F921F92CDB7DEB78C01D801599650
:1030E0004D915C915A974115510551F0ED91FC912C
:1030F000048CF58DE02D70E060E0C8011995EECFED
:10310000F801808D0E94B512892BB1F148E050E0A2
:10311000BE016F5F7F4FD80158968C910E94DC12E0
:1031200018161906F4F4D801509684E0FE01319681
:1031300001900D928A95E1F78D8190E0982F882774
:103140002E81820F911DF801958B848B8F81282F02
:1031500030E0322F22278885820F932F911D928F86
:10316000818F28960FB6F894DEBF0FBECDBFDF91DA
:10317000CF911F910F91089590E080E0F2CF4F9290
:103180005F926F927F928F929F92AF92BF92CF92F7
:10319000DF92EF92FF920F931F93CF93DF93CDB700
:1031A000DEB763970FB6F894DEBF0FBECDBF7C01CC
:1031B0006B013A01FB0120E090E080E06AE0319190
:1031C000332309F461C040ED430F4A3008F04DC08D
:1031D000689FA001699F500D1124CA01C097830FF9
:1031E000911D37FD9A958F3F910549F340F3F70103
:1031F00042815381648175818091390690913A06AC
:10320000A0913B06B0913C06481759076A077B0717
:1032100009F40DC28701085F1F4F0E9447046F70B9
:1032200077277C5FC8010E94CC14813009F004C26A
:103230008CED92E09A838983F70182819381A48146
:10324000B5818B839C83AD83BE8345E350E0BE0193
:103250006F5F7F4FC8010E94AC08892BA9F5D12C64
:10326000C12CC8010E949C0E17C03E3209F0BFCF8E
:10327000233009F4BCCFD301A20FB11D12968C9359
:103280002F5F90E080E09BCF233009F0B0CFF301B7
:103290008583CC24C394D12CC60163960FB6F894D1
:1032A000DEBF0FBECDBFDF91CF911F910F91FF9079
:1032B000EF90DF90CF90BF90AF909F908F907F90D6
:1032C0006F905F904F9008950E944704F7017783B5
:1032D000668342E050E0B7016A5F7F4FC8010E94F9
:1032E000D61181E090E09A83898342E050E0BE01EC
:1032F0006F5F7F4FC8010E94D61180E091E09A83F2
:10330000898342E050E0BE016F5F7F4FC8010E9499
:10331000D6111A82198242E050E0BE016F5F7F4FE2
:10332000C8010E94D61142E050E0BE016F5F7F4F9E
:10333000C8010E94D61142E050E0BE016F5F7F4F8E
:10334000C8010E94D6115601F6018081882301F13F
:103350006501F60181912F01882311F08E32B1F4BD
:1033600046018A189B081814190474F48D8641E0EC
:1033700050E0BE01635F7F4FC8010E94D611A401D7
:10338000B501C8010E94D6115201DECF6201E1CF22
:103390001D8641E050E0BE01635F7F4FC8010E947F
:1033A000D611C12CDD24D394DA82C98242E050E0E8
:1033B000BE016F5F7F4FC8010E94D611DA82C982B9
:1033C00042E050E0BE016F5F7F4FC8010E94D611FE
:1033D000C8010E94100F892B09F441CFF3E0AF2EF2
:1033E000B12C230122E0420E511CD4C0F7014281CE
:1033F000538164817581808D918DA28DB38D481725
:1034000059076A077B0709F008C1848D958DC59718
:1034100009F003C181A192A15DEFC52EDD24DA94EC
:103420000C970CF4ADC04CE050E0BE016F5F7F4FD5
:10343000C8010E94AD138B819C819827892798270A
:103440009A8B898BF7014681578129813A814217EE
:10345000530709F0E7C097FFE5C08F7092703BEF0C
:10346000C32EDD24DA94892B09F08AC06F8078841A
:103470007624672476242AEFC22EDD24DA946114A0
:10348000710409F47DC0D12CC12C8D819E819827B7
:1034900089279827C816D906F8F441E050E0BE0104
:1034A000635F7F4FC8010E94AD134D85442331F007
:1034B00050E070E060E0C8010E94AD138D8581117D
:1034C000ECCF44E050E070E060E0C8010E94AD1332
:1034D000FFEFCF1ADF0AD9CF912C812C41E050E0C9
:1034E000BE016D5E7F4FC8010E94AD134B89842FD2
:1034F000807C09F06CC0442331F050E070E060E063
:10350000C8010E94AD138B898111E8CF42E050E0E1
:10351000BE01615F7F4FC8010E94AD1342E050E0E1
:10352000BE01635F7F4FC8010E94AD1344E050E0CD
:1035300070E060E0C8010E94AD1342E050E0BE01BF
:103540006F5E7F4FC8010E94AD138F8598894989AE
:103550005A898115914009F043C0CD84DE84DC2472
:10356000CD24DC2481E0C816D104D1F541155440A6
:1035700009F04AC044E050E0B201C8010E94AD1316
:1035800021E0A21AB10809F46CCEFFEFCF16DF06D6
:1035900009F067CE0E9447043B014C01C8010E941C
:1035A0006318181619060CF421CF0E9447046619F7
:1035B000770988099909693873418105910548F5AA
:1035C00062E370E080E090E00E941504E7CF41E004
:1035D00050E070E060E0C8010E94AD131B8A93CFF9
:1035E00054274527542770E060E0C8010E94AD13BE
:1035F000FFEF8F1A9F0A6814790409F06FCF96EFD6
:10360000C92EDD24DA94BCCFE7EFCE2EDD24DA9488
:10361000B7CFCC24CA94DC2CB3CF6EEFC62EDD24FA
:10362000DA94AECF4CEFC42EDD24DA94A9CF8EEF1E
:10363000C82EDD24DA9430CED12CC12C2DCECF92E1
:10364000DF92EF92FF920F931F93CF93DF93CDB74B
:10365000DEB7AF970FB6F894DEBF0FBECDBF7C01CB
:103660006A010CED12E01A8309831C861B8688EE22
:1036700093E0A0E0B0E08D879E87AF87B88B8EE1A6
:1036800092E09A878987188F0F8B198E1A8E1B8E5E
:103690001C8E88E089A31BA70AA71CA61DA61EA630
:1036A0001FA680912D0690912E06A0912F06B09115
:1036B00030068EA39FA3A8A7B9A78B839C83AD8355
:1036C000BE8318861F82AE01465D5F4FCE01019614
:1036D0000E94BF1881309105B1F4D701ED91FC91A2
:1036E0000488F589E02D1DA30CA38CA59DA5AEA58E
:1036F000BFA58EA39FA3A8A7B9A7A601BE016C5D15
:103700007F4FC7011995AF960FB6F894DEBF0FBE75
:10371000CDBFDF91CF911F910F91FF90EF90DF9080
:10372000CF900895CF92DF92EF92FF920F931F9365
:10373000CF93DF93CDB7DEB7AF970FB6F894DEBF68
:103740000FBECDBF8C016B017A018CED92E09A83A4
:1037500089831B821C821D821E821C861B8648EE6A
:1037600053E060E070E04D875E876F87788B2EE1D5
:1037700032E03A872987988F8F8B198E1A8E1B8E8D
:103780001C8E28E029A39BA78AA71CA61DA61EA6FF
:103790001FA6D8011C968C91883060F40E94A90E57
:1037A000882321F0F80184850E94840E88E0D801E6
:1037B0001C968C9380912D0690912E06A0912F0639
:1037C000B09130068EA39FA3A8A7B9A78B839C8333
:1037D000AD83BE8318861F82AE01465D5F4FB60182
:1037E000CE0101960E94BF180097C1F0D801ED915B
:1037F000FC910684F785E02D8CED92E09DA38CA3CF
:103800008CA59DA5AEA5BFA58EA39FA3A8A7B9A76C
:10381000A701BE016C5D7F4FC8011995AF960FB629
:10382000F894DEBF0FBECDBFDF91CF911F910F91F6
:10383000FF90EF90DF90CF9008950E947C2F0F9320
:103840001F93CF93DF93EC018C010C5E1F4F86E931
:10385000D8011D928A95E9F76A817B81C8010E948F
:10386000A72FFE01E653FF4F808191814C815D813E
:10387000DC01ED91FC910088F189E02DB8011995EA
:1038800021E0892B09F420E0822FDF91CF911F9155
:103890000F9108957F928F929F92AF92BF92CF9295
:1038A000DF92EF92FF920F931F93CF93DF93CDB7E9
:1038B000DEB7A6970FB6F894DEBF0FBECDBF8C0162
:1038C000762E942E852E20E2A22ECE0101967C012A
:1038D000DC01EA2D1D92EA95E9F76801F3E4CF0EC9
:1038E000D11C8CED92E09AA389A38FEF8BA38CA3BC
:1038F0008DA38EA343E450E0BE016F5D7F4FC601F0
:103900000E94AC08019609F4BFC081E089838A83D4
:1039100086E0B82EBB821C82D80114966D917D91F1
:103920008D919C9117970E94502E6D837E838F837B
:10393000988789869A8680E890E09C878B874CE1FF
:1039400050E0B701C6010E94D611FE0137968AE108
:10395000DF011D928A95E9F74801B8E08B0E911CB2
:10396000F401D70101900D92BA94E1F740E150E0E3
:10397000B701C6010E94D611F7011192AA94E9F786
:1039800096E0A92EB12C40E250E0B701C6010E949A
:10399000D611F1E0AF1AB108B1F783E6898392E856
:1039A0009A8393E59B838C8385E38D8381E08E836B
:1039B0007F829DE3988797E099878A8786E0F40164
:1039C000DE011B9601900D928A95E1F78CE0898BC0
:1039D0008A8B65E173E0CE0143960E94A72FD80140
:1039E0001B966C91CE0149960E944D03F8016485A7
:1039F000CE014B960E944D03D8011D966C91CE01CD
:103A00004D960E944D034EE150E0B701C6010E9461
:103A1000D611B3E07B121EC082E3898384E08A83DF
:103A2000F80196859B8397859C8390899D839189D6
:103A30009E8396E39F838887828D8987838D8A877B
:103A4000848D8B87858D8C874CE050E0B701C60153
:103A50000E94D61187E3898386E08A8391E09B8365
:103A600093E09C838D838FE08E838AE38F838BE347
:103A700088878FEF898749E050E0B701C6010E942F
:103A8000D611C6010E94100FA6960FB6F894DEBF9D
:103A90000FBECDBFDF91CF911F910F91FF90EF909F
:103AA000DF90CF90BF90AF909F908F907F900895C0
:103AB0003F924F925F926F927F928F929F92AF92BE
:103AC000BF92CF92DF92EF92FF920F931F93CF930B
:103AD000DF93CDB7DEB7EA970FB6F894DEBF0FBE1F
:103AE000CDBF7C012A013B0169010E9447044B01C3
:103AF0005C0187010D5B1F4FC8010E9463181816F7
:103B000019069CF00E944704681979098A099B09E3
:103B1000461657066806790608F466C162E370E047
:103B200080E090E00E941504E7CF42E250E0BE0141
:103B30006F5F7F4FC8010E94AD1389818230D1F041
:103B4000312C832DEA960FB6F894DEBF0FBECDBFA1
:103B5000DF91CF911F910F91FF90EF90DF90CF9069
:103B6000BF90AF909F908F907F906F905F904F909D
:103B70003F900895F801848995898334910501F770
:103B80006D817E818F8198850E94502E4B015C0152
:103B9000F60180829182A282B38246E050E0B701B2
:103BA000685F7F4FCE014D960E94812F892B41F691
:103BB000F70180819181A281B38188169906AA06B6
:103BC000BB0608F4BDCF84819581A681B781881595
:103BD0009905AA05BB0508F4B3CF89899A89AB89F1
:103BE000BC8986879787A08BB18B4EEC50E070E044
:103BF00060E0C8010E94AD13312CC701829698ABDA
:103C00008FA7F701B696FAABE9AB08969CAB8BABE6
:103C100067019AE1C90ED11CBD96FEABEDABC701A1
:103C2000429698AF8FABFD97FAAFE9AF4701FEE13F
:103C30008F0E911CF801818D928D181619060CF0CB
:103C400080CFC8010E94CC138333910509F4B2C020
:103C500014F58130910509F464C044F4892B51F3C3
:103C6000C8010E94CC13AC01552775C08330910563
:103C700009F462C00697A1F7C8010E94CC13B82EC0
:103C800044E050E0B401C8010E94AD13EB2DE450B4
:103C9000FF0BAF0160C08A33910509F45FC084F562
:103CA00085339105B1F1C697D9F6C8010E94CC13AE
:103CB0005C01B601CE0189960E941C188BA59CA5BB
:103CC000ADA5BEA5892B8A2B8B2BB1F0EDA9FEA942
:103CD0004080518062807380B601CE0183960E943D
:103CE0001C188DA19EA1AFA1B8A5A5014816590623
:103CF0006A067B0609F0B8CF44E050E0B60118C070
:103D00008B33910509F440C08F3F910509F492CFA0
:103D1000A7CFC8010E94CC13C8010E94CC13382E33
:103D200089CFC8010E94CC1344E050E06FA978AD60
:103D3000C8010E94AD137ECFC8010E94CC13B82EDB
:103D400044E050E069AD7AADC8010E94AD138B2DFF
:103D50008450990BAC0170E060E0EACFC8010E948A
:103D6000CC1344E050E069A97AA9C8010E94AD13C0
:103D7000F70166A177A180A591A50E94502E66A3A8
:103D800077A380A791A756CFC8010E94CC1344E027
:103D900050E06BA97CA9C8010E94AD13F70162A590
:103DA00073A584A595A50E94502E62A773A784A72A
:103DB00095A740CFC8010E94CC1344E050E06FA506
:103DC00078A9C8010E94AD13F70162A173A184A173
:103DD00095A10E94502E62A373A384A395A366A706
:103DE00077A780AB91AB26CF33243A94AACE85ED4A
:103DF0008093BC008091420590914305A0914405B9
:103E0000B09145050796A11DB11D23E0B695A79574
:103E1000979587952A95D1F72091BC0024FD03C082
:103E200010924005089540914205509143056091DC
:103E3000440570914505452B462B472B69F30097A8
:103E4000A105B10541F02AE22A95F1F700C00197DA
:103E5000A109B109E1CF809141050C944709CF93A5
:103E6000DF93EC010E942B0DCE01DF91CF910C94DA
:103E7000F32E0C94F32ECF93DF93EC010E94F00C01
:103E8000CE01DF91CF910C94F32E0C94F32E1F9260
:103E90000F920FB60F9211242F933F938F939F93FE
:103EA000AF93BF938091D9049091DA04A091DB0481
:103EB000B091DC043091D80423E0230F2D3758F55E
:103EC0000196A11DB11D2093D8048093D90490932D
:103ED000DA04A093DB04B093DC048091DD049091BC
:103EE000DE04A091DF04B091E0040196A11DB11D94
:103EF0008093DD049093DE04A093DF04B093E0048C
:103F0000BF91AF919F918F913F912F910F900FBED5
:103F10000F901F90189526E8230F0296A11DB11D42
:103F2000D2CF1F920F920FB60F9211240BB60F92A1
:103F30002F933F934F935F936F937F938F939F93B1
:103F4000AF93BF93EF93FF938AE695E00E94C90475
:103F5000FF91EF91BF91AF919F918F917F916F9161
:103F60005F914F913F912F910F900BBE0F900FBE1D
:103F70000F901F9018951F920F920FB60F92112459
:103F80000BB60F922F938F939F93EF93FF93E09134
:103F90007A05F0917B058081E0918005F0918105A3
:103FA00082FD1DC09081809183058F5F8F7320916A
:103FB0008405821741F0E0918305F0E0E659FA4F5D
:103FC000958F80938305FF91EF919F918F912F9112
:103FD0000F900BBE0F900FBE0F901F901895808111
:103FE000F2CF1F920F920FB60F9211240BB60F92C1
:103FF0002F933F934F935F936F937F938F939F93F1
:10400000AF93BF93EF93FF938091B900887F803681
:1040100009F44DC008F040C0883209F4A9C028F561
:10402000803109F49DC0C8F4882309F4FBC08830AE
:1040300009F496C0FF91EF91BF91AF919F918F913D
:104040007F916F915F914F913F912F910F900BBE98
:104050000F900FBE0F901F901895883109F488C0FB
:10406000803241F780933E0514C0803409F49DC02E
:1040700040F48033B9F38833E9F680933E0585EC4C
:10408000B0C0803509F485C0883509F496C08834FD
:1040900089F60E94F71ECECF883909F48CC038F516
:1040A000883729F050F4883611F0803719F683E00C
:1040B0008093400510925D0457C0883809F47BC096
:1040C000803919F0803809F0B5CF80915D048032D5
:1040D00008F071C0E0915D0481E08E0F80935D0473
:1040E0008091BB00F0E0E35CFB4F80833DC0803BF0
:1040F00039F0E0F4803A09F479C0883A09F09ACFAF
:1041000084E08093400510923C0410923B04E091BF
:104110006004F0916104199580913B0481110FC0F6
:1041200081E080933B0410921B0409C0803C09F499
:10413000A6CF883C09F4A3CF883B09F07BCFE09160
:104140003C0481E08E0F80933C04F0E0E55EFB4F81
:1041500080818093BB0090913C0480913B0429C0F6
:1041600080911B058093BB0085EC8093BC0062CFDF
:1041700090913D0580913C05981758F5E0913D05DB
:1041800081E08E0F80933D05F0E0E45EFA4F808180
:10419000E9CFE0913D0581E08E0F80933D05809150
:1041A000BB00F0E0E45EFA4F808390913D05809182
:1041B0003C059817C8F285E8D8CFE0913D0581E02D
:1041C0008E0F80933D058091BB00F0E0E45EFA4FD6
:1041D000808380913F0581115CCF81E080931A0537
:1041E00084EA8093BC001092400524CF85EC809334
:1041F000BC001092400580915D04803230F4E09163
:104200005D04F0E0E35CFB4F108260915D0470E0C0
:10421000E0915E04F0915F048DE394E019951092B3
:104220005D0408CF10923E0534CF8DE00E94090353
:1042300061E08DE00E94640362E370E080E090E062
:104240000E94150460E08DE00E94640362E370E068
:1042500080E090E00E94150461E08DE00E9464031C
:1042600062E370E080E090E00E94150460E08DE081
:104270000E94640362E573E080E090E00E94150410
:10428000D7CF2091590630915A068217930710F024
:104290000E94152120915B0630915C06820F931FCE
:1042A000089510926D0510926C0548EE53E060E0A1
:1042B00070E040936E0550936F05609370057093A6
:1042C00071058CE592E090936B0580936A0585EC0F
:1042D00090E0909377058093760584EC90E090933E
:1042E00079058093780580EC90E090937B0580932E
:1042F0007A0581EC90E090937D0580937C0582ECBB
:1043000090E090937F0580937E0586EC90E09093FB
:104310008105809380051092830510928405109288
:104320008505109286058CED92E0909308068093A7
:1043300007061092090610920A0610920B061092B8
:104340000C0690930E0680930D0610920F061092A5
:104350001006109211061092120690931406809384
:104360001306109215061092160610921706109258
:10437000180690931A068093190610921B06109245
:104380001C0610921D0610921E0690932006809324
:104390001F061092210610922206109223061092F8
:1043A00024069093260680932506109227061092E5
:1043B00028061092290610922A06909332068093BE
:1043C0003106109233061092340610923506109280
:1043D000360690932C0680932B0610922D06109291
:1043E0002E0610922F061092300690933806809376
:1043F00037061092390610923A0610923B06109238
:104400003C0690933E0680933D0610923F06109224
:1044100040061092410610924206109246061092F3
:1044200045064093470650934806609349067093AB
:104430004A062EE632E030934406209343069093DA
:104440005308809352081092540810925508109205
:10445000560810925708109246081092450840934B
:104460004708509348086093490870934A088AEABD
:1044700092E0909344088093430888E080934F082B
:1044800088EE93E090935108809350088CE193E07C
:1044900090937A07809379078BE597E090937C0758
:1044A00080937B0784E193E090937E0780937D0760
:1044B0008AE293E09093800780937F0784E393E000
:1044C0009093820780938107E3E2F8E081E498E02B
:1044D000119211928E179F07D9F787E797E01092F4
:1044E0008407109283071092860710928507109216
:1044F0008707109288072CE231E030938A072093D7
:104500008907109222081092210824E033E03093AA
:1045100078072093770723E438E03093420820930C
:104520004108909376078093750729E333E0309331
:1045300000072093FF061092010710926707109260
:104540006607109269071092680710926D07109223
:104550006C0710926B0710926A0710926F07109207
:104560006E071092710710927007109273071092E5
:104570007207109274079093FE068093FD068FE4F5
:1045800093E0909388068093870610928906109294
:10459000EF061092EE061092F1061092F0061092BD
:1045A000F5061092F4061092F3061092F20610929D
:1045B000F7061092F6061092F9061092F80610927D
:1045C000FB061092FA061092FC0680914F0690911D
:1045D0005006892B31F483E596E090935006809342
:1045E0004F06E0915106F0915206F0935806E09381
:1045F0005706309721F083E596E09383828383E525
:1046000096E09093520680935106109256061092AF
:10461000550688E892E0909354068093530680E014
:1046200091E090935A0680935906209108023091A8
:10463000090230935C0620935B06C9019395909321
:104640005E0680935D068217930710F40E94152181
:10465000909309028093080283E090E090936006B3
:1046600080935F0681E080936106E2E6F6E090E2E7
:10467000DF011D929A95E9F78093820682EE92E01F
:10468000909354068093530682E090E090938406C2
:104690008093830684E090E090938606809385065D
:1046A00090E080E00E94412181E090E00E94412161
:1046B00082E090E00E94412183E090E00E9441214D
:1046C00084E090E00E94412185E090E00E94412139
:1046D00086E090E00E94412187E090E00E94412125
:1046E00088E090E00E94412189E090E00E94412111
:1046F0008AE090E00E9441218BE090E00E944121FD
:104700008CE090E00E9441218DE090E00E944121E8
:104710008EE090E00E9441218FE090E00C944121D6
:10472000CF93DF9300D000D000D01F92CDB7DEB77B
:10473000789484B5826084BD84B5816084BD85B57C
:10474000826085BD85B5816085BD80916E00816088
:1047500080936E001092810080918100826080932E
:104760008100809181008160809381008091800030
:104770008160809380008091B10084608093B1005B
:104780008091B00081608093B00080919100826040
:10479000809391008091910081608093910080913D
:1047A00090008160809390008091A100826080934E
:1047B000A1008091A10081608093A1008091A00060
:1047C00081608093A000809121018260809321010B
:1047D000809121018160809321018091200181607D
:1047E0008093200180917A00846080937A00809188
:1047F0007A00826080937A0080917A008160809351
:104800007A0080917A00806880937A001092C100CB
:1048100083E596E00E94320D80E68093D20482EF19
:1048200092E19093D5048093D4041092D304109213
:1048300063041092620410924705109269050E9469
:10484000290983E594E0909361048093600484E5F2
:1048500094E090935F0480935E048091D20411E011
:1048600010934605809368050E946809E0917A05D7
:10487000F0917B0582E08083E0917605F0917705E9
:104880001082E0917805F091790580E180831092A3
:104890008205E0917E05F0917F0586E08083E091BE
:1048A0007C05F0917D05808180618083E0917C05AD
:1048B000F0917D05808188608083E0917C05F09196
:1048C0007D05808180688083E0917C05F0917D0585
:1048D00080818F7D80838091CA04811129C01092CC
:1048E000B2041092B10488EE93E0A0E0B0E08093AF
:1048F000B3049093B404A093B504B093B6048EE1CE
:1049000092E09093B0048093AF048CED92E090938A
:10491000BE048093BD041092BF041092C004109294
:10492000C1041092C20488E08093C7041093CA04A3
:104930008CE694E090936B0480936A048091690400
:10494000811197C060E372E080E090E00E9415045E
:104950001FB7F89480916704811124C0E0E5F5E069
:104960008491E6E9F5E09491E82FF0E0EE0FFF1F67
:10497000EF5FFA4FA591B491EC91E92321F461E046
:1049800085E30E94640385E30E9409038CB580617E
:104990008CBD8CB580648CBD84E30E94090383E3E5
:1049A0000E940903809167048F5F809367041FBF93
:1049B000E5E2F5E0E491F0E0EE0FFF1FE951FB4F77
:1049C000859194919093660480936504EBE6F5E0FD
:1049D000E491E09364048AE00E9409030E942F0797
:1049E00080E591E00E944A0384E38093190580E802
:1049F0000E94F9070E94540F882309F475C188E0CA
:104A00000E94F9070E94410F883009F06DC180E1D2
:104A10000E94F9070E94410F803109F065C180E0D2
:104A20000E94F9070E94410F182F81115DC141E0DA
:104A300050E0BE016F5F7F4F8FE190E00E94CC0D90
:104A40008981833009F050C180E48093680442E09A
:104A50006EE170E0812F0E94570842E06FE170E044
:104A6000812F0E9457081F5F183089F781E08093DB
:104A7000690480E591E00E944A0346E050E060E06E
:104A800072E089E090E00E944B078CED92E09A83FF
:104A900089831B821C821D821E8244E050E0BE017D
:104AA0006D5F7F4F8FE090E00E944B0700916A049A
:104AB00010916B04D80192961D921D921D921C922A
:104AC0009597F80116A217A210A611A69A961D9204
:104AD0001D921D921C929D9780E69AEEA0E0B0E098
:104AE00086AB97ABA0AFB1AF80EA9FE0A0E0B0E0AB
:104AF00082AF93AFA4AFB5AF3E9684E1DF011D92C4
:104B00008A95E9F786E0E0E0F2E0D8011896019096
:104B10000D928A95E1F7F801EE5BFF4FFA87E9877E
:104B200010820E941C2A2FEC37E040E050E00E94E7
:104B3000442DDC01CB010196A11DB11DF801848338
:104B40009583A683B78380839183A283B38358011F
:104B5000F3E4AF0EB11CC5010E949C0E64E470E04A
:104B6000C5010E94CC14882309F427C10E94470480
:104B70002B013C0148EEC42E43E0D42EE12CF12C55
:104B800052E0252E912C812CA985BA858C918330F9
:104B9000B9F1811146C2F80184819581A681B7815E
:104BA0000196A11DB11D84839583A683B7830E94BE
:104BB00047046419750986099709A70196010E949F
:104BC000762DA90161E0C8010E944A1C81E0A985F7
:104BD000BA858C93F1E08F169104B1F20E944704DC
:104BE0006419750986099709D801D6962D913D91CA
:104BF0004D915C91D997261737074807590710F64A
:104C0000C5010E949C0EF80184819581A681B7811F
:104C10000196A11DB11D84839583A683B7830E944D
:104C20004704F801FE9660837183828393838A949C
:104C3000892809F0C2C080E591E00E944A030091F2
:104C40006A0410916B04B801625F7F4FCE01019638
:104C50000E941C1844E050E0BE016D5F7F4F8FE062
:104C600090E00E944B07B8016A5E7F4FCE0101962B
:104C70000E941C1844E050E0BE016D5F7F4F81E050
:104C800090E00E944B07B8016E5E7F4FCE01019607
:104C90000E941C1844E050E0BE016D5F7F4F85E02C
:104CA00090E00E944B07B801625E7F4FCE010196F3
:104CB0000E941C188B819C81AD81BE8180932D0642
:104CC00090932E06A0932F06B09330060E94F00317
:104CD0007F7380910602909107026827792770936D
:104CE00007026093060269C087E38093190580E894
:104CF0000E94F9070E94540F882329F188E00E943E
:104D0000F9070E94410F8830F1F480E10E94F90711
:104D10000E94410F182F8031B1F480E00E94F90702
:104D20000E94410F81110FC041E050E0BE016F5F52
:104D30007F4F89E390E00E94CC0D8981843019F483
:104D40001093680493CE83E38093190580E80E9452
:104D5000F9070E94540F882371F180E10E94F9073E
:104D60000E94410F803139F582E10E94F9070E94CB
:104D7000410F823101F580E00E94F9070E94410F46
:104D8000811119C084E08093680415E5188741E01B
:104D900050E0BE01685F7F4F8BE190E00E944B07BF
:104DA0001F8341E050E0BE01695F7F4F8AE190E0E0
:104DB0000E944B075BCE1092190568EE73E080E00D
:104DC00090E00E9415048FEF96E00E94280387E888
:104DD00096E00E94280380EC80938B0710928C074A
:104DE00042E050E06BE877E087E797E00E948D06AD
:104DF0008111E2C10E940507F4E0DF2EA1E4EA2E52
:104E0000A8E0FA2EB0E1CB2E12E8B12E87E797E0AA
:104E10000E94D6068111F5C167E673E08AE695E047
:104E20000E94A61652E0A52E66E0962E7EE1872E01
:104E3000EEE07E2E87E797E00E941F1C882309F48E
:104E400002C2C0928B076EE773E08DE897E00E9484
:104E5000FF17DC01DC921196AC921197E091830769
:104E6000F09184073097C9F0E491EE23B1F01196E8
:104E70009C92119780918707813009F0A8C1119603
:104E80007C92119780918807813039F411968C912A
:104E90001197806211968C931197E0917F07F091A2
:104EA0008007E491EE2339F011968C911197806878
:104EB00011968C931197E0918107F0918207E4910C
:104EC000EE2339F011968C911197806411968C9392
:104ED000119780918A0712968C9312978091890777
:104EE00013968C93139760917D0770917E07FB0159
:104EF0008491882309F472C1CD0104960E94FF17A2
:104F000060918307709184076115710561F0FB0161
:104F10002491222341F00E94FF1760918507709130
:104F200086070E94FF1760917F0770918007FB0141
:104F3000249121110E94FF176091810770918207CF
:104F4000FB01249121110E94FF178B5897402EEFEF
:104F5000280F20938C07AC0155276BE877E087E793
:104F600097E00E948D06882309F46DC160E777E120
:104F70008BE897E00E941306843009F064C18091A9
:104F80008B07803209F05FC180918C07823009F075
:104F90005AC1E0918E07E11157C103E218E0D80130
:104FA0008D919C91892B09F422C143E0642ED80194
:104FB000ED91FC91528060817181B0928B0780915C
:104FC00021089091220890938D0780938E07019677
:104FD00090932208809321088FE897E00E94FF17A2
:104FE000FC015192CF018B5897402EEF280F209350
:104FF0008C07AC0155276BE877E087E797E00E94C4
:105000008D06882309F41FC169E08BE897E00E94B0
:105010005E17892B09F0EBC06A946110C8CFEEEFE0
:1050200013C18430F9F4F80184819581A681B78198
:105030000196A11DB11D84839583A683B7830E9429
:1050400047046419750986099709A70196010E940A
:10505000762DA90163E0C8010E944A1CA985BA8582
:105060002C92B8CD813059F5F80142AD53AD64AD05
:1050700075AD9E012F5F3F4FC8010E94581D382E0D
:10508000F2E08F1392C089819A81AB81BC81F801D3
:1050900084839583A683B7830E94470464197509A6
:1050A00086099709A70196010E94762DA90163E060
:1050B000C8010E944A1CA985BA853C928BCD8230DA
:1050C00009F088CDF80142AD53AD64AD75AD9E01D8
:1050D0002F5F3F4FC8010E94581D382EF5E08F13F7
:1050E0005DC0E3E0A985BA85EC93F80182A193A1A4
:1050F000A4A1B5A1892B8A2B8B2B41F484E893E0E2
:10510000A0E0B0E082A393A3A4A3B5A3F80186A175
:1051100097A1A0A5B1A5892B8A2B8B2B61F482A125
:1051200093A1A4A1B5A1B695A7959795879586A3B8
:1051300097A3A0A7B1A7F80182A593A5A4A5B5A59B
:10514000892B8A2B8B2BA9F482A193A1A4A1B5A1B1
:10515000AC01BD0123E076956795579547952A9553
:10516000D1F7841B950BA60BB70B82A793A7A4A717
:10517000B5A7F80186A197A1A0A5B1A586A797A775
:10518000A0ABB1AB82A593A5A4A5B5A582AB93AB0B
:10519000A4ABB5AB88248394912C1CCDF6E08F137F
:1051A00004C0A985BA851C9215CDBFEF3B1212CD64
:1051B000E985FA8510820ECD6DE08BE897E00E94BC
:1051C0005E1780918B07803D09F014CE15CE82309A
:1051D00009F058CE11968C92119754CE14961C92C9
:1051E000149715961C921597CD01069689CE0E5FE1
:1051F0001F4FE016F10609F0D2CE8CEA93E00E9430
:105200004B17E3E2F8E081919191009731F0DC01D6
:10521000AB58BF4F2C9121113AC0EE16FF0699F7FB
:1052200068E873E18BE897E00E9413060E94BC15C2
:10523000009769F564EF71E080E090E00E9415044A
:105240000E947705E3CDEFEFEE5F64E774E0EA30AC
:1052500038F4F0E0EE0FFF1FEC5BFD4F60817181D1
:105260008AE695E00E94380562E173E08AE695E0FF
:105270000E94A61683E893E00E944B170E94050740
:1052800068E873E180E090E00E941504D3CDFC0152
:10529000EB58FF4F1082F6E087389F0791F468E8DB
:1052A00074E08AE695E00E9438058AE896E00E945C
:1052B0004B178AE896E00E94782A61E00E94640316
:1052C000A0CF8F5F964009F09CCF62E874E08AE639
:1052D00095E00E94380582E097E00E944B1782E03B
:1052E00097E00E94782A9093D7048093D604009187
:1052F000D4041091D5040817190738F46CEB73E047
:105300008AE695E00E94A6167CCFBC0190E080E082
:105310000E94222C2B013C01B80190E080E00E9409
:10532000222C9B01AC01C301B2010E94A72D20E0F9
:1053300030EF4FE755E40E94832C0E94192E2B0179
:105340008091D20491E09093460580936805109275
:105350004705109269056091D30470E0660F771FCE
:10536000606483E496E00E94A50AB20194E0769519
:1053700067959A95E1F783E496E00E94A50A24E0F8
:10538000440C551C2A95E1F7642D83E496E00E94B5
:10539000A50A0E94680935CF83E596E00C942B0D91
:1053A0008F929F92AF92BF92CF92DF92EF92FF9235
:1053B000CF93DF93EC01688179818A819B816115AC
:1053C00071058105910521F464E279ED8BE597E0A3
:1053D0002DE133EF41E050E00E94442D49015A0194
:1053E0009B01AC01A7EAB1E40E94632D6B017C0133
:1053F000ACEEB4EFA50194010E94712DC60ED71E2C
:10540000E81EF91EF7FE06C081E0C81AD108E108BF
:1054100080E8F80AC882D982EA82FB82C701B60115
:105420009F77DF91CF91FF90EF90DF90CF90BF906B
:10543000AF909F908F9008958F929F92AF92BF925E
:10544000CF92DF92EF92FF9260910A0270910B026D
:1054500080910C0290910D026115710581059105F5
:1054600021F464E279ED8BE597E02DE133EF41E043
:1054700050E00E94442D49015A019B01AC01A7EA6A
:10548000B1E40E94632D6B017C01ACEEB4EFA50189
:1054900094010E94712DC60ED71EE81EF91EF7FE5C
:1054A00006C081E0C81AD108E10880E8F80AC09275
:1054B0000A02D0920B02E0920C02F0920D02C70198
:1054C000B6019F77FF90EF90DF90CF90BF90AF90A5
:1054D0009F908F90089560930A0270930B028093BF
:1054E0000C0290930D020895662777270C949E2A4C
:1054F000FC0188279927E89421912032E9F329308B
:1055000010F02E30C8F32B3241F02D3239F468946C
:1055100004C00E94962A820F911D219120532A30A7
:10552000C0F31EF4909581959F4F08957AE0979F60
:10553000902D879F802D910D112408958F929F9219
:10554000AF92BF92CF92DF92EF92FF920F931F9391
:10555000CF93DF935C017B016115710519F0DB01CD
:105560008D939C9385010F5F1F4FF501D0818D2F87
:1055700090E00E94FC2B6C01892BB9F5DD32B9F566
:105580000F5F1F4FD5011196DC91C1E05801F1E08A
:10559000AF1AB10843E050E068E872E0C5010E942C
:1055A000052C892B69F5680182E0C80ED11C45E005
:1055B00050E063E872E0C6010E94052C892B21F4BB
:1055C000680197E0C90ED11CE114F10419F0D7016C
:1055D000CD92DC9260E070E080E89FEFC111FFC0E7
:1055E00060E070E080E89FE7FAC05801BBCFDB3293
:1055F00029F485010E5F1F4FF501D181C0E0C6CFB0
:1056000043E050E060E872E0C5010E94052C892B60
:10561000E9F0F80110E000E020E030E0A9015F01CE
:10562000B0ED8B2E8D0E89E08815C8F19C2E689404
:1056300091F88C2F8870C2FF16C0811102C00F5FD5
:105640001F4F3196D501DC91C92DE9CFE114F1044A
:1056500029F00E5F1F4FF7011183008360E070E0B7
:1056600080EC9FE7BCC0882311F001501109A5E030
:10567000B0E00E94632D9B01AC01220F331F441F39
:10568000551F280D311D411D511D283999E9390734
:10569000490799E15907A8F2C6609C2ED2CFAEEF18
:1056A0008A1206C0C3FD3CC09C2E689493F8C9CFF3
:1056B000DF7DD534A9F580818D3239F4C061DF01F9
:1056C0001296818162E070E006C0DF018B32C1F387
:1056D000119661E070E080535D01A61AB70A8A3026
:1056E000F8F4E0E8CE16ECE0DE065CF4B601660FF6
:1056F000771F660F771FC60ED71ECC0CDD1CC80E99
:10570000D11C5D01FFEFAF1ABF0A8C9180538A3024
:10571000A8F1C4FF03C0D194C194D1080C0D1D1D84
:10572000C1FF09C0E114F10431F081E0A81AB10809
:10573000D701AD92BC92CA01B9010E94222CC3705C
:10574000C33009F490584B015C0120E030E0A9011E
:105750000E941D2C882309F440C0C7EBD2E017FF3C
:1057600005C0119501951109CFE9D2E06E01B8E1AC
:10577000CB1AD10880E2E82EF12C0FC0D501B1CFB1
:10578000FE0125913591459154910E191F09C501CE
:10579000B4010E94832C4B015C01D501C4010E159C
:1057A0001F0574F72497F594E794CC16DD06A9F746
:1057B0008A2F880F8B2F881F8F3F49F020E030E021
:1057C000A901C501B4010E941D2C811106C082E20D
:1057D00090E09093590880935808C501B401DF9177
:1057E000CF911F910F91FF90EF90DF90CF90BF90DE
:1057F000AF909F908F90089591110C94F02C80326F
:1058000019F089508550C8F70895FB01DC0141501B
:10581000504088F08D9181341CF08B350CF4805E03
:10582000659161341CF06B350CF4605E861B611170
:1058300071F3990B0895881BFCCF0E945F2C08F42C
:1058400081E00895E89409C097FB3EF49095809517
:10585000709561957F4F8F4F9F4F9923A9F0F92F36
:1058600096E9BB279395F695879577956795B795B4
:10587000F111F8CFFAF4BB0F11F460FF1BC06F5F9A
:105880007F4F8F4F9F4F16C0882311F096E911C0AC
:10589000772321F09EE8872F762F05C0662371F0CD
:1058A00096E8862F70E060E02AF09A95660F771FE1
:1058B000881FDAF7880F9695879597F90895990FBD
:1058C0000008550FAA0BE0E8FEEF16161706E807CA
:1058D000F907C0F012161306E407F50798F0621BEB
:1058E000730B840B950B39F40A2661F0232B242BC0
:1058F000252B21F408950A2609F4A140A6958FEFDF
:10590000811D811D08950E94962C0C940A2D0E94E1
:10591000FC2C38F00E94032D20F0952311F00C94FC
:10592000F32C0C94F92C11240C943E2D0E941B2D69
:1059300070F3959FC1F3950F50E0551F629FF001E2
:10594000729FBB27F00DB11D639FAA27F00DB11DFB
:10595000AA1F649F6627B00DA11D661F829F222784
:10596000B00DA11D621F739FB00DA11D621F839F0B
:10597000A00D611D221F749F3327A00D611D231FE1
:10598000849F600D211D822F762F6A2F11249F572F
:1059900050409AF0F1F088234AF0EE0FFF1FBB1F32
:1059A000661F771F881F91505040A9F79E3F5105F1
:1059B00080F00C94F32C0C943E2D5F3FE4F3983E62
:1059C000D4F3869577956795B795F795E7959F5F9B
:1059D000C1F7FE2B880F911D9695879597F908952D
:1059E00099278827089597F99F6780E870E060E01D
:1059F00008959FEF80EC089500240A941616170668
:105A000018060906089500240A94121613061406AF
:105A100005060895092E0394000C11F4882352F012
:105A2000BB0F40F4BF2B11F460FF04C06F5F7F4FCA
:105A30008F4F9F4F089557FD9058440F551F59F0B1
:105A40005F3F71F04795880F97FB991F61F09F3F6B
:105A500079F087950895121613061406551FF2CF94
:105A60004695F1DF08C0161617061806991FF1CFE4
:105A700086957105610508940895E894BB2766270B
:105A80007727CB0197F90895052E97FB1EF4009414
:105A90000E945B2D57FD07D00E94762D07FC03D096
:105AA0004EF40C945B2D50954095309521953F4FC9
:105AB0004F4F5F4F089590958095709561957F4FFA
:105AC0008F4F9F4F08950E94982DA59F900DB49FD2
:105AD000900DA49F800D911D11240895B7FF0C9483
