:020000040000FA
:100000000C94A4020C94D5020C94D5020C94D50245
:100010000C94D5020C94D5020C94D5020C94D50204
:100020000C94D5020C94D5020C94D5020C94D502F4
:100030000C94D5020C94D5020C94D5020C94D502E4
:100040000C94D5020C94D5020C94D5020C94D502D4
:100050000C94D5020C94D5020C94D5020C946D1A14
:100060000C94D5020C94E11A0C94B71A0C94D50296
:100070000C94D5020C94D5020C94D5020C94D502A4
:100080000C94D5020C94D5020C94D5020C94D50294
:100090000C94D5020C94D5020C94D5020C94D50284
:1000A0000C94D5020C94D5020C94D5020C94D50274
:1000B0000C94D5020C94D5020C94D5020C94D50264
:1000C0000C94D5020C94D5020C94D5020C94D50254
:1000D0000C94D5020C94D5020C94D5020C94D50244
:1000E0000C94D5020C94270A0C94171B0C943D0910
:1000F0000C9435090C94CE080C949C030C94980332
:100100000C94BA160C9447160C945D040C946B1A5C
:100110000C9461080C94C7080C9462030C94D705E6
:100120000C9447170C9432090C9492030C947F049E
:100130000C9481030C9403110C9431030C947D03F3
:100140000C94D8100C94B7080C9422090C94020B50
:100150000C944E040C948E030C94B7040C94AE03D0
:100160000C94820F0C941F0F0C9478080C94B40319
:100170000C94AF080C94680F0C9459060C94B406B8
:100180000C94B3080C943E100C94AA030C9426090A
:100190000C94A6030C942A0D0C94480D0C94710435
:1001A0000C945C100C9479030C9467030C94210458
:1001B0000C941A0C0C94B8030C942D030C94D108D5
:1001C0000C9430090C94691A0C94820A0C948803DC
:1001D0000C9450130C9491170C9423050C94820DDD
:1001E0000C9440080C943E0F0C94110B0C94490A8B
:1001F0000C94A2060C9456080C94450E0C940E0A0E
:100200000C948B130C94A0030C943F0D0C94850359
:100210004E414E494E495459494E46CDCCCC3D0AEB
:10022000D7233C17B7D13877CC2B329595E6241FCE
:10023000B14F0A000020410000C84200401C462087
:10024000BCBE4CCA1B0E5AAEC59D74596F75206852
:10025000617665206265656E2062616E6E65642000
:1002600066726F6D20636F6E6E656374696E672E64
:1002700020506C6561736520636F6E7461637420D8
:10028000746865204D5154542073657276657220F0
:1002900061646D696E6973747261746F7220666FE8
:1002A00072206D6F72652064657461696C732E00D5
:1002B0004578636565646564207265636F6E6E651D
:1002C00063742072617465206C696D69742E2050AE
:1002D0006C656173652074727920616761696E2055
:1002E0006C617465722E004E6F7420617574686F56
:1002F00072697A656420746F20636F6E6E656374D3
:1003000000546865206461746120696E20746865BA
:100310002075736572206E616D65206F722070614B
:100320007373776F7264206973206D616C666F728E
:100330006D656400546865204D5154542073657296
:100340007669636520697320756E617661696C6199
:10035000626C650054686520436C69656E74206941
:1003600064656E74696669657220697320636F7273
:1003700072656374205554462D3820627574206E62
:100380006F7420616C6C6F7765642062792074688B
:1003900065205365727665720054686520536572F6
:1003A00076657220646F6573206E6F74207375704C
:1003B000706F727420746865206C6576656C206F50
:1003C0006620746865204D5154542070726F746FAC
:1003D000636F6C2072657175657374656400436F3B
:1003E0006E6E656374696F6E206661696C6564002A
:1003F0004661696C656420746F2073756273637203
:1004000069626500556E6B6E6F776E206572726FF4
:100410007200737465707065722075703A20007395
:1004200074657070657220646F776E3A200000000A
:100430000A0B02090C0D0E0807030401000000005E
:1004400000000000000000000000000000000000AC
:100450000000000000000000000012111000000069
:10046000000000000000000000000000000000008C
:100470000000000000002200250028002B002E00B4
:100480003100340002010000050108010B010000E9
:100490002100240027002A002D0030003300010134
:1004A0000000040107010A01050505050705080804
:1004B0000808020202020A0A0808040404040101EE
:1004C0000101010101010303030303030303040703
:1004D00007070C0C0C0C0C0C0C0C0202020206069A
:1004E0000606060606060B0B0B0B0B0B0B0B01028D
:1004F0001020200808102040102040800201020136
:1005000008040201010204081020408080402010ED
:100510000804020180040201804020100804020146
:1005200008040201010204081020408001020408AE
:100530001020408044726F7070656420612070618B
:10054000636B65740000171B11241FBECFEFD1E24F
:10055000DEBFCDBF00E00CBF13E0A0E0B2E0EAE1F7
:10056000F0E500E00BBF02C007900D92A037B10785
:10057000D9F726E0A0E7B3E001C01D92A03DB20785
:10058000E1F712E0C4EAD2E000E006C021970109D9
:10059000802FFE010E946C26C33AD10780E0080735
:1005A000A9F70E94991C0C940B280C940000A5E953
:1005B000B6E0FD01219131918217930789F026E081
:1005C000E33BF207B9F730E020E04D915D91452B18
:1005D00049F4220F331FF901EB56F94F91838083C1
:1005E00081E008952F5F3F4F2F30310571F780E094
:1005F00008958CBD9DBD089520E3FC0120833296B3
:10060000862F82958F706F706A3030F4605D6293D0
:10061000682F8111F5CF0895695CF9CF90E0FC0156
:10062000E251FB4F249188559B4FFC018491882314
:1006300099F090E0880F991FFC01E257FB4FA591BC
:10064000B491FC01EC58FB4F859194918FB7F894CD
:10065000EC91E22BEC938FBF0895FC01818D928D7C
:1006600008950895282F30E0F901E25DFB4F949141
:10067000F901E251FB4F449128553B4FF901249178
:10068000222309F435C0992311F191509231F8F4E5
:10069000E92FF0E08827E05BFC4F8F4F0C946C262D
:1006A00081038503620379037D03670388038E0357
:1006B000920398039C03A003A603AA036703AE0357
:1006C000B403B803809180008F7780938000E22F7D
:1006D000F0E0EE0FFF1FEC58FB4FA591B4918FB7E0
:1006E000F894EC91611148C040954E234C938FBF14
:1006F0000895809180008F7DE8CF80918000877F72
:10070000E4CF84B58F7784BDE2CF84B58F7DFBCFF6
:100710008091B0008F778093B000D9CF8091B000E6
:100720008F7DF9CF809190008F7780939000CFCF0D
:10073000809190008F7DF9CF80919000877FF5CFD9
:100740008091A0008F778093A000C1CF8091A000FE
:100750008F7DF9CF8091A000877FF5CF8091200118
:100760008F7780932001B3CF809120018F7DF9CFC7
:1007700080912001877FF5CF4E2BB8CF3FB7F894FB
:100780008091E3039091E403A091E503B091E60327
:1007900026B5A89B05C02F3F19F00196A11DB11DDC
:1007A0003FBFBA2FA92F982F8827BC01CD01620F18
:1007B000711D811D911D42E0660F771F881F991FD3
:1007C0004A95D1F708958F929F92AF92BF92CF92A0
:1007D000DF92EF92FF924B015C010E94BE036B011E
:1007E0007C010E94BE036C197D098E099F09683E39
:1007F000734081059105A8F321E0821A9108A108B0
:10080000B10888EEC80E83E0D81EE11CF11C8114EB
:100810009104A104B10429F7FF90EF90DF90CF90ED
:10082000BF90AF909F908F9008952FB7F8946091EC
:10083000DF037091E0038091E1039091E2032FBF09
:100840000895AF92BF92CF92DF92EF92FF920F93F3
:100850001F93CF93DF936C017B018B01040F151F56
:10086000EB015E01AE18BF08C017D10759F06991BE
:10087000D601ED91FC910190F081E02DC601199512
:10088000892B79F7C501DF91CF911F910F91FF90CF
:10089000EF90DF90CF90BF90AF900895FC01538D03
:1008A000448D252F30E0842F90E0821B930B54174A
:1008B00010F0CF96089501970895FC01918D828DD7
:1008C000981761F0A28DAE0FBF2FB11D5D968C9170
:1008D000928D9F5F9F73928F90E008958FEF9FEFAF
:1008E0000895FC01918D828D981731F0828DE80F6B
:1008F000F11D858D90E008958FEF9FEF0895FC0125
:10090000918D228D892F90E0805C9F4F821B9109F1
:100910008F739927089580E294E00E947F0421E07C
:10092000892B09F420E0822F0895FC01A48DA80FE3
:10093000B92FB11DA35ABF4F2C91848D90E0019621
:100940008F739927848FA689B7892C93A089B18941
:100950008C91837080648C93938D848D981306C0E2
:100960000288F389E02D80818F7D80830895EF9246
:10097000FF920F931F93CF93DF93EC0181E0888F59
:100980009B8D8C8D98131AC0E889F989808185FF29
:1009900015C09FB7F894EE89FF896083E889F989CB
:1009A00080818370806480839FBF81E090E0DF91CD
:1009B000CF911F910F91FF90EF900895F62E0B8D20
:1009C00010E00F5F1F4F0F731127E02E8C8D8E11DB
:1009D0000CC00FB607FCFACFE889F989808185FF42
:1009E000F5CFCE010E949504F1CFEB8DEC0FFD2FDA
:1009F000F11DE35AFF4FF0829FB7F8940B8FEA89FD
:100A0000FB8980818062CFCFEF92FF920F931F937B
:100A1000CF93DF938C017B01D0E0C0E0F701EC0FB6
:100A2000FD1F6491662339F0C8010E94B704892B29
:100A300011F02196F3CFCE01DF91CF911F910F914D
:100A4000FF90EF900895CF93DF93EC01888D88237A
:100A5000B9F0AA89BB89E889F9898C9185FD03C021
:100A6000808186FD0DC00FB607FCF7CF8C9185FF06
:100A7000F2CF808185FFEDCFCE010E949504E9CFB2
:100A8000DF91CF91089580E090E0892B29F00E94BA
:100A90008B0481110E94000080E090E0892B49F0D6
:100AA00080E090E0892B29F00E94000081110E94D3
:100AB000000080E090E0892B49F080E090E0892BF5
:100AC00029F00E94000081110E94000080E090E067
:100AD000892B49F080E090E0892B29F00E940000EA
:100AE00081110C94000008956F927F928F929F92D3
:100AF000AF92BF92CF92DF92EF92FF920F931F932C
:100B0000CF93DF935B014A01722E632EC22FD32F46
:100B100010E000E086539F4F7C01F70180819181B6
:100B2000DC01ED91FC910688F789E02D1995882369
:100B300071F1D7FD2CC06501C00ED11EF701808177
:100B40009181DC01ED91FC910084F185E02D1995F6
:100B5000892BA9F0F70180819181DC01ED91FC9155
:100B60000284F385E02D1995F60181936F010F5FE3
:100B70001F4F0815190559F0C72DD62DDFCF2A971D
:100B80006AE070E080E090E00E94E303C6CFC80115
:100B9000DF91CF911F910F91FF90EF90DF90CF9059
:100BA000BF90AF909F908F907F906F900895411568
:100BB000510511F00C94740590E080E008954F9277
:100BC0005F926F927F928F929F92AF92BF92CF92DD
:100BD000DF92EF92FF920F931F93CF93DF935C010D
:100BE0008B019B0141E050E0BC0189EE95E00E9441
:100BF0007405019799F090E080E0DF91CF911F910B
:100C00000F91FF90EF90DF90CF90BF90AF909F90AB
:100C10008F907F906F905F904F900895E50121969F
:100C2000450185E0880E911C412C512C32014394E2
:100C3000C12CD12C7601980141E050E0BE0189EE33
:100C400095E00E9474050197B1F6E991AE2FAF7758
:100C5000B0E0A30192010E942826C60ED71EE81E0E
:100C6000F91E87E0440C551C661C771C8A95D1F749
:100C70008C169D0609F4BFCFE7FDDDCFCE018A19A2
:100C80009B095C0145E950E0481B590BCA01B0E0E3
:100C9000A0E098018C159D05AE05BF0540F4BE018E
:100CA00089EE95E00E94D7058A0D9B1DA6CFA6016F
:100CB000F6CFAF92BF92CF92DF92EF92FF920F9357
:100CC0001F93CF93DF935B01EA01F12CE12C865354
:100CD0009F4F6C012097A1F1D6018D919C91DC0171
:100CE000ED91FC910688F789E02D199581110CC0D2
:100CF00080E0DF91CF911F910F91FF90EF90DF90F7
:100D0000CF90BF90AF9008958E01CB3FD10510F0EA
:100D10000AEF10E0F60180819181B5016E0D7F1D13
:100D2000DC01ED91FC910280F381E02DA801199581
:100D3000C81BD90BE80EF91E0817190759F2D8CFAE
:100D400081E0D7CF86539F4FDC018D919C91DC01D0
:100D5000ED91FC910688F789E02D199591E08111BC
:100D600001C090E0892F0895CF93DF93EC01C65323
:100D7000DF4F88819981DC01ED91FC910688F7892C
:100D8000E02D1995882349F088819981DC01ED9146
:100D9000FC910488F589E02D199581E0DF91CF91D0
:100DA0000895E9EEF5E080EE848B158A42E050E08C
:100DB0006DEF75E0CF010E94590689EE95E00C9425
:100DC000B406FC0120812EBD9B012150310941F068
:100DD00051810DB407FEFDCF4EB55EBD4193F5CFF9
:100DE00061507109860F971F0DB407FEFDCF2EB518
:100DF000FC0120830895E0917103F09172038081DA
:100E000090917003892B80830895E0917103F09194
:100E10007203908180917003809589238083089567
:100E20008EBD00000DB407FEFDCF8EB50895AF92C4
:100E3000BF92CF92DF92EF92FF920F931F93CF93C7
:100E4000DF9300D000D01F921F92CDB7DEB78C0188
:100E50007B016A0180911F048333E1F45801A40EE1
:100E6000B51EA016B10609F46FC00E94050780EFF9
:100E70000E941007812F0E941007802F0E941007E8
:100E80000F5F1F4FF70181917F010E9410070E94A1
:100E9000FB06E7CF5B01A40EB51E8433C1F40E94AC
:100EA000050719830A838D2D80688B83CC8264E0CB
:100EB00070E0CE0101960E94E106AE14BF0409F471
:100EC00041C0F70181917F010E941007F6CF0E9477
:100ED00005070F3F110509F028F419820A8384E001
:100EE0008B830CC017FD17C019820A8333E0169557
:100EF00007953A95E1F7007E0C600B8386E0C816F3
:100F0000D104A0F5F701DE011496EA15FB0599F06E
:100F100081918D93FACFC80126E0969587952A9501
:100F2000E1F7807E19830A830115104C10F4846167
:100F3000D7CF8C61D5CFB6016D5F7F4FCE010196C3
:100F40000E94E1060E94FB06C60128960FB6F8949F
:100F5000DEBF0FBECDBFDF91CF911F910F91FF90EC
:100F6000EF90DF90CF90BF90AF90089563E070E076
:100F7000CE0101960E94E106F70181917F010E9456
:100F80001007AE14BF04C1F7DDCFCF93DF931F92DC
:100F9000CDB7DEB7898341E050E0BE016F5F7F4F80
:100FA00090E080E00E9417070F90DF91CF910895A5
:100FB00090E020911F04233339F40C96982F990F59
:100FC000990F990F80E008954896F8CFDA01E091E3
:100FD0007403F0E0FE2FEE27E60FF71F90E0982F46
:100FE0008827A901BD018E0F9F1F0C941707CF936F
:100FF000DF931F921F92CDB7DEB779836A8322E019
:1010000030E0AE014F5F5F4F60E170E00E94E607A5
:101010000F900F90DF91CF910895CF93DF931F92A0
:101020001F92CDB7DEB779836A8322E030E0AE014C
:101030004F5F5F4F64E070E00E94E6070F900F90F3
:10104000DF91CF910895CF93DF931F92CDB7DEB795
:101050002091740330E0322F2227260F371F90E0B3
:10106000982F8827498341E050E0BE016F5F7F4F92
:10107000820F931F0E9417070F90DF91CF91089561
:10108000CF93DF931F92CDB7DEB76983DC01ED917B
:10109000FC910280F381E02D41E050E0BE016F5FE2
:1010A0007F4F19950F90DF91CF910895FC019485A2
:1010B000FB018485981303C081E0983008F080E03C
:1010C0000895CF93DF931F92CDB7DEB76983DC011C
:1010D000ED91FC910280F381E02D41E050E0BE01F2
:1010E0006F5F7F4F19950F90DF91CF91089508950D
:1010F000FF920F931F93CF93DF93EB01FC01178AAD
:10110000168A2A81211109C02B81211106C02C8148
:10111000211103C02D81222301F141155105E9F070
:101120008A01FC01F08C80E591E00E94F902AE0199
:101130004E5F5F4F24E030E06CE070E08F2D0E9446
:10114000E607B8018F2D0E94F70781E090E0DF915C
:10115000CF911F910F91FF90089580E0F7CFFC0190
:10116000848595850895FC018489958908952EE9E3
:1011700032E0FC0131832083FB014089518962897F
:101180007389FC0142835383648375830895DC0172
:10119000ED91FC91048CF58DE02D199490E080E0A8
:1011A00008950895EF92FF920F931F93CF93DF93CB
:1011B0007C0160E087E00E943203D0E0C0E00BE9F0
:1011C0001FE061E086E00E943203C8010197F1F759
:1011D00060E086E00E943203C8010197F1F7219692
:1011E000EC16FD0671F7DF91CF911F910F91FF90E3
:1011F000EF900895EF92FF920F931F93CF93DF9399
:101200007C0161E087E00E943203D0E0C0E00BE99E
:101210001FE061E086E00E943203C8010197F1F708
:1012200060E086E00E943203C8010197F1F7219641
:10123000EC16FD0671F7DF91CF911F910F91FF9092
:10124000EF900895FC01768765870895DC01ED91A4
:10125000FC9102A0F3A1E02D199591E08927089552
:10126000862F089581E08627089521E0FC0184857A
:10127000883008F020E0822F08950895AF92BF9241
:10128000CF92DF92EF92FF920F931F93CF93DF9352
:1012900000D01F92CDB7DEB78C016B017A0180912F
:1012A0001F048333E9F45B016801C40ED51EC01628
:1012B000D106A9F10E9405078FE00E941007812F37
:1012C0000E941007802F0E9410070F5F1F4F80E0C1
:1012D0000E941007F50181935F010E94FB06E7CF92
:1012E000843369F50E94050719830A838F2D8F7750
:1012F0008B83EC8264E070E0CE0101960E94E106EF
:10130000A70170E060E0C6010E94C427E114F10467
:1013100021F0B701C6010E94E1060E94FB06C70149
:101320000F900F900F900F90DF91CF911F910F9121
:10133000FF90EF90DF90CF90BF90AF9008950E9404
:1013400005070F3F110509F030F419820A831B824B
:1013500063E070E0D1CF17FD0BC019820A8333E040
:10136000169507953A95E1F7007E08600B83F0CF5C
:10137000C80126E0969587952A95E1F7807E198326
:101380000A830115104C18F480618B83E1CF8861CA
:10139000FCCFCF93DF931F92CDB7DEB720917403BC
:1013A00030E0322F2227260F371F90E0982F882712
:1013B00041E050E0BE016F5F7F4F820F931F0E949C
:1013C0003E0989810F90DF91CF910895CF93C82F67
:1013D000462F61E070E00E94230861E070E08C2FEE
:1013E0000E94C9098111F9CFCF910895CF93C82FD9
:1013F00080E591E00E94F90268E070E08C2FCF91C7
:101400000C94E609CF93C82F80E591E00E94F90281
:1014100060E170E08C2FCF910C94E609CF93DF93BD
:10142000EC01888D883020F40E94020A88E0888FC1
:10143000DF91CF910895CF93C82F80E591E00E946E
:10144000F90263E070E08C2FCF910C94C909CF931F
:10145000DF93EC018C858830D0F40E941B0A843124
:1014600089F0882379F0883169F021E08C3159F4D2
:10147000E881F9810084F185E02DCE01199521E004
:10148000892B09F420E0822FDF91CF91089580E02D
:10149000FBCFCF92DF92EF92FF92CF93DF93EC01DD
:1014A0008C85883068F40E94F6090E9415046B014F
:1014B0007C018C850E941B0A811109C088E08C8701
:1014C000DF91CF91FF90EF90DF90CF90089561E092
:1014D00070E080E090E00E94E3030E941504AB01FD
:1014E000BC014C195D096E097F098D859E85B0E0B0
:1014F000A0E0481759076A077B07D8F28C850E943D
:10150000020ADCCFCF93FC01C08D80E591E00E9400
:10151000F90260E270E08C2F0E94E60962E070E060
:101520008C2F0E94C90984FD16C062E070E08C2FE8
:101530000E94C90983FF0AC048E162E070E08C2F75
:101540000E94230880E090E0CF91089580E591E02B
:101550000E94F902E3CF40E162E070E08C2F0E942C
:10156000230881E0F0CFCF93DF931F92CDB7DEB792
:1015700041E050E0BE016F5F7F4F90E080E00E944D
:101580003E0989810F90DF91CF910895CF93DF932A
:10159000C4E1D0E00E94B30A882361F061E070E00A
:1015A00080E090E00E94E3032197A1F780E0DF91C3
:1015B000CF91089581E0FBCF1F93CF93DF931F92CC
:1015C000CDB7DEB7182F80E591E00E94F902812F98
:1015D0000E94D80727E0129FF0011124E951FC4F27
:1015E00022813381377041E050E0BE016F5F7F4F51
:1015F000820F931F0E943E0989810F90DF91CF9146
:101600001F910895FC01808D883040F4218D328D2A
:10161000232B21F00E94DC0A90E008958FEF9FEFCA
:101620000895CF93DF93FC012485283028F08FEFB5
:101630009FEFDF91CF910895EC010190F081E02DB3
:101640000084F185E02D1995892B89F38C850E9402
:10165000DC0A90E0EECFDA01E0917403F0E0FE2FB7
:10166000EE27E60FF71F90E0982F8827A901BD010C
:101670008E0F9F1F0C943E098F929F92AF92BF9244
:10168000CF92DF92EF92FF920F931F93CF93DF934E
:10169000CDB7DEB760970FB6F894DEBF0FBECDBFF3
:1016A0007C0190911F04911115C018E0812F609664
:1016B0000FB6F894DEBF0FBECDBFDF91CF911F9163
:1016C0000F91FF90EF90DF90CF90BF90AF909F90E1
:1016D0008F90089508E0933309F404E06B0180E5EE
:1016E00091E00E94F9029E012F5F3F4F590149018D
:1016F00010E063E070E0812F0E94C909F40181933A
:101700004F018823C1F01F5F0113F3CF00E0F50103
:1017100081915F018D3149F0883139F08A518230F1
:1017200020F00F5F1013F3CFC0CF60E170E0802F87
:101730000E94E609102FA12EB12C83EE93E00197B1
:10174000F1F742E870E060E0812F0E9423084FEF3C
:1017500062E070E0812F0E942308B601C114D10419
:1017600091F4809106029091070201968115F0ECA8
:101770009F0708F45CC09093070280930602609173
:10178000060270910702812F0E940D0886E0E2E1B7
:10179000F2E0DE01199601900D928A95E1F7F701CA
:1017A00083818F778C8784818D8785818E87A70140
:1017B0004E5F5F4F24E030E06CE070E0812F0E94CC
:1017C000E607B601812F0E94F70726E030E0AE0160
:1017D000475F5F4F66E070E0812F0E94E60761E09F
:1017E00070E0812F0E94E60927E02A9DC0012B9D11
:1017F000900D11249C0129513C4F7901F90111826E
:10180000108222E030E0AE01415F5F4F68E270E09D
:10181000812F0E942B0B8F859889982789279827DD
:10182000F701938382831682158214823FCF80E072
:1018300090ECA1CFCF92DF92EF92FF920F931F9384
:10184000CF93DF9300D000D0CDB7DEB78C016B0112
:101850007A01FC01808D883010F40E94020A8EE922
:1018600092E09A838983F60182819381A481B58174
:101870008B839C83AD83BE83B701CE0101960E940A
:101880003C0BF801808F8830A0F4F586E486128E38
:10189000118E81E026960FB6F894DEBF0FBECDBF45
:1018A000DF91CF911F910F91FF90EF90DF90CF903C
:1018B000089580E0EFCF7F928F929F92AF92BF9278
:1018C000CF92DF92EF92FF920F931F93CF93DF930C
:1018D0001F921F92CDB7DEB7782E8B014A015901B6
:1018E00022E030E0AE014F5F5F4F64E270E00E94A3
:1018F0002B0BE980FA80FE24EF24FE24E00EF11E7B
:101900009701377040911F04072D10E0433309F011
:1019100042C0085F1F4F102F0027110F110F110F2A
:10192000C901800F911F4733C9F1A9014A0D5B1D01
:101930004130584098F160E078E06B01C21AD30A58
:10194000A601B4010E941707A5014C195D09B40155
:101950006C0D7D1DC8010E941707EA0CFB1CF98263
:10196000EA8222E030E0AE014F5F5F4F64E270E058
:10197000872D0E94E6070F900F90DF91CF911F9166
:101980000F91FF90EF90DF90CF90BF90AF909F901E
:101990008F907F900895005F1F4FBDCFA501B401C8
:1019A000DACFEF92FF921F93CF93DF931F921F9294
:1019B000CDB7DEB7182F22E030E0AE014F5F5F4FAA
:1019C00060E270E00E942B0BE980FA80FE24EF2495
:1019D000FE2422E030E0AE014F5F5F4F60E270E036
:1019E000812F0E942B0B89819A819827892798271C
:1019F000E816F90689F487E0189FF0011124E951EF
:101A0000FC4FF582E482C7010F900F90DF91CF91D8
:101A10001F91FF90EF9008957C01DBCF1F93CF9330
:101A2000DF93182F80E591E00E94F902812F0E9438
:101A3000D10CEC0163E070E0812F0E94C90987316D
:101A400021F08C3111F0D0E0C0E0CE01DF91CF91D8
:101A50001F910895CF93DF93EC018C85883060F45B
:101A60000E941B0A873111F08C3131F48C850E9461
:101A70000E0D8115984088F3DF91CF910895FC01F8
:101A80008485883010F40C940E0D90E080E0089569
:101A90009F92AF92BF92CF92DF92EF92FF920F93FD
:101AA0001F93CF93DF938C015B01942EE52EFC01F5
:101AB000C688D788F08C80E591E00E94F9028F2DCE
:101AC0000E94D10CC92DDE2D8C179D0708F4EC0166
:101AD0009E01A501B6018F2D0E945B0CF80186893D
:101AE00097898C0F9D1F978B868BCE01DF91CF91AD
:101AF0001F910F91FF90EF90DF90CF90BF90AF902C
:101B00009F9008958F929F92AF92BF92CF92DF9253
:101B1000EF92FF920F931F93CF936C015B018A01A9
:101B2000FC01C485C830F0F57A014130584018F006
:101B3000E12C88E0F82E80E591E00E94F9028C2FDC
:101B40000E94D10C4C0163E070E08C2F0E94C90907
:101B5000873111F08C3149F58E149F0460F380E5D4
:101B600091E00E94F9029701A50170E060E08C2FDE
:101B70000E945B0C60E270E08C2F0E94E60962E03C
:101B800070E08C2F0E94C90984FD17C063E070E0EB
:101B90008C2F0E94C90981110BC081E090E0F601F1
:101BA0009383828310E000E010C0F12CE12CD7CFAA
:101BB00080E591E00E94F902E2CF40E162E070E04E
:101BC0008C2F0E942308EF2841F3C801CF911F9169
:101BD0000F91FF90EF90DF90CF90BF90AF909F90CC
:101BE0008F900895FF920F931F93CF93DF931F92CF
:101BF0001F92CDB7DEB7F82E22E030E0AE014F5F86
:101C00005F4F66E270E00E942B0B09811A8110275A
:101C10000127102722E030E0AE014F5F5F4F66E200
:101C200070E08F2D0E942B0B89819A81982789273C
:101C300098270817190749F4C8010F900F90DF91F2
:101C4000CF911F910F91FF9008958C01E3CF1F93C7
:101C5000CF93DF93182F87E0189FE0011124C9511B
:101C6000DC4F88819981009761F480E591E00E94C2
:101C7000F902812F0E94F20D2E81821B9109998316
:101C80008883DF91CF911F910895FC01848588306E
:101C900010F40C94270E90E080E008954F925F922C
:101CA0007F928F929F92AF92BF92CF92DF92EF92EC
:101CB000FF920F931F93CF93DF931F921F92CDB785
:101CC000DEB7782E6B014A01A82EB12C27E0829F47
:101CD000C0011124FC01E951FC4F7F0100811181F9
:101CE00080E591E00E94F9020815190554F4872D4A
:101CF0000E94F20DF70126818C01021B110911834C
:101D000000830115110529F563E070E0872D0E941D
:101D1000C909843159F0882349F001E010E08C3181
:101D200011F410E000E0119501951109C8010F9020
:101D30000F90DF91CF911F910F91FF90EF90DF9067
:101D4000CF90BF90AF909F908F907F905F904F907B
:101D50000895801691060CF4840187E08A9DF001B5
:101D60008B9DF00D1124E951FC4FE280F380C114EA
:101D7000D10451F12701F7E05F22872D0E94D80797
:101D8000840D951D20911F04273309F453C0980139
:101D9000240D351D2130384008F44CC020E038E0D7
:101DA000490184189508A401B6010E943E09260144
:101DB000480C591C6801C818D908872D0E94D807FB
:101DC000A601B2010E943E09E00EF11E87E08A9D45
:101DD000F0018B9DF00D1124E951FC4FF382E2825A
:101DE00020813181201B310B318320838681800F3C
:101DF000912F911D8A3F910510F4232BF1F487E078
:101E00008A9DF0018B9DF00D1124E951FC4F168243
:101E1000F982EA8222E030E0AE014F5F5F4F68E274
:101E200070E0872D0E94E60760E470E0872D0E9435
:101E3000E6097CCFA801B601C5CF868377CFCF93C3
:101E4000DF93FC01218D328D2115310529F48FEFAF
:101E50009FEFDF91CF910895EC01808D42175307DA
:101E600008F0A9010E944E0E1816190684F7298D54
:101E70003A8D281B390B3A8F298FEBCF0F931F9385
:101E8000CF93DF931F92CDB7DEB7FC01218D328D4A
:101E9000232B41F48FEF9FEF0F90DF91CF911F9194
:101EA0000F9108958C0141E050E0BE016F5F7F4FBC
:101EB000FC01808D0E944E0E181619065CF7F80181
:101EC000818D928D0197928F818F898190E0E4CFEF
:101ED000CF93DF931F92CDB7DEB741E050E0BE0154
:101EE0006F5F7F4FFC0184850E944E0E1816190605
:101EF00034F4898190E00F90DF91CF9108958FEFB6
:101F00009FEFF9CFFC018485883010F40C944E0EBD
:101F100090E080E008958F929F92AF92BF92CF920F
:101F2000DF92EF92FF920F931F93CF93DF9300D036
:101F300000D000D01F92CDB7DEB790911F04911151
:101F400015C018E0812F2A960FB6F894DEBF0FBE99
:101F5000CDBFDF91CF911F910F91FF90EF90DF9058
:101F6000CF90BF90AF909F908F90089528E0F22E71
:101F7000933311F494E0F92E6B01082F80E591E082
:101F80000E94F9029E012F5F3F4F5901490110E065
:101F900063E070E0812F0E94C909F40181934F0131
:101FA0008823C1F01F5FF112F3CFF12CF50191915D
:101FB0005F019D3149F0983139F09A51923020F00B
:101FC000F3941F11F3CFBDCF60E170E08F2D0E941D
:101FD000E6091F2DE12EF12C83EE93E00197F1F736
:101FE000402F70E060E0812F0E9423084FEF62E0F5
:101FF00070E0812F0E942308B601CD2889F48091DA
:1020000006029091070201968115F0EC9F0798F166
:102010009093070280930602609106027091070276
:10202000812F0E940D0861E070E0812F0E94E60977
:1020300027E02E9DC0012F9D900D11249C01295158
:102040003C4F7901F9011182108222E030E0AE01AB
:10205000475F5F4F68E270E0812F0E942B0B8985FC
:102060009A85982789279827F70193838283168278
:102070001582148267CF80E090ECCACF0F931F9334
:10208000CF93DF93EC018B01888D883010F40E9490
:10209000020AB80182E00E948B0F888F883050F4CA
:1020A0001D870C871A8E198E81E0DF91CF911F91C9
:1020B0000F91089580E0F9CFCF92DF92EF92FF92D7
:1020C0001F93CF93DF93EC017B016A018C858830ED
:1020D00048F40E941B0A882319F08C850E94F60997
:1020E00088E08C87F70182819381A481B581009774
:1020F000A105B10551F490E080E0DF91CF911F91EF
:10210000FF90EF90DF90CF9008958F3F9F4FAF4F9C
:10211000BF4F89F370E060E081E20E948B0F182FBF
:102120008C87883040F780E591E00E94F902A70192
:102130004E5F5F4F24E030E06CE070E0812F0E9442
:10214000E607B601812F0E94F70764E070E0812F57
:102150000E94E6090E9415046B017C018C850E9497
:102160001B0A873111F18C3101F1882321F20E9481
:102170001504AB01BC014C195D096E097F098D8501
:102180009E85B0E0A0E084179507A607B70738F052
:1021900061E070E080E090E00E94E303DFCF8C8597
:1021A0000E94020A88E08C87A6CF81E090E0A5CF4C
:1021B0000F931F93CF93DF931F921F92CDB7DEB77C
:1021C000FC0124852830E0F48C0180E591E00E9438
:1021D000F90222E030E0AE014F5F5F4F60E170E056
:1021E000F80184850E942B0B89819A819827892781
:1021F00098270F900F90DF91CF911F910F91089525
:1022000090E080E0F6CF0F931F93CF93DF931F9260
:102210001F92CDB7DEB7FC0124852830E0F48C0195
:1022200080E591E00E94F90222E030E0AE014F5FCC
:102230005F4F64E070E0F80184850E942B0B898178
:102240009A819827892798270F900F90DF91CF9137
:102250001F910F91089590E080E0F6CF3F924F924A
:102260005F926F927F928F929F92AF92BF92CF9226
:10227000DF92EF92FF920F931F93CF93DF9300D0E3
:102280001F92CDB7DEB78330910508F4CEC03090F1
:10229000FD05232D207F203309F0C7C030E020E06A
:1022A0008038910538F0811520E4920708F4B4C015
:1022B00022E030E02C01590184E0A80EB11C275126
:1022C0003A4FD9015796EC90F12C65E9662E66E0FD
:1022D000762E10E000E0F501E350FA4F4F01D301F4
:1022E000CD90DD903D01C114D10409F498C0F601F0
:1022F00060817181FB0101900020E9F73197E61BB5
:10230000F70BEE16FF0609F08AC0A701C4010E9470
:10231000DB27892B09F083C0F601EB58FF4F808142
:10232000811102C081E0808395012E0D3F1D832D18
:102330008670D12CC12C60E0823041F4F901E75164
:10234000FA4FC4888589DC2CC82E62E00A5A1F4FD8
:10235000F801EE0FFF1FE751FA4F0190F081E02DD9
:10236000339694E6DF011D929A95E9F770E04E18D6
:102370005F08461A570A4A185B08B5E64B1651041F
:1023800018F043E6442E512C620F731F63507A4FAE
:10239000C801880F991FFC01E751FA4F7F01808126
:1023A0009181A20103960E94B227D701ED91FC9181
:1023B000E959FF4F518240828091FD05867082303D
:1023C00071F490E499838A83DB82CC8244E050E00C
:1023D000BE016F5F7F4F89EE95E00E945906000FA6
:1023E000111FF801E751FA4F808191810F900F90F2
:1023F0000F900F90DF91CF911F910F91FF90EF9071
:10240000DF90CF90BF90AF909F908F907F906F9014
:102410005F904F903F90089521E030E04BCF0F5FE9
:102420001F4F0F30110509F05ACF90E080E0DECF4A
:10243000FB0101900020E9F73197AF01461B570BD4
:10244000DC01ED91FC910280F381E02D19948F92D3
:102450009F92AF92BF92EF92FF920F931F93CF93F1
:10246000DF93CDB7DEB7A1970FB6F894DEBF0FBEEE
:10247000CDBF7C01FA01CB0119A2223008F42AE079
:102480008E010F5D1F4F822E912CB12CA12CBF010C
:10249000A50194010E943B26F901CA016A300CF59E
:1024A000605DD8016E938D01232B242B252B79F7AA
:1024B00090E080E0109721F0BD01C7010E94181242
:1024C000A1960FB6F894DEBF0FBECDBFDF91CF91BE
:1024D0001F910F91FF90EF90BF90AF909F908F90C2
:1024E0000895695CDECFCF93DF93BC0180E294E076
:1024F0000E941812EC0162EB72E080E294E00E940C
:1025000018128C0F9D1FDF91CF910895CF92DF920B
:10251000FF920F931F93CF93DF938C01F62E64EFFE
:1025200071E0C8010E94DF059C01892B09F486C077
:10253000D8019C9192959F709F1509F47FC09330AC
:1025400009F06FC0C9010E942E11EC01009739F308
:10255000FC01E759FF4FC080D180C114D10469F05C
:1025600003960E943D23BC01990F880B990BF6013D
:102570001995CB58DF4F1882D2CF6C01FBE6CF0EF6
:10258000D11CD6018D919C91892B49F0CE010396E7
:102590000E943923D601ED91FC911995EACFFE01F5
:1025A000E359FF4F0190F081E02D309749F0DE01B3
:1025B000A959BF4F6D917C91CE0103961995D9CF42
:1025C000FE01E159FF4F0190F081E02DDE01AF588F
:1025D000BF4F8D919C919C0121703327309721F43E
:1025E0002115310509F49BCF95958795DE01AD58EE
:1025F000BF4F4D915C91840F951F232B41F0DC015F
:102600002D913C91E20FF31F0190F081E02DDE014E
:10261000A959BF4F4D915C91BE016D5F7F4F1995D8
:10262000A8CF64E375E080E294E00E94040562EBC9
:1026300072E080E294E00E94181271CFC901DF912C
:10264000CF911F910F91FF90DF90CF9008950F933E
:102650001F93CF93DF93EB0109900020E9F72197B7
:10266000C61BD70BFC01D083C1838C010E5F1F4FAB
:10267000AE01C8010E94F327C8018C0F9D1FDF9196
:10268000CF911F910F910895DC018EE992E08D9317
:102690009D9384E0FB0101900D928A95E1F70895E6
:1026A000EF92FF920F931F93CF93DF9300D01F926F
:1026B000CDB7DEB78C017B01FB0184858830A8F0A3
:1026C0008EE992E0F8019183808312821382148252
:1026D0001582C8010F900F900F900F90DF91CF914E
:1026E0001F910F91FF90EF90089580E591E00E9477
:1026F000F90224E030E0AE014F5F5F4F6CE070E024
:10270000F70184850E942B0BBE016F5F7F4FC801CC
:102710000E944413DECF0F931F93CF93DF9300D01B
:1027200000D01F921F92CDB7DEB78C01D801599609
:102730004D915C915A974115510551F0ED91FC91E5
:10274000048CF58DE02D70E060E0C8011995EECFA6
:10275000F801808D0E94270E892BB1F148E050E0EE
:10276000BE016F5F7F4FD80158968C910E944E0E2C
:1027700018161906F4F4D801509684E0FE0131963B
:1027800001900D928A95E1F78D8190E0982F88272E
:102790002E81820F911DF801958B848B8F81282FBC
:1027A00030E0322F22278885820F932F911D928F40
:1027B000818F28960FB6F894DEBF0FBECDBFDF9194
:1027C000CF911F910F91089590E080E0F2CF4F924A
:1027D0005F926F927F928F929F92AF92BF92CF92B1
:1027E000DF92EF92FF920F931F93CF93DF93CDB7BA
:1027F000DEB763970FB6F894DEBF0FBECDBF7C0186
:102800006B013A01FB0120E090E080E06AE0319149
:10281000332309F461C040ED430F4A3008F04DC046
:10282000689FA001699F500D1124CA01C097830FB2
:10283000911D37FD9A958F3F910549F340F3F701BC
:1028400042815381648175818091EF049091F004FD
:10285000A091F104B091F204481759076A077B0769
:1028600009F40DC28701085F1F4F0E9415046F70A5
:1028700077277C5FC8010E943E10813009F004C2B6
:102880008EE992E09A838983F70182819381A48102
:10289000B5818B839C83AD83BE8345E350E0BE014D
:1028A0006F5F7F4FC8010E947808892BA9F5D12C52
:1028B000C12CC8010E940E0A17C03E3209F0BFCFDA
:1028C000233009F4BCCFD301A20FB11D12968C9313
:1028D0002F5F90E080E09BCF233009F0B0CFF30171
:1028E0008583CC24C394D12CC60163960FB6F8948B
:1028F000DEBF0FBECDBFDF91CF911F910F91FF9033
:10290000EF90DF90CF90BF90AF909F908F907F908F
:102910006F905F904F9008950E941504F7017783A0
:10292000668342E050E0B7016A5F7F4FC8010E94B2
:10293000480D81E090E09A83898342E050E0BE0137
:102940006F5F7F4FC8010E94480D80E091E09A833D
:10295000898342E050E0BE016F5F7F4FC8010E9453
:10296000480D1A82198242E050E0BE016F5F7F4F2E
:10297000C8010E94480D42E050E0BE016F5F7F4FEA
:10298000C8010E94480D42E050E0BE016F5F7F4FDA
:10299000C8010E94480D5601F6018081882301F18B
:1029A0006501F60181912F01882311F08E32B1F477
:1029B00046018A189B081814190474F48D8641E0A6
:1029C00050E0BE01635F7F4FC8010E94480DA40123
:1029D000B501C8010E94480D5201DECF6201E1CF6E
:1029E0001D8641E050E0BE01635F7F4FC8010E9439
:1029F000480DC12CDD24D394DA82C98242E050E034
:102A0000BE016F5F7F4FC8010E94480DDA82C98204
:102A100042E050E0BE016F5F7F4FC8010E94480D49
:102A2000C8010E94820A892B09F441CFF3E0AF2E3E
:102A3000B12C230122E0420E511CD4C0F701428187
:102A4000538164817581808D918DA28DB38D4817DE
:102A500059076A077B0709F008C1848D958DC597D2
:102A600009F003C181A192A15DEFC52EDD24DA94A6
:102A70000C970CF4ADC04CE050E0BE016F5F7F4F8F
:102A8000C8010E941F0F8B819C8198278927982756
:102A90009A8B898BF7014681578129813A814217A8
:102AA000530709F0E7C097FFE5C08F7092703BEFC6
:102AB000C32EDD24DA94892B09F08AC06F807884D4
:102AC0007624672476242AEFC22EDD24DA9461145A
:102AD000710409F47DC0D12CC12C8D819E81982771
:102AE00089279827C816D906F8F441E050E0BE01BE
:102AF000635F7F4FC8010E941F0F4D85442331F053
:102B000050E070E060E0C8010E941F0F8D858111C8
:102B1000ECCF44E050E070E060E0C8010E941F0F7D
:102B2000FFEFCF1ADF0AD9CF912C812C41E050E082
:102B3000BE016D5E7F4FC8010E941F0F4B89842F1D
:102B4000807C09F06CC0442331F050E070E060E01C
:102B5000C8010E941F0F8B898111E8CF42E050E02D
:102B6000BE01615F7F4FC8010E941F0F42E050E02D
:102B7000BE01635F7F4FC8010E941F0F44E050E019
:102B800070E060E0C8010E941F0F42E050E0BE010B
:102B90006F5E7F4FC8010E941F0F8F8598894989FA
:102BA0005A898115914009F043C0CD84DE84DC242C
:102BB000CD24DC2481E0C816D104D1F54115544060
:102BC00009F04AC044E050E0B201C8010E941F0F62
:102BD00021E0A21AB10809F46CCEFFEFCF16DF0690
:102BE00009F067CE0E9415043B014C01C8010E9408
:102BF0008B13181619060CF421CF0E9415046619C0
:102C0000770988099909693873418105910548F563
:102C100062E370E080E090E00E94E303E7CF41E0F0
:102C200050E070E060E0C8010E941F0F1B8A93CF44
:102C300054274527542770E060E0C8010E941F0F09
:102C4000FFEF8F1A9F0A6814790409F06FCF96EF8F
:102C5000C92EDD24DA94BCCFE7EFCE2EDD24DA9442
:102C6000B7CFCC24CA94DC2CB3CF6EEFC62EDD24B4
:102C7000DA94AECF4CEFC42EDD24DA94A9CF8EEFD8
:102C8000C82EDD24DA9430CED12CC12C2DCECF929B
:102C9000DF92EF92FF920F931F93CF93DF93CDB705
:102CA000DEB7AF970FB6F894DEBF0FBECDBF7C0185
:102CB0006A010EE912E01A8309831C861B8688EEDE
:102CC00093E0A0E0B0E08D879E87AF87B88B8CE162
:102CD00092E09A878987188F0F8B198E1A8E1B8E18
:102CE0001C8E88E089A31BA70AA71CA61DA61EA6EA
:102CF0001FA68091E3049091E404A091E504B091B3
:102D0000E6048EA39FA3A8A7B9A78B839C83AD835A
:102D1000BE8318861F82AE01465D5F4FCE010196CD
:102D20000E94E71381309105B1F4D701ED91FC9138
:102D30000488F589E02D1DA30CA38CA59DA5AEA547
:102D4000BFA58EA39FA3A8A7B9A7A601BE016C5DCE
:102D50007F4FC7011995AF960FB6F894DEBF0FBE2F
:102D6000CDBFDF91CF911F910F91FF90EF90DF903A
:102D7000CF900895CF92DF92EF92FF920F931F931F
:102D8000CF93DF93CDB7DEB7AF970FB6F894DEBF22
:102D90000FBECDBF8C016B017A018EE992E09A8360
:102DA00089831B821C821D821E821C861B8648EE24
:102DB00053E060E070E04D875E876F87788B2CE191
:102DC00032E03A872987988F8F8B198E1A8E1B8E47
:102DD0001C8E28E029A39BA78AA71CA61DA61EA6B9
:102DE0001FA6D8011C968C91883060F40E941B0AA3
:102DF000882321F0F80184850E94F60988E0D80133
:102E00001C968C938091E3049091E404A091E504D6
:102E1000B091E6048EA39FA3A8A7B9A78B839C8338
:102E2000AD83BE8318861F82AE01465D5F4FB6013B
:102E3000CE0101960E94E7130097C1F0D801ED91F1
:102E4000FC910684F785E02D8EE992E09DA38CA38A
:102E50008CA59DA5AEA5BFA58EA39FA3A8A7B9A726
:102E6000A701BE016C5D7F4FC8011995AF960FB6E3
:102E7000F894DEBF0FBECDBFDF91CF911F910F91B0
:102E8000FF90EF90DF90CF9008950E94A0278F923F
:102E90009F92AF92BF92CF92DF92EF92FF920F93E9
:102EA0001F93CF93DF937C01EB016C0182E0C80E8E
:102EB000D11C4701E5E08E0E911C10E000E0F60108
:102EC00041916F0150E070E060E02AE0CE010E9485
:102ED00027125C01E881F9810190F081E02D6EE21A
:102EE000CE0119958A0D9B1D080F191FC814D9040E
:102EF00031F7F701458150E070E060E02AE0CE0153
:102F00000E942712800F911FDF91CF911F910F9187
:102F1000FF90EF90DF90CF90BF90AF909F908F90F9
:102F200008950F931F93CF93DF93EC018C010C5EF8
:102F30001F4F86E9D8011D928A95E9F76A817B8146
:102F4000C8010E94D427FE01E653FF4F8081918182
:102F50004C815D81DC01ED91FC910088F189E02DCF
:102F6000B801199521E0892B09F420E0822FDF9127
:102F7000CF911F910F9108957F928F929F92AF9260
:102F8000BF92CF92DF92EF92FF920F931F93CF9356
:102F9000DF93CDB7DEB7A6970FB6F894DEBF0FBEAE
:102FA000CDBF8C01762E942E852E20E2A22ECE014E
:102FB00001967C01DC01EA2D1D92EA95E9F7680192
:102FC000F3E4CF0ED11C8EE992E09AA389A38FEF90
:102FD0008BA38CA38DA38EA343E450E0BE016F5D51
:102FE0007F4FC6010E947808019609F4BFC081E0B6
:102FF00089838A8386E0B82EBB821C82D80114960E
:103000006D917D918D919C9117970E9474266D838F
:103010007E838F83988789869A8680E890E09C8754
:103020008B874CE150E0B701C6010E94480DFE01BC
:1030300037968AE1DF011D928A95E9F74801B8E0E9
:103040008B0E911CF401D70101900D92BA94E1F717
:1030500040E150E0B701C6010E94480DF70111920E
:10306000AA94E9F796E0A92EB12C40E250E0B7010E
:10307000C6010E94480DF1E0AF1AB108B1F783E62E
:10308000898392E89A8393E59B838C8385E38D8380
:1030900081E08E837F829DE3988797E099878A8776
:1030A00086E0F401DE011B9601900D928A95E1F70E
:1030B0008CE0898B8A8B65EB72E0CE0143960E948F
:1030C000D427D8011B966C91CE0149960E94FC0230
:1030D000F8016485CE014B960E94FC02D8011D9632
:1030E0006C91CE014D960E94FC024EE150E0B7017A
:1030F000C6010E94480DB3E07B121EC082E38983A3
:1031000084E08A83F80196859B8397859C839089C8
:103110009D8391899E8396E39F838887828D89878B
:10312000838D8A87848D8B87858D8C874CE050E0DA
:10313000B701C6010E94480D87E3898386E08A8330
:1031400091E09B8393E09C838D838FE08E838AE361
:103150008F838BE388878FEF898749E050E0B70141
:10316000C6010E94480DC6010E94820AA6960FB6AB
:10317000F894DEBF0FBECDBFDF91CF911F910F91AD
:10318000FF90EF90DF90CF90BF90AF909F908F9087
:103190007F9008953F924F925F926F927F928F92AD
:1031A0009F92AF92BF92CF92DF92EF92FF920F93D6
:1031B0001F93CF93DF93CDB7DEB7EA970FB6F8949E
:1031C000DEBF0FBECDBF7C012A013B0169010E9419
:1031D00015044B015C0187010D5B1F4FC8010E9464
:1031E0008B13181619069CF00E94150468197909AA
:1031F0008A099B09461657066806790608F466C1CF
:1032000062E370E080E090E00E94E303E7CF42E2F7
:1032100050E0BE016F5F7F4FC8010E941F0F898180
:103220008230D1F0312C832DEA960FB6F894DEBFB0
:103230000FBECDBFDF91CF911F910F91FF90EF9007
:10324000DF90CF90BF90AF909F908F907F906F90C6
:103250005F904F903F900895F80184899589833459
:10326000910501F76D817E818F8198850E9474267A
:103270004B015C01F60180829182A282B38246E01A
:1032800050E0B701685F7F4FCE014D960E94A527A1
:10329000892B41F6F70180819181A281B381881643
:1032A0009906AA06BB0608F4BDCF84819581A68144
:1032B000B78188159905AA05BB0508F4B3CF89899C
:1032C0009A89AB89BC8986879787A08BB18B4EEC96
:1032D00050E070E060E0C8010E941F0F312CC70170
:1032E000829698AB8FA7F701B696FAABE9AB089632
:1032F0009CAB8BAB67019AE1C90ED11CBD96FEABAE
:10330000EDABC701429698AF8FABFD97FAAFE9AF2F
:103310004701FEE18F0E911CF801818D928D1816E8
:1033200019060CF080CFC8010E943E0F833391052F
:1033300009F4B2C014F58130910509F464C044F475
:10334000892B51F3C8010E943E0FAC01552775C06F
:103350008330910509F462C00697A1F7C8010E9465
:103360003E0FB82E44E050E0B401C8010E941F0F88
:10337000EB2DE450FF0BAF0160C08A33910509F4D7
:103380005FC084F585339105B1F1C697D9F6C801C0
:103390000E943E0F5C01B601CE0189960E94441343
:1033A0008BA59CA5ADA5BEA5892B8A2B8B2BB1F037
:1033B000EDA9FEA94080518062807380B601CE01E4
:1033C00083960E9444138DA19EA1AFA1B8A5A5012B
:1033D000481659066A067B0609F0B8CF44E050E06B
:1033E000B60118C08B33910509F440C08F3F910599
:1033F00009F492CFA7CFC8010E943E0FC8010E94D6
:103400003E0F382E89CFC8010E943E0F44E050E0A5
:103410006FA978ADC8010E941F0F7ECFC8010E941E
:103420003E0FB82E44E050E069AD7AADC8010E946D
:103430001F0F8B2D8450990BAC0170E060E0EACF38
:10344000C8010E943E0F44E050E069A97AA9C80172
:103450000E941F0FF70166A177A180A591A50E9488
:10346000742666A377A380A791A756CFC8010E94B0
:103470003E0F44E050E06BA97CA9C8010E941F0FD9
:10348000F70162A573A584A595A50E94742662A77D
:1034900073A784A795A740CFC8010E943E0F44E0C0
:1034A00050E06FA578A9C8010E941F0FF70162A123
:1034B00073A184A195A10E94742662A373A384A31F
:1034C00095A366A777A780AB91AB26CF33243A9418
:1034D000AACE0C9417270C9417271F920F920FB6A1
:1034E0000F9211242F933F938F939F93AF93BF938A
:1034F0008091DF039091E003A091E103B091E2039A
:103500003091DE0323E0230F2D3758F50196A11DDE
:10351000B11D2093DE038093DF039093E003A0931B
:10352000E103B093E2038091E3039091E403A0915F
:10353000E503B091E6030196A11DB11D8093E3035D
:103540009093E403A093E503B093E603BF91AF919A
:103550009F918F913F912F910F900FBE0F901F90D1
:10356000189526E8230F0296A11DB11DD2CF1F92F8
:103570000F920FB60F9211240BB60F922F933F9319
:103580004F935F936F937F938F939F93AF93BF936B
:10359000EF93FF9380E294E00E949504FF91EF91F6
:1035A000BF91AF919F918F917F916F915F914F915B
:1035B0003F912F910F900BBE0F900FBE0F901F9059
:1035C00018951F920F920FB60F9211240BB60F92FF
:1035D0002F938F939F93EF93FF93E0913004F0919B
:1035E00031048081E0913604F091370482FD1DC0E2
:1035F0009081809139048F5F8F7320913A048217F4
:1036000041F0E0913904F0E0E05EFB4F958F80934C
:103610003904FF91EF919F918F912F910F900BBEE5
:103620000F900FBE0F901F9018958081F2CF1092CF
:1036300023041092220448EE53E060E070E04093CF
:1036400024045093250460932604709327048AE58C
:1036500092E0909321048093200485EC90E0909375
:103660002D0480932C0484EC90E090932F0480939D
:103670002E0480EC90E0909331048093300481EC30
:1036800090E0909333048093320482EC90E0909326
:1036900035048093340486EC90E090933704809353
:1036A00036041092390410923A0410923B0410929E
:1036B0003C048EE992E09093BE048093BD04109286
:1036C000BF041092C0041092C1041092C2049093DF
:1036D000C4048093C3041092C5041092C6041092CF
:1036E000C7041092C8049093CA048093C90410922E
:1036F000CB041092CC041092CD041092CE0490937F
:10370000D0048093CF041092D1041092D20410926E
:10371000D3041092D4049093D6048093D5041092CD
:10372000D7041092D8041092D9041092DA0490931E
:10373000DC048093DB041092DD041092DE0410920E
:10374000DF041092E0049093E8048093E704109261
:10375000E9041092EA041092EB041092EC049093A6
:10376000E2048093E1041092E3041092E4041092C6
:10377000E5041092E6049093EE048093ED04109219
:10378000EF041092F0041092F1041092F20490935E
:10379000F4048093F3041092F5041092F60410924E
:1037A000F7041092F8049093C5068093C406109213
:1037B000C6061092C7061092C8061092C90610924B
:1037C000B8061092B7064093B9065093BA066093B4
:1037D000BB067093BC068CE692E09093B60680938D
:1037E000B50688E08093C10688EE93E09093C30607
:1037F0008093C2068CEB92E09093EC058093EB05EE
:103800008BE597E09093EE058093ED0584EB92E0D5
:103810009093F0058093EF058AEC92E09093F20587
:103820008093F10584ED92E09093F4058093F30585
:10383000E5E9F6E01192119286E0E33BF807D1F753
:1038400089EE95E01092F6051092F5051092F805B4
:103850001092F7051092F9051092FA052CE231E06A
:103860003093FC052093FB0510929406109293066A
:1038700024EA32E03093EA052093E90525EB36E0AF
:103880003093B4062093B3069093E8058093E70540
:1038900029ED32E030937205209371051092730583
:1038A0001092D9051092D8051092DB051092DA0516
:1038B0001092DF051092DE051092DD051092DC05F6
:1038C0001092E1051092E0051092E3051092E205D6
:1038D0001092E5051092E4051092E60590937005AC
:1038E00080936F0586EF92E09093FA048093F90439
:1038F0001092FB041092610510926005109263050E
:103900001092620510926705109266051092650587
:1039100010926405109269051092680510926B056B
:1039200010926A0510926D0510926C0510926E054A
:103930000895CF93DF9300D000D000D01F92CDB771
:10394000DEB7789484B5826084BD84B5816084BD1F
:1039500085B5826085BD85B5816085BD80916E002D
:10396000816080936E00109281008091810082605E
:10397000809381008091810081608093810080919B
:1039800080008160809380008091B100846080938A
:10399000B1008091B00081608093B000809191006F
:1039A000826080939100809191008160809391006A
:1039B000809190008160809390008091A10082604E
:1039C0008093A1008091A10081608093A1008091EB
:1039D000A00081608093A00080912101826080938B
:1039E000210180912101816080932101809120013A
:1039F00081608093200180917A00846080937A00B6
:103A000080917A00826080937A0080917A00816050
:103A100080937A0080917A00806880937A00109277
:103A2000C10086E00E940E0387E00E940E0385E03D
:103A30000E940E03E0913004F091310482E0808313
:103A4000E0912C04F0912D041082E0912E04F0916D
:103A50002F0480E1808310923804E0913404F091C7
:103A6000350486E08083E0913204F0913304808154
:103A700080618083E0913204F0913304808188601A
:103A80008083E0913204F0913304808180688083E8
:103A9000E0913204F091330480818F7D80838091A6
:103AA000D60381112AC01092BE031092BD0388EE86
:103AB00093E0A0E0B0E08093BF039093C003A09395
:103AC000C103B093C2038CE192E09093BC03809356
:103AD000BB038EE992E09093CA038093C9031092CE
:103AE000CB031092CC031092CD031092CE0388E04A
:103AF0008093D30381E08093D60388E793E090938B
:103B000077038093760380917503811197C060E3FA
:103B100072E080E090E00E94E3031FB7F894809188
:103B20007303811124C0EDEDF4E08491E3E2F5E04C
:103B30009491E82FF0E0EE0FFF1FE257FB4FA591A5
:103B4000B491EC91E92321F461E085E30E94320312
:103B500085E30E940E038CB580618CBD8CB58064BA
:103B60008CBD84E30E940E0383E30E940E038091C8
:103B700073038F5F809373031FBFE2EBF4E0E49164
:103B8000F0E0EE0FFF1FEC58FB4F8591949190935E
:103B9000720380937103E8EFF4E0E491E093700323
:103BA0008AE00E940E030E94FB0680E591E00E94DD
:103BB000F90284E380931F0480E80E94C5070E94F5
:103BC000C60A882309F475C188E00E94C5070E94CF
:103BD000B30A883009F06DC180E10E94C5070E94D8
:103BE000B30A803109F065C180E00E94C5070E94D8
:103BF000B30A182F81115DC141E050E0BE016F5F33
:103C00007F4F8FE190E00E943E098981833009F067
:103C100050C180E48093740342E06EE170E0812F34
:103C20000E94230842E06FE170E0812F0E94230888
:103C30001F5F183089F781E08093750380E591E07C
:103C40000E94F90246E050E060E072E089E090E016
:103C50000E9417078EE992E09A8389831B821C8257
:103C60001D821E8244E050E0BE016D5F7F4F8FE0F9
:103C700090E00E9417070091760310917703D80116
:103C800092961D921D921D921C929597F80116A274
:103C900017A210A611A69A961D921D921D921C9213
:103CA0009D9780E69AEEA0E0B0E086AB97ABA0AF20
:103CB000B1AF80EA9FE0A0E0B0E082AF93AFA4AFE5
:103CC000B5AF3E9684E1DF011D928A95E9F786E063
:103CD000E0E0F2E0D801189601900D928A95E1F7A4
:103CE000F801EE5BFF4FFA87E98710820E94E1221C
:103CF0002FEC37E040E050E00E940926DC01CB01C8
:103D00000196A11DB11DF80184839583A683B78315
:103D100080839183A283B3835801F3E4AF0EB11C77
:103D2000C5010E940E0A64E470E0C5010E943E10C5
:103D3000882309F427C10E9415042B013C0148EE99
:103D4000C42E43E0D42EE12CF12C52E0252E912CF0
:103D5000812CA985BA858C918330B9F1811146C235
:103D6000F80184819581A681B7810196A11DB11DBD
:103D700084839583A683B7830E941504641975090B
:103D800086099709A70196010E943B26A90161E0D7
:103D9000C8010E94BC1781E0A985BA858C93F1E027
:103DA0008F169104B1F20E941504641975098609F1
:103DB0009709D801D6962D913D914D915C91D99757
:103DC000261737074807590710F6C5010E940E0A43
:103DD000F80184819581A681B7810196A11DB11D4D
:103DE00084839583A683B7830E941504F801FE9609
:103DF00060837183828393838A94892809F0C2C087
:103E000080E591E00E94F90200917603109177031A
:103E1000B801625F7F4FCE0101960E94441344E0D7
:103E200050E0BE016D5F7F4F8FE090E00E9417076A
:103E3000B8016A5E7F4FCE0101960E94441344E0B0
:103E400050E0BE016D5F7F4F81E090E00E94170758
:103E5000B8016E5E7F4FCE0101960E94441344E08C
:103E600050E0BE016D5F7F4F85E090E00E94170734
:103E7000B801625E7F4FCE0101960E9444138B8190
:103E80009C81AD81BE818093E3049093E404A09370
:103E9000E504B093E6040E94BE037F73809106029E
:103EA00090910702682779277093070260930602B2
:103EB00069C087E380931F0480E80E94C5070E94C1
:103EC000C60A882329F188E00E94C5070E94B30A28
:103ED0008830F1F480E10E94C5070E94B30A182FD0
:103EE0008031B1F480E00E94C5070E94B30A8111BD
:103EF0000FC041E050E0BE016F5F7F4F89E390E06B
:103F00000E943E098981843019F41093740393CE82
:103F100083E380931F0480E80E94C5070E94C60ABD
:103F2000882371F180E10E94C5070E94B30A8031A5
:103F300039F582E10E94C5070E94B30A823101F57A
:103F400080E00E94C5070E94B30A811119C084E075
:103F50008093740315E5188741E050E0BE01685F67
:103F60007F4F8BE190E00E9417071F8341E050E0F4
:103F7000BE01695F7F4F8AE190E00E9417075BCE28
:103F800010921F0468EE73E080E090E00E94E3036B
:103F900089EF94E00E94D70281E795E00E94D70262
:103FA00080EC8093FD051092FE0542E050E06DEF3D
:103FB00075E089EE95E00E9459068111E2C10E94E8
:103FC000D10664E0D62E73EBE72E76E0F72EE0E123
:103FD000CE2EF2E8BF2E89EE95E00E94A206811156
:103FE000F5C165E173E080E294E00E94181222E0DE
:103FF000A22E36E0932E4EE1842E5EE0752E89EEE1
:1040000095E00E949117882309F4FCC1C092FD0538
:104010006CE273E08FEF95E00E942713DC01DC92E5
:104020001196AC921197E091F505F091F605309755
:10403000C9F0E491EE23B1F011969C921197809112
:10404000F905813009F0A8C111967C9211978091F1
:10405000FA05813039F411968C911197806211968E
:104060008C931197E091F105F091F205E491EE2324
:1040700039F011968C911197806811968C93119755
:10408000E091F305F091F405E491EE2339F01196F7
:104090008C911197806411968C9311978091FC05F7
:1040A00012968C9312978091FB0513968C9313971D
:1040B0006091EF057091F005FB018491882309F46C
:1040C00072C1CD0104960E9427136091F50570918D
:1040D000F6056115710561F0FB012491222341F081
:1040E0000E9427136091F7057091F8050E9427132D
:1040F0006091F1057091F205FB01249121110E945C
:1041000027136091F3057091F405FB0124912111AF
:104110000E9427138D5F95402EEF280F2093FE05F8
:10412000AC0155276DEF75E089EE95E00E945906C8
:10413000882309F467C160E777E18DEF95E00E947D
:10414000DF05843009F05EC18091FD05803209F001
:1041500059C18091FE05823009F054C1E0910006FA
:10416000E11151C105E916E0D8018D919C91892B8F
:1041700009F422C193E0692ED801ED91FC9152809F
:1041800060817181B092FD058091930690919406B3
:104190009093FF0580930006019690939406809378
:1041A000930681E096E00E942713FC015192CF0113
:1041B0008D5F95402EEF280F2093FE05AC0155270B
:1041C0006DEF75E089EE95E00E945906882309F4A9
:1041D00019C169E08DEF95E00E948612892B09F0E4
:1041E000EBC06A946110C8CFEEEF0DC18430F9F4D2
:1041F000F80184819581A681B7810196A11DB11D29
:1042000084839583A683B7830E9415046419750976
:1042100086099709A70196010E943B26A90163E040
:10422000C8010E94BC17A985BA852C92B8CD8130EF
:1042300059F5F80142AD53AD64AD75AD9E012F5FE8
:104240003F4FC8010E94CA18382EF2E08F1392C067
:1042500089819A81AB81BC81F80184839583A6838F
:10426000B7830E9415046419750986099709A70187
:1042700096010E943B26A90163E0C8010E94BC1779
:10428000A985BA853C928BCD823009F088CDF801A2
:1042900042AD53AD64AD75AD9E012F5F3F4FC80178
:1042A0000E94CA18382EF5E08F135DC0E3E0A9859F
:1042B000BA85EC93F80182A193A1A4A1B5A1892BA1
:1042C0008A2B8B2B41F484E893E0A0E0B0E082A33A
:1042D00093A3A4A3B5A3F80186A197A1A0A5B1A516
:1042E000892B8A2B8B2B61F482A193A1A4A1B5A168
:1042F000B695A7959795879586A397A3A0A7B1A7ED
:10430000F80182A593A5A4A5B5A5892B8A2B8B2B93
:10431000A9F482A193A1A4A1B5A1AC01BD0123E0A0
:1043200076956795579547952A95D1F7841B950BF8
:10433000A60BB70B82A793A7A4A7B5A7F80186A1E0
:1043400097A1A0A5B1A586A797A7A0ABB1AB82A561
:1043500093A5A4A5B5A582AB93ABA4ABB5AB8824BC
:104360008394912C1CCDF6E08F1304C0A985BA85E7
:104370001C9215CDBFEF3B1212CDE985FA85108254
:104380000ECD6DE08DEF95E00E9486128091FD05C7
:10439000803D09F014CE15CE823009F058CE11962A
:1043A0008C92119754CE14961C92149715961C92C9
:1043B0001597CD01069689CE0E5F1F4FE016F106C8
:1043C00009F0D2CE8AE593E00E947312E5E9F6E0A7
:1043D00081919191009731F0DC01AB58BF4F2C9146
:1043E000211134C0EE16FF0699F768E873E18DEFEE
:1043F00095E00E94DF050E942E11009739F50E947A
:104400004305E9CDEFEFEE5F64E074E0EA3038F4A5
:10441000F0E0EE0FFF1FEE5BFD4F6081718180E2E7
:1044200094E00E94040562EB72E080E294E00E9456
:10443000181281E393E00E9473120E94D10668E88B
:1044400073E180E090E00E94E303D9CDFC01EB58DA
:10445000FF4F1082F4E0893F9F07A9F56FE174E0F8
:1044600080E294E00E9404058CEF94E00E947312B5
:104470006AE673E08CEF94E00E94CB27892B21F44D
:1044800080ED97E00E94D2086EE673E08CEF94E036
:104490000E94CB27892B21F488EC90E00E94D2085F
:1044A0006DE673E08CEF94E00E94CB27892B21F41A
:1044B00084E190E00E94D20868EE73E080E090E032
:1044C0000E94E30383CF81579540B1F762E174E026
:1044D00080E294E00E94040584E795E00E94731254
:1044E0006AE673E084E795E00E94CB27892B21F4EC
:1044F00080ED97E00E94FA086EE673E084E795E0AD
:104500000E94CB27892B21F488EC90E00E94FA08C6
:104510006DE673E084E795E00E94CB27892B61F676
:1045200084E190E00E94FA08C7CF8F929F92AF92E9
:10453000BF92CF92DF92EF92FF92CF93DF93EC0185
:10454000688179818A819B81611571058105910559
:1045500021F464E279ED8BE597E02DE133EF41E062
:1045600050E00E94092649015A019B01AC01A7EACB
:10457000B1E40E9428266B017C01ACEEB4EFA501EA
:1045800094010E943626C60ED71EE81EF91EF7FEBD
:1045900006C081E0C81AD108E10880E8F80AC8829C
:1045A000D982EA82FB82C701B6019F77DF91CF9162
:1045B000FF90EF90DF90CF90BF90AF909F908F9043
:1045C00008958F929F92AF92BF92CF92DF92EF9217
:1045D000FF92609108027091090280910A02909105
:1045E0000B02611571058105910521F464E279EDF5
:1045F0008BE597E02DE133EF41E050E00E94092682
:1046000049015A019B01AC01A7EAB1E40E942826A6
:104610006B017C01ACEEB4EFA50194010E9436263B
:10462000C60ED71EE81EF91EF7FE06C081E0C81AA6
:10463000D108E10880E8F80AC0920802D092090285
:10464000E0920A02F0920B02C701B6019F77FF9039
:10465000EF90DF90CF90BF90AF909F908F90089594
:10466000609308027093090280930A0290930B02F0
:104670000895662777270C946323FC0188279927E0
:10468000E89421912032E9F3293010F02E30C8F35C
:104690002B3241F02D3239F4689404C00E945B2320
:1046A000820F911D219120532A30C0F31EF4909562
:1046B00081959F4F08957AE0979F902D879F802D39
:1046C000910D112408958F929F92AF92BF92CF9235
:1046D000DF92EF92FF920F931F93CF93DF935C01D2
:1046E0007B016115710519F0DB018D939C938501A8
:1046F0000F5F1F4FF501D0818D2F90E00E94C124E4
:104700006C01892BB9F5DD32B9F50F5F1F4FD5016B
:104710001196DC91C1E05801F1E0AF1AB10843E015
:1047200050E068E172E0C5010E94CA24892B69F556
:10473000680182E0C80ED11C45E050E063E172E000
:10474000C6010E94CA24892B21F4680197E0C90E92
:10475000D11CE114F10419F0D701CD92DC9260E094
:1047600070E080E89FEFC111FFC060E070E080E87A
:104770009FE7FAC05801BBCFDB3229F485010E5FF9
:104780001F4FF501D181C0E0C6CF43E050E060E1AA
:1047900072E0C5010E94CA24892BE9F0F80110E0FB
:1047A00000E020E030E0A9015F01B0ED8B2E8D0E1E
:1047B00089E08815C8F19C2E689491F88C2F887038
:1047C000C2FF16C0811102C00F5F1F4F3196D50185
:1047D000DC91C92DE9CFE114F10429F00E5F1F4FE0
:1047E000F7011183008360E070E080EC9FE7BCC0BC
:1047F000882311F001501109A5E0B0E00E9428269D
:104800009B01AC01220F331F441F551F280D311D82
:10481000411D511D283999E93907490799E159077F
:10482000A8F2C6609C2ED2CFAEEF8A1206C0C3FD9E
:104830003CC09C2E689493F8C9CFDF7DD534A9F590
:1048400080818D3239F4C061DF011296818162E08E
:1048500070E006C0DF018B32C1F3119661E070E0B9
:1048600080535D01A61AB70A8A30F8F4E0E8CE1644
:10487000ECE0DE065CF4B601660F771F660F771F6B
:10488000C60ED71ECC0CDD1CC80ED11C5D01FFEF7F
:10489000AF1ABF0A8C9180538A30A8F1C4FF03C0BD
:1048A000D194C194D1080C0D1D1DC1FF09C0E114A4
:1048B000F10431F081E0A81AB108D701AD92BC92A1
:1048C000CA01B9010E94E724C370C33009F49058AB
:1048D0004B015C0120E030E0A9010E94E224882322
:1048E00009F440C0C7E4D2E017FF05C01195019557
:1048F0001109CFE2D2E06E01B8E1CB1AD10880E213
:10490000E82EF12C0FC0D501B1CFFE0125913591D4
:10491000459154910E191F09C501B4010E94482503
:104920004B015C01D501C4010E151F0574F72497D6
:10493000F594E794CC16DD06A9F78A2F880F8B2F04
:10494000881F8F3F49F020E030E0A901C501B40184
:104950000E94E224811106C082E290E09093CB068F
:104960008093CA06C501B401DF91CF911F910F91C9
:10497000FF90EF90DF90CF90BF90AF909F908F907F
:10498000089591110C94B525803219F08950855005
:10499000C8F70895FB01DC014150504088F08D912B
:1049A00081341CF08B350CF4805E659161341CF011
:1049B0006B350CF4605E861B611171F3990B0895E1
:1049C000881BFCCF0E94242508F481E00895E89418
:1049D00009C097FB3EF490958095709561957F4F47
:1049E0008F4F9F4F9923A9F0F92F96E9BB279395F5
:1049F000F695879577956795B795F111F8CFFAF405
:104A0000BB0F11F460FF1BC06F5F7F4F8F4F9F4F35
:104A100016C0882311F096E911C0772321F09EE893
:104A2000872F762F05C0662371F096E8862F70E0F9
:104A300060E02AF09A95660F771F881FDAF7880FD3
:104A40009695879597F90895990F0008550FAA0B29
:104A5000E0E8FEEF16161706E807F907C0F0121691
:104A60001306E407F50798F0621B730B840B950B94
:104A700039F40A2661F0232B242B252B21F40895E9
:104A80000A2609F4A140A6958FEF811D811D089586
:104A90000E945B250C94CF250E94C12538F00E940E
:104AA000C82520F0952311F00C94B8250C94BE2550
:104AB00011240C9403260E94E02570F3959FC1F306
:104AC000950F50E0551F629FF001729FBB27F00DBC
:104AD000B11D639FAA27F00DB11DAA1F649F662711
:104AE000B00DA11D661F829F2227B00DA11D621F60
:104AF000739FB00DA11D621F839FA00D611D221F1A
:104B0000749F3327A00D611D231F849F600D211DFD
:104B1000822F762F6A2F11249F5750409AF0F1F080
:104B200088234AF0EE0FFF1FBB1F661F771F881FE9
:104B300091505040A9F79E3F510580F00C94B82544
:104B40000C9403265F3FE4F3983ED4F38695779563
:104B50006795B795F795E7959F5FC1F7FE2B880F8F
:104B6000911D9695879597F9089599278827089517
:104B700097F99F6780E870E060E008959FEF80EC10
:104B8000089500240A9416161706180609060895B3
:104B900000240A9412161306140605060895092E19
:104BA0000394000C11F4882352F0BB0F40F4BF2B88
:104BB00011F460FF04C06F5F7F4F8F4F9F4F0895C8
:104BC00057FD9058440F551F59F05F3F71F04795BE
:104BD000880F97FB991F61F09F3F79F087950895A3
:104BE000121613061406551FF2CF4695F1DF08C0C2
:104BF000161617061806991FF1CF869571056105DF
:104C000008940895E894BB2766277727CB0197F986
:104C10000895052E97FB1EF400940E94202657FD50
:104C200007D00E943B2607FC03D04EF40C942026AC
:104C300050954095309521953F4F4F4F5F4F0895C8
:104C400090958095709561957F4F8F4F9F4F0895F8
:104C50000E945D26A59F900DB49F900DA49F800D8E
:104C6000911D11240895B7FF0C9428260E94282630
:104C7000821B930B0895A1E21A2EAA1BBB1BFD01F8
:104C80000DC0AA1FBB1FEE1FFF1FA217B307E4072B
:104C9000F50720F0A21BB30BE40BF50B661F771F83
:104CA000881F991F1A9469F7609570958095909563
:104CB0009B01AC01BD01CF010895A29FB001B39F3C
:104CC000C001A39F700D811D1124911DB29F700D15
:104CD000811D1124911D0895EE0FFF1F881F8BBFAA
:104CE0000790F691E02D1994692796276927782770
:104CF0008727782708950F931F93CF93DF938230F0
:104D0000910510F482E090E0E091CE06F091CF069C
:104D100030E020E0B0E0A0E0309799F421153105B3
:104D200009F44AC0281B390B24303105D8F58A8193
:104D30009B816115710589F1FB0193838283FE01DB
:104D400011C0408151810281138148175907E0F059
:104D50004817590799F4109761F012960C9312971F
:104D600013961C933296CF01DF91CF911F910F9133
:104D700008950093CE061093CF06F4CF2115310588
:104D800051F04217530738F0A901DB019A01BD0128
:104D9000DF01F801C1CFEF01F9CF9093CF068093E7
:104DA000CE06CDCFFE01E20FF31F819391932250E7
:104DB000310939832883D7CF2091CC063091CD0695
:104DC000232B41F420910E0230910F023093CD0637
:104DD0002093CC0620910C0230910D022115310553
:104DE00041F42DB73EB74091100250911102241B9F
:104DF000350BE091CC06F091CD06E217F307A0F455
:104E00002E1B3F0B2817390778F0AC014E5F5F4F20
:104E10002417350748F04E0F5F1F5093CD0640937F
:104E2000CC06819391939FCFF0E0E0E09CCFCF93AD
:104E3000DF930097E9F0FC01329713821282A09170
:104E4000CE06B091CF06ED0130E020E01097A1F43E
:104E500020813181820F931F2091CC063091CD06A5
:104E60002817390709F061C0F093CD06E093CC060E
:104E7000DF91CF910895EA01CE17DF07E8F54A8167
:104E80005B819E0141155105B1F7E901FB83EA837E
:104E900049915991C40FD51FEC17FD0761F480812A
:104EA00091810296840F951FE901998388838281FD
:104EB00093819B838A83F0E0E0E012968D919C9130
:104EC00013970097B9F52D913C911197CD0102965A
:104ED000820F931F2091CC063091CD0628173907F9
:104EE00039F6309751F51092CF061092CE06B09356
:104EF000CD06A093CC06BCCFD383C2834081518121
:104F0000840F951FC817D90761F44E5F5F4F8881E2
:104F10009981480F591F518340838A819B819383D4
:104F200082832115310509F0B0CFF093CF06E093CD
:104F3000CE069ECFFD01DC01C0CF13821282D7CFF7
:104F400081E090E0F8940C940B28FB01DC0104C094
:104F50008D910190801921F441505040C8F7881B71
:104F6000990B08956817790768F4FB01DC01E40FD9
:104F7000F51FA40FB51F02C002900E924150504081
:104F8000D8F708950C940228DC0101C06D934150BC
:104F90005040E0F70895FB01DC018D9101908019EC
:104FA0000110D9F3990B0895FB01DC0101900D92DA
:104FB0000020E1F70895FB01DC014150504088F0EA
:104FC0008D9181341CF08B350CF4805E61916134DD
:104FD0001CF06B350CF4605E861B611171F3990B4C
:104FE0000895881BFCCFFB01DC014150504048F084
:104FF00001900D920020C9F701C01D924150504010
:10500000E0F70895FB01DC0102C001900D924150D0
:105010005040D8F70895F894FFCFDEADBEEFFEBE46
:1050200000C0010000000000D006800001005E000A
:105030000000000000004008480DCE0831032D0399
:105040003E0F020B3E101A0C0E0A78084716820A11
:105050008B131F0FC708B708B308AF08F003DE03B0
:1050600004049903540334030103E702B0024B0222
:1050700000000000B70421044E0423057F045D04F2
:105080007104000000006108820D3F0D2A0D450EDD
:10509000680F110B5C10BA16820F490A270A3509EE
:1050A0003D096B1A320930095608260903115013BD
:1050B000D810220900000000471700000000D108A6
:1050C000691AA2069117B4065906D7050D0A0057AA
:1050D000495A6E6574003139322E3136382E302EF1
:1050E000313638006D6F7371756974746F003132C9
:1050F0003334006D6F7371756974746F2F707269DA
:105100006E7465722F737465707065725F75700070
:105110006D6F7371756974746F2F7072696E7465D9
:10512000722F737465707065725F646F776E004381
:105130006F6E6E656374696E6720746F204D515495
:10514000542E2E2E20004D51545400526574727905
:10515000696E67204D51545420636F6E6E656374A1
:10516000696F6E20696E2035207365636F6E64739E
:105170002E2E2E004D51545420436F6E6E65637475
:0A5180006564210031300030310079
:020000040003F7
:10E000000D9489F10D94B2F10D94B2F10D94B2F129
:10E010000D94B2F10D94B2F10D94B2F10D94B2F1F0
:10E020000D94B2F10D94B2F10D94B2F10D94B2F1E0
:10E030000D94B2F10D94B2F10D94B2F10D94B2F1D0
:10E040000D94B2F10D94B2F10D94B2F10D94B2F1C0
:10E050000D94B2F10D94B2F10D94B2F10D94B2F1B0
:10E060000D94B2F10D94B2F10D94B2F10D94B2F1A0
:10E070000D94B2F10D94B2F10D94B2F10D94B2F190
:10E080000D94B2F10D94B2F10D94B2F10D94B2F180
:10E090000D94B2F10D94B2F10D94B2F10D94B2F170
:10E0A0000D94B2F10D94B2F10D94B2F10D94B2F160
:10E0B0000D94B2F10D94B2F10D94B2F10D94B2F150
:10E0C0000D94B2F10D94B2F10D94B2F10D94B2F140
:10E0D0000D94B2F10D94B2F10D94B2F10D94B2F130
:10E0E0000D94B2F141546D656761323536300041AF
:10E0F000726475696E6F206578706C6F72657220DE
:10E1000073746B3530305632206279204D4C530099
:10E11000426F6F746C6F616465723E004875683F52
:10E1200000436F6D70696C6564206F6E203D200048
:10E130004350552054797065202020203D20005FF9
:10E140005F4156525F415243485F5F3D2000415658
:10E1500052204C696243205665723D20004743437C
:10E160002056657273696F6E203D20004350552024
:10E1700049442020202020203D20004C6F7720663D
:10E18000757365202020203D20004869676820665F
:10E190007573652020203D200045787420667573D6
:10E1A00065202020203D20004C6F636B2066757336
:10E1B000652020203D20004D617220203720323024
:10E1C000313300312E362E3800342E332E350056A2
:10E1D00023202020414444522020206F7020636F70
:10E1E00064652020202020696E73747275637469E1
:10E1F0006F6E2061646472202020496E74657272B3
:10E20000757074006E6F20766563746F7200726A49
:10E210006D702020006A6D70200057686174207056
:10E220006F72743A00506F7274206E6F7420737541
:10E2300070706F72746564004D7573742062652030
:10E2400061206C6574746572002000577269747483
:10E25000696E672045450052656164696E672045B7
:10E26000450045452065727220636E743D00504F35
:10E27000525400303D5A65726F2061646472003FF1
:10E280003D43505520737461747300403D454550C3
:10E29000524F4D207465737400423D426C696E6B41
:10E2A000204C454400453D44756D70204545505215
:10E2B0004F4D00463D44756D7020464C415348001B
:10E2C000483D48656C70004C3D4C69737420492F83
:10E2D0004F20506F72747300513D51756974005234
:10E2E0003D44756D702052414D00563D73686F7707
:10E2F00020696E7465727275707420566563746FF0
:10E30000727300593D506F727420626C696E6B00BD
:10E310002A0011241FBECFEFD1E2DEBFCDBF01E046
:10E320000CBF12E0A0E0B2E0EEE1FDEF03E00BBFB6
:10E3300002C007900D92A030B107D9F712E0A0E01B
:10E34000B2E001C01D92AE30B107E1F70F9460F367
:10E350000D948DFE01E20EBF0FEF0DBF11241FBE05
:10E360000D9460F30D9400F020E030E040ED57E0B4
:10E3700005C0FA013197F1F72F5F3F4F2817390792
:10E38000C0F308959C01260F311DC901A0E0B0E043
:10E390002F5F3F4FABBFFC018791882361F08093D3
:10E3A000C6008091C00086FFFCCF8091C0008064D1
:10E3B0008093C000EACF08958DE08093C6008091DD
:10E3C000C00086FFFCCF8091C00080648093C000B5
:10E3D0008AE08093C6008091C00086FFFCCF8091C8
:10E3E000C00080648093C00008950F94C2F10F9420
:10E3F000DCF10895FC019081992359F09093C600B7
:10E400008091C00086FFFCCF8091C0008064809323
:10E41000C0003196992379F70895282F982F929567
:10E420009F70892F805D8A3308F0895F8093C600D2
:10E430008091C00086FFFCCF8091C00080648093F3
:10E44000C000822F8F70982F905D9A3308F0995FEB
:10E450009093C6008091C00086FFFCCF8091C000E1
:10E4600080648093C00008959C01FB01853691056E
:10E470001CF46330710594F0C90164E670E00F94F8
:10E480002EFE605D7F4F6093C6008091C00086FFC6
:10E49000FCCF8091C00080648093C0002B30310598
:10E4A00014F43297B4F0C90164E670E00F942EFEC4
:10E4B0006AE070E00F942EFE605D7F4F6093C600AF
:10E4C0008091C00086FFFCCF8091C0008064809363
:10E4D000C000C9016AE070E00F942EFEC0968093E0
:10E4E000C6008091C00086FFFCCF8091C000806490
:10E4F0008093C00008951F93182F8EE692EE60E07F
:10E500000F94C2F11093C6008091C00086FFFCCF2B
:10E510008091C00080648093C0000F94DCF11F9153
:10E5200008952F923F924F925F926F927F928F92B7
:10E530009F92AF92BF92CF92DF92EF92FF920F9392
:10E540001F93DF93CF93CDB7DEB762970FB6F894E2
:10E55000DEBF0FBECDBF382E622ECA01DB015C01CB
:10E560006D01772420E2222E2E010894411C511CBB
:10E570008BC081E0A81680E0B80681E0C80680E084
:10E58000D80628F0C601AA27BB270F940DF2BB2797
:10E59000AD2D9C2D8B2D0F940DF28A2D0F940DF225
:10E5A0002092C6008091C00086FFFCCF8091C00001
:10E5B00080648093C0009DE29093C6008091C0006B
:10E5C00086FFFCCF8091C00080648093C0002092C1
:10E5D000C6008091C00086FFFCCF8091C00080649F
:10E5E0008093C00019828601750188249924A1E0D6
:10E5F0003A1651F03A1620F0B2E03B1661F409C029
:10E600000BBFF701779007C0C7010F9477FE782EF4
:10E6100002C0F7017080872D0F940DF22092C60082
:10E620008091C00086FFFCCF8091C0008064809301
:10E63000C000872D8052F401EF70F0708F3520F408
:10E64000E40DF51D708204C0E40DF51D8EE280839B
:10E650000894E11CF11C011D111D0894811C911CE2
:10E6600090E18916910409F0C2CF80E190E0A0E02A
:10E67000B0E0A80EB91ECA1EDB1E198AC2010F9493
:10E68000FAF10F94DCF16A94662009F072CF629679
:10E690000FB6F894DEBF0FBECDBFCF91DF911F91B3
:10E6A0000F91FF90EF90DF90CF90BF90AF909F9031
:10E6B0008F907F906F905F904F903F902F90089534
:10E6C0002F923F924F925F926F927F928F929F9282
:10E6D000AF92BF92CF92DF92EF92FF920F931F9370
:10E6E000DF93CF93CDB7DEB7CD53D1400FB6F894BB
:10E6F000DEBF0FBECDBF01E20EBF0FEF0DBF94B75F
:10E70000F894A89514BE80916000886180936000A1
:10E7100010926000789493FF05C0E0910002F091A0
:10E7200001021995279A2F9A8091C00082608093E8
:10E73000C00080E18093C40088E18093C1000000A4
:10E74000EE24FF24870144E0A42EB12CCC24DD2448
:10E7500024C0C5010197F1F70894E11CF11C011DCB
:10E76000111D21E2E2162EE4F20620E0020720E06D
:10E77000120718F031E0C32ED12CC801B70127ECE5
:10E780003BE140E050E00F9441FE611571058105C9
:10E79000910519F485B1805885B98091C00087FD35
:10E7A00003C0C114D104A9F2A6014F5F5F4FC25E3E
:10E7B000DE4F59834883CE51D140C25EDE4F8881FF
:10E7C0009981CE51D140019711F00D9410FEC05D9A
:10E7D000DE4F19821882C053D14060E0C15DDE4F28
:10E7E0001882CF52D14088249924C35DDE4F19820C
:10E7F0001882CD52D140C05EDE4F188219821A8233
:10E800001B82C052D140CE5CDE4F188219821A8220
:10E810001B82C253D140EE24FF2487010BBFF701B6
:10E8200007911691C45CDE4F19830883CC53D14005
:10E830000D940BFEC25EDE4F28813981CE51D1404E
:10E840002130310509F52091C600C25EDE4F1982E4
:10E850001882CE51D14022C02F5F3F4F4F4F5F4FA4
:10E86000213082E138078AE7480780E0580780F0C6
:10E87000C45CDE4FE881F981CC53D140EF5FFF4F9C
:10E8800019F0EE27FF27099420E030E040E050E047
:10E890008091C00087FFE0CF2091C600C35DDE4FAE
:10E8A00048815981CD52D1404F5F5F4FC35DDE4FEC
:10E8B00059834883CD52D140213209F063C64A3092
:10E8C000510508F05FC60894811C911C53E0851621
:10E8D000910409F059C600E010E018C081E280936D
:10E8E000C6008091C00086FFFCCF8091C00080648C
:10E8F0008093C0002F5F3F4F2931310579F70F9486
:10E90000DCF10F5F1F4F0530110519F020E030E0FA
:10E91000E5CF10920A0210920B0210920C02109294
:10E920000D02109206021092070210920802109235
:10E930000902109202021092030210920402109235
:10E9400005028FEE90EE60E00F94F5F180E191EE1C
